:020000040000fa
:080000000002040000000000f2
:020000040000fa
:04000800da03000017
:020000040000fa
:04000c00da03000013
:020000040000fa
:04001000da0300000f
:020000040000fa
:04001400da0300000b
:020000040000fa
:04001800da03000007
:020000040000fa
:04001c00da03000003
:020000040000fa
:04002000da030000ff
:020000040000fa
:04002400da030000fb
:020000040000fa
:04002800da030000f7
:020000040000fa
:04002c00da030000f3
:020000040000fa
:04003000da030000ef
:020000040000fa
:0400340002030000c3
:020000040000fa
:04003800da030000e7
:020000040000fa
:04003c00da030000e3
:020000040000fa
:04004000da030000df
:020000040000fa
:04004400da030000db
:020000040000fa
:04004800fa020000b8
:020000040000fa
:04004c00da030000d3
:020000040000fa
:04005000da030000cf
:020000040000fa
:04005400960300000f
:020000040000fa
:040058006c03000035
:020000040000fa
:04005c004a03000053
:020000040000fa
:04006000da030000bf
:020000040000fa
:04006400da030000bb
:020000040000fa
:04006800da030000b7
:020000040000fa
:04006c00da030000b3
:020000040000fa
:04007000da030000af
:020000040000fa
:04007400da030000ab
:020000040000fa
:04007800da030000a7
:020000040000fa
:04007c00da030000a3
:020000040000fa
:04008000da0300009f
:020000040000fa
:04008400da0300009b
:020000040000fa
:04008800da03000097
:020000040000fa
:04008c00da03000093
:020000040000fa
:04009000da0300008f
:020000040000fa
:040094002003000045
:020000040000fa
:04009800da03000087
:020000040000fa
:04009c00da03000083
:020000040000fa
:0400a000da0300007f
:020000040000fa
:0400a400da0300007b
:020000040000fa
:0400a800da03000077
:020000040000fa
:0400ac00da03000073
:020000040000fa
:0400b000da0300006f
:020000040000fa
:0400b400da0300006b
:020000040000fa
:0400b800da03000067
:020000040000fa
:0400bc00da03000063
:020000040000fa
:0400c000da0300005f
:020000040000fa
:0400c400da0300005b
:020000040000fa
:0400c800da03000057
:020000040000fa
:0400cc00da03000053
:020000040000fa
:0400d000da0300004f
:020000040000fa
:0400d400da0300004b
:020000040000fa
:0400d800da03000047
:020000040000fa
:0400dc00da03000043
:020000040000fa
:0400e000da0300003f
:020000040000fa
:0400e400da0300003b
:020000040000fa
:0400e800da03000037
:020000040000fa
:0400ec00da03000033
:020000040000fa
:0400f000da0300002f
:020000040000fa
:0400f400da0300002b
:020000040000fa
:0400f800da03000027
:020000040000fa
:0400fc00da03000023
:020000040000fa
:04010000da0300001e
:020000040000fa
:04010400da0300001a
:020000040000fa
:04010800da03000016
:020000040000fa
:04010c00da03000012
:020000040000fa
:04011000da0300000e
:020000040000fa
:04011400da0300000a
:020000040000fa
:04011800da03000006
:020000040000fa
:04011c00da03000002
:020000040000fa
:04012000da030000fe
:020000040000fa
:04012400da030000fa
:020000040000fa
:04012800da030000f6
:020000040000fa
:04012c00da030000f2
:020000040000fa
:04013000da030000ee
:020000040000fa
:04013400da030000ea
:020000040000fa
:04013800da030000e6
:020000040000fa
:04013c00da030000e2
:020000040000fa
:04014000da030000de
:020000040000fa
:04014400da030000da
:020000040000fa
:04014800da030000d6
:020000040000fa
:04014c00da030000d2
:020000040000fa
:04015000da030000ce
:020000040000fa
:04015400da030000ca
:020000040000fa
:04015800da030000c6
:020000040000fa
:04015c00da030000c2
:020000040000fa
:04016000da030000be
:020000040000fa
:04016400da030000ba
:020000040000fa
:04016800da030000b6
:020000040000fa
:04016c00da030000b2
:020000040000fa
:04017000da030000ae
:020000040000fa
:04017400da030000aa
:020000040000fa
:04017800da030000a6
:020000040000fa
:04017c00da030000a2
:020000040000fa
:04018000da0300009e
:020000040000fa
:04018400da0300009a
:020000040000fa
:04018800da03000096
:020000040000fa
:04018c00da03000092
:020000040000fa
:04019000da0300008e
:020000040000fa
:04019400da0300008a
:020000040000fa
:04019800da03000086
:020000040000fa
:04019c00da03000082
:020000040000fa
:0401a000da0300007e
:020000040000fa
:0401a400da0300007a
:020000040000fa
:0401a800da03000076
:020000040000fa
:0401ac00da03000072
:020000040000fa
:0401b000da0300006e
:020000040000fa
:0401b400da0300006a
:020000040000fa
:0401b800da03000066
:020000040000fa
:0401bc00da03000062
:020000040000fa
:0401c000da0300005e
:020000040000fa
:0401c400da0300005a
:020000040000fa
:0401c800da03000056
:020000040000fa
:0401cc00da03000052
:020000040000fa
:0401d000da0300004e
:020000040000fa
:0401d400da0300004a
:020000040000fa
:0401d800da03000046
:020000040000fa
:0401dc00da03000042
:020000040000fa
:0401e000da0300003e
:020000040000fa
:0401e400da0300003a
:020000040000fa
:0401e800da03000036
:020000040000fa
:0401ec00da03000032
:020000040000fa
:0401f000da0300002e
:020000040000fa
:0401f400da0300002a
:020000040000fa
:0401f800da03000026
:020000040000fa
:0401fc00da03000022
:020000040000fa
:04020000da0300001d
:020000040000fa
:04020400da03000019
:020000040000fa
:04020800da03000015
:020000040000fa
:04020c00da03000011
:020000040000fa
:04021000da0300000d
:020000040000fa
:04021400da03000009
:020000040000fa
:04021800da03000005
:020000040000fa
:04021c00da03000001
:020000040000fa
:04022000da030000fd
:020000040000fa
:04022400da030000f9
:020000040000fa
:04022800da030000f5
:020000040000fa
:04022c00da030000f1
:020000040000fa
:04023000da030000ed
:020000040000fa
:04023400da030000e9
:020000040000fa
:04023800da030000e5
:020000040000fa
:04023c00da030000e1
:020000040000fa
:04024000da030000dd
:020000040000fa
:04024400da030000d9
:020000040000fa
:04024800da030000d5
:020000040000fa
:04024c00da030000d1
:020000040000fa
:04025000da030000cd
:020000040000fa
:04025400da030000c9
:020000040000fa
:04025800da030000c5
:020000040000fa
:04025c00da030000c1
:020000040000fa
:04026000da030000bd
:020000040000fa
:04026400da030000b9
:020000040000fa
:04026800da030000b5
:020000040000fa
:04026c00da030000b1
:020000040000fa
:04027000da030000ad
:020000040000fa
:04027400da030000a9
:020000040000fa
:04027800da030000a5
:020000040000fa
:04027c00da030000a1
:020000040000fa
:04028000da0300009d
:020000040000fa
:100400002f2121000eff2c000e01880000000000ab
:10041000000020000000e000020032000001200087
:100420002002880014000700e40007000000e0003c
:1004300003003a000085210001002000020037007f
:100440000000200001002000810f70000100320038
:100450000f000700000020000000e0000200320052
:100460000000020000000000761002000000000002
:100470000040da000000fe00200020000000e00044
:1004800002003200100020009001880000000600e9
:10049000a1028800800478000000eb001f003700f4
:1004a000e284440054a0b4009905ba00e2844400f8
:1004b00054a0b4009906ba00e284440054a0b400e9
:1004c0000006eb00476fde00fd07b200ae018800ba
:1004d000636ce10003003a000ad801000000eb0061
:1004e0000e003700606ce10008003a00004deb00a0
:1004f0000a05e800020039003420ec000af0a000f0
:100500008b05e900f9ff3e00040037006168e10057
:10051000010032000086eb000b00070019c7ba008b
:100520000e04e0001905ba0003003a000a00e000da
:10053000dbff3a0000000600fe07b200ae028800b2
:100540008a047800f5ff37000cd0a300e20f4d00bd
:100550001c00390089027800354dba000a05e80010
:10056000020039003420ec000af0a0008b05e900fd
:100570000f003200254dba000a05e80002003900dc
:100580003420ec000af0a0008b05e90008003200de
:100590000c00e0000600320015cdba000a05e800a4
:1005a000020039003420ec000af0a0008b05e900bd
:1005b0008984e80054a0b4000b00e000e2ff3a0098
:1005c000000006009902ba00055d78008b05e9007d
:1005d000f7ff3200c82ade00055d78008b05e900d0
:1005e000f3ff32000c00e000f1ff320019ddba0029
:1005f000eeff37000000fa000108a9000080fa00b1
:10060000004006003600f800809fbe00829fbe00ba
:10061000849fbe00869fbe000000fa000068a9000b
:10062000000607000080fa004f03be004f02be0024
:100630004f01be004f00be003600f900004006002a
:100640003600f800809fbe00829fbe00849fbe00df
:10065000869fbe000000fa000368a900d0818000d8
:10066000e181800061004000e0804800d081880086
:10067000e1818800c50607000080fa004f03be0034
:100680004f02be004f01be004f00be003600f90011
:1006900000400600809fbe000000fa0001a8a900eb
:1006a0000118800020022100010878001118800044
:1006b0002002210011009800211880002002210052
:1006c0002100980010c0b3002af0b7000080fa00a3
:1006d0004f00be00004006003600f800809fbe00bc
:1006e000829fbe00849fbe00869fbe000000fa006d
:1006f0000188a900b1818000a0818000808f500016
:100700000200320053090700010037003870ef0083
:100710000080fa004f03be004f02be004f01be0032
:100720004f00be003600f900004006003600f80019
:10073000809fbe00829fbe00849fbe00869fbe0039
:100740000000fa000168a900101180006400600038
:100750000000e000010032002242a90010118000d8
:10076000620060000000e000060032002222a900c2
:10077000050037003011800000407800a60907000e
:1007800001003700000000001011800061006000cf
:100790000000e000f7ff3a000080fa004f03be00bf
:1007a0004f02be004f01be004f00be003600f900f0
:1007b000004006000040da000000fe0000000500d6
:1007c00003f0a200889fbe008a9fbe008c1f7800a5
:1007d0006e010700750133006450e1004f003200e4
:1007e0006420e1005200320003826c0007003b00ed
:1007f0000905d0000306d000820f54000c065d00ee
:1008000002003900020032008901780003067800f6
:100810008582550004003d000003fd008103fd00ba
:100820008502ea008b854200840f720002003b00c3
:1008300060001000e08018006011b8000005eb00b7
:100840007a28e1000a00390006007800c75ddd0063
:10085000f707b200878075002d0037008281710094
:100860000a017800610560008180d1000080d3001a
:100870008502e900f9ff3b00060440008784480038
:1008800002003b0060041400e0841c000988a300ff
:10089000070032008a817100828171006101640069
:1008a0008904d1000884d3008b05e80017003700c5
:1008b0000978a30013003a000b00e0001300340095
:1008c0008b05e9000804440089844c000a44740044
:1008d0000978a3000d003a000b00e0000700340087
:1008e0008b05e9000804440089844c0001003a00ab
:1008f0000b0020000978a300f7ff32000001eb0095
:1009000002003700828171000a017800e4000700cc
:100910000cf0a70001f0a0002d0137006420e100d9
:1009200002003a00838f6c002d0133000801be00e5
:100930000200be00260137000081eb005f01370096
:10094000889fbe008a9fbe008c1f78000f010700a1
:100950001601330003866c006450e1002e00320063
:100960006420e100330032006150e1002f003200ca
:100970006120e1003100320085855500eb07b000b1
:100980000900200008042000050037000804440086
:1009900089844c000a0031000603430087834b0022
:1009a0000001530081815b00f8ff33000203be00a9
:1009b0000800a0000804440089844c00f6ff3900b8
:1009c000c639dd00830173000100320013002000ee
:1009d0008904d1000884d3000998a30005003200df
:1009e0000800a7000300a0008904d1000884d300f8
:1009f0008b05e8008904d1000884d3000001eb00d6
:100a00000281d200a600070001f0a1000cf0a700af
:100a100001f0a000ee0037006420e100f000320099
:100a20000801be000200be00f7ff37006120e100b0
:100a3000eb0032006000b800f3ff37000000200038
:100a400001f82700f0ff370014002000860137006e
:100a5000f4ff2f00840137000001be00b60007003c
:100a60000470a70003f0a1006509b1001600320070
:100a70000d0035006828e10006003500f0ff2f006a
:100a8000f1ff27000300e00013003b0001002800f5
:100a90000000050000004000818048008502e90058
:100aa000fcff3a0008003700f88f420002003c00cb
:100ab0008000eb00000005008100d1000080d30021
:100ac0008502e800fcff3a000300e00002003b0062
:100ad00060001000e0801800000006000001be0069
:100ae000950007000470a70003f0a10003f8a3001d
:100af00013003a006509b10010003200090035000a
:100b00006928e1000200350001002800000005000e
:100b100000004000818048008502e900fcff3a00a7
:100b200000000600f88f4200050035008100d1006a
:100b30000080d3008502e800fcff3a0000000600b8
:100b40008000eb00000005004f89de008201780084
:100b5000600137006011b8006e013700040020000a
:100b600000003700889fbe008a9fbe008c1f78005f
:100b70004f26dd00850007008c0033006120e10076
:100b8000430032006250e10041003e003e00390067
:100b90006420e1003c003200058255000f003b005c
:100ba0000402e80038003a00800f5300818f5b0098
:100bb000350034000800be0003f0a10001f0a600db
:100bc00003f0a0000cf0a700fefe07008000370035
:100bd0000603430087834b000c4646000005530084
:100be00081855b00020033000a03be000c00a000f8
:100bf0000402e900f6ff3b00850578000602430089
:100c000087824b0004003a006000b80009f0a7009a
:100c100001f0a0006e0037000002520081825a00ed
:100c20000704e000040033000603430087834b0001
:100c30008b05e900faff3700090578000604be00bd
:100c40000203be006011b80015000700e00f52005b
:100c5000e08f5a000700350002003c000c08a3009a
:100c6000040032000601be0003f0a0000cf0a70053
:100c7000d4fe07000a85680001f0a1000af0a70071
:100c800001f0a000520037000800be0050003700fd
:100c9000100220000cf0a60050828800500037009f
:100ca00081002000618055000b003d000b002000fa
:100cb00061fe2f000100e1001d00340082817100ff
:100cc000610164008904d1000884d3000000e800b9
:100cd000faff3a0071002000610064000300700018
:100ce000020060000900320061044400e0844c000e
:100cf0000988a500050032008b05e8006808e100be
:100d000002003a008904d1000884d300f20f2000c9
:100d10000258e10005003d00c75ddd00f907b200a3
:100d20008980750008007800000006000bf8270095
:100d30008b00780000000500c70ade00f107b20052
:100d4000f50fb20008003200e1cf4200020032008d
:100d50000170a00024000500810f70000100320026
:100d60000408050044000500810f700002003a00ed
:100d7000140005008502e9000000400081c0480021
:100d8000fcff3b000170a000240005000004be0031
:100d9000e9ff07000003be000405be000200be001c
:100da000e5ff0700844f7500000006000200be004a
:100db0006450e100050036006420e10002003600c6
:100dc0000968a30001003a000800be000160a0000d
:100dd0004f0678004f05be004f04be00000006001d
:100de000f0ff2f00f1ff2700f9ff3700889fbe00ba
:100df0008a9fbe008c1f7800e4ff0700ebff3300e2
:100e000003866c006450e100240032006420e1009d
:100e1000270032006150e100220032006120e10031
:100e2000210032008b854200eb07b1000134b8008d
:100e3000003ab8000804420089844a00013ab80028
:100e40000030b8008880400009014a0004003300e7
:100e50000000400081804800020149008b05e90044
:100e6000c909dd0083017000010032001300200079
:100e7000c814de004814dd004709de001200b2008d
:100e8000c808de000884700085ff070001f0a1009b
:100e90000cf0a70001f0a000cdff37006120e100b9
:100ea000cfff32000801be000200be00f7ff37008e
:100eb0006150e100fcff3a00c9ff3700889fbe0087
:100ec0008a9fbe008c9fbe00820578000004be0091
:100ed00099ff07000800be006420e1000700390008
:100ee00002003a00f1ff2700f0ff2f000160a00090
:100ef0001202200052828800550037006120e10074
:100f000003003a000b00a70001f82300500037004f
:100f100001f0a1000200210093642400cafe070032
:100f20000800be0004003500b2fd2000930c240030
:100f30000aff07000004be000005eb000b00a6003e
:100f40004f0dde0001f0a1000004be0032982f001a
:100f500023ea2300a5ff07000001eb0003f02300b4
:100f60000b00a70003f8230016fe0700bafe0700d7
:100f70000000a7000a00a200f3fe07000b00e0003b
:100f8000030032000200200003f023000cfe0700e3
:100f900001f0a2000006be0002002000930424001d
:100fa00092ff07000801be0006fe0700809fbe00fa
:100fb0000c00be0022a22a00d3a723008bff07004b
:100fc0004f01be00fffd07000004be0001f0a100bc
:100fd00002002000039823009bfe07000800be00cb
:100fe000190035000001be0080ff07000006be00aa
:100ff000b2c52900e36223007cff070022222b00f8
:10100000f3942b00effd07000c01be0077ff0700f3
:10101000e273280083c02300eafd07000c01be0034
:1010200072ff070042aa2a00a3e22b00e5fd070099
:101030000c01be006dff07000801be006bff07003a
:101040000801be00dffd07000a00a70001f0a200b2
:101050004f06be004f05be004f04be000000060054
:101060000001eb0095ff3700889fbe008a9fbe00fd
:10107000841f780045ff07004f00780011003300ff
:10108000f0ff2f00838f6c0006003b000405650015
:101090000a00a7000800370009f0a6001000200091
:1010a00008003700820f5400838f5c000300390072
:1010b0001000200001003e000000200009f0a70001
:1010c0000000ea004f05be004f04be000000e00033
:1010d00000000600881f7800030478000300e00089
:1010e00007003d0060001000e0801800600119005a
:1010f000e081190002003b0001f02d0003003700e1
:101100000400070008f0a70001f0a0004f047800d9
:1011100000000600889fbe008a9fbe00008270000b
:101120000402710004827100260032000004be0037
:101130000200be006011b8006b092000950220007b
:101140000182cf000a0039000541b1000082cf00c2
:10115000070039000541b1000982cf0004003900c1
:101160000541b1000882cf00010039000541b100fe
:1011700005425200120032000a003b0082817100d9
:10118000610164008100d1000080d3008984d30014
:101190000884d3008b05e8000442e800f7ff3a001a
:1011a000070037000804440089844c000000480010
:1011b000818048008b05e9000442e900f9ff3a000c
:1011c000b7fe07004f05be004f04be00000006003a
:020000040000fa
:1011d0000000fa0013e1a90011e1a9001061a800c4
:1011e0001021a90081088000f0fc2f000080600021
:1011f000800888000a21ef000621ef002026200049
:101200007008880000a02500600888002142800046
:1012100080ff2f00008060000000a00020428800b6
:101220000108a9002108a80011e1a8000080fa0027
:10123000000006000000fa003a30ef003c30ef00fa
:1012400005e1a90000002000a137240006000700e6
:101250000421a9000068a9002068a80005e1a800f1
:101260000080fa00000006000400fa00881f7800e1
:10127000008fbe0021088000f0fc2f00008060007d
:10128000200888001e0178009e0190000068290057
:1012900081c12400aafd070018c0b30002f02f008e
:1012a000f3772400eafd07000000e00001003c00a5
:1012b0000044eb000804e0005400320021088000e4
:1012c000f0fc2f00008060000040a0002008880093
:1012d0001e0178009e0190000068290081c1240051
:1012e00097fd0700020020000310240094fd070072
:1012f00018c0b30002f02f00f3772400d4fd0700dc
:101300000000e00001003c000044eb000804e000a5
:101310003200320021088000f0fc2f0000806000c5
:101320000050a000200888001e0178009e01900057
:101330000068290081c1240081fd0700020020000f
:10134000032824007efd070018c0b30002f02f0020
:10135000f3772400befd07000000e00001003c0020
:101360000044eb000804e000100032002108800077
:101370000003200001007000200888001e01780092
:101380009e0190000068290081c124006cfd0700c7
:10139000020020000338240069fd0700aefd0700ad
:1013a0000000780010088800200037001e01780037
:1013b0009e0190000068290081c1240060fd0700a3
:1013c00002002000032824005dfd0700a2fd0700a5
:1013d0000000780010088800140037001e01780013
:1013e0009e0190000068290081c1240054fd07007f
:1013f000020020000310240051fd070096fd0700a5
:101400000000780010088800080037001e017800ee
:101410009e0190000068290081c1240048fd07005a
:101420008dfd070000007800100888004f04780048
:101430000080fa00000006000000fa001fe1a90089
:1014400000002000a1472400060007001e21a9007b
:101450000368a9002368a8001fe1a8000080fa0023
:10146000000006000400fa00881f7800008fbe000c
:10147000f1088000f0fc2f0000806000f008880078
:101480001e0178009e0190000068290081c124009f
:101490002bfd070018c0b30002f02f00f3772400e3
:1014a0006bfd07000000e00001003c000044eb0081
:1014b0000804e00054003200f1088000f0fc2f0026
:1014c000008060000040a000f00888001e01780045
:1014d0009e0190000068290081c1240018fd0700ca
:1014e000020020000310240015fd070018c0b300ff
:1014f00002f02f00f377240055fd07000000e00004
:1015000001003c000044eb000804e000320032001f
:10151000f1088000f0fc2f00008060000050a00067
:10152000f00888001e0178009e01900000682900e4
:1015300081c1240002fd07000200200003282400ce
:10154000fffc070018c0b30002f02f00f37724005f
:101550003ffd07000000e00001003c000044eb00fc
:101560000804e00010003200f108800000032000b1
:1015700001007000f00888001e0178009e019000b4
:101580000068290081c12400edfc07000200200052
:1015900003382400eafc07002ffd07000000780054
:1015a000d0088800200037001e0178009e019000be
:1015b0000068290081c12400e1fc0700020020002e
:1015c00003282400defc070023fd0700000078004c
:1015d000d0088800140037001e0178009e0190009a
:1015e0000068290081c12400d5fc0700020020000a
:1015f00003102400d2fc070017fd0700000078004c
:10160000d0088800080037001e0178009e01900075
:101610000068290081c12400c9fc07000efd0700f5
:1016200000007800d00888004f0478000080fa009d
:10163000000006000400fa00881f7800008fbe003a
:1016400018c0b3006011b8001e0078009e00900022
:10165000fffc07000000e00001003d000044eb003b
:101660000804e000030032001e0078009e00900095
:10167000030037001e0078009e00900001f0a200d9
:101680004f0478000080fa00000006000800fa000d
:10169000881f7800008fbe0022079800330798004b
:1016a00018c0b3002e019000be0190001e0078000b
:1016b0009e009000e6fc07000000e00001003c00f6
:1016c0000044eb000804e000030032001e00780034
:1016d0009e009000020037002e009000be00900097
:1016e0004f0478000080fa00000006000800fa00ad
:1016f000881f7800008fbe002207980033079800eb
:1017000018c0b3002e019000be0190001e007800aa
:101710009e009000ccfc07000000e00001003500b6
:101720000044eb000804e000030032001e007800d3
:101730009e009000020037002e009000be00900036
:101740004f0478000080fa00000006000c00fa0048
:10175000881f7800008fbe0022079800330798008a
:10176000440798005507980018c0b3002e01900058
:10177000be0190001e0078009e009000b2fc0700a1
:101780000000e000010035000044eb000804e00028
:10179000030032002e009000be00900010003700c1
:1017a00018c0b3004e019000de0190001e007800ca
:1017b0009e009000a6fc07000000e00001003c0035
:1017c0000044eb000804e000030032004e009000eb
:1017d000de009000020037001e0078009e0090009e
:1017e0004f0478000080fa00000006000800fa00ac
:1017f0002007980031079800b2fd200093042400d0
:101800002e009000be009000edfb0700b2fd20000e
:10181000930c2400d1fc0700b2fd200093042400a7
:10182000e8fb0700008fbe00b2fd200093042400f7
:101830001e0078009e009000e2fb0700b2fd200031
:10184000930c2400c5fc0700b2fd20009304240083
:10185000dbfb07000080fa00000006000a00fa0027
:101860003007980041079800be0090004e0090009d
:10187000008f40001e007800100178009001900059
:1018800012079800230798001e009000ae009000f9
:101890000080fa00000006000600fa001007980019
:1018a000210798009e0090002e009000008f4000bd
:1018b0001e00780090009000100078000080fa0070
:1018c000000006000c00fa0020079800310798007d
:1018d00042079800530798006800470010079800d7
:1018e0000000eb00000f78000a0037003e00900077
:1018f0001e004000ae009000008040009e00780076
:101900001e0190008100410091407800014878005c
:101910001e0fe8001e007800e30f5000f3ff3400b4
:101920000080fa00000006000c00fa002007980072
:101930003107980042079800530798006800470055
:10194000100798000000eb00000f78000b00370034
:101950003e0090001e004000ae009000008040005d
:10196000320020009e0051001e01900081004100c5
:1019700091407800014878001e0fe8001e007800b2
:10198000e30f5000f2ff34000080fa000000060070
:101990000c00fa00200798003107980042079800d1
:1019a0005307980068004700100798000000eb00fc
:1019b000000f78000a0037003e0090001e00400033
:1019c000ae009000008040009e0078001e01900054
:1019d0008100410091407800014878001e0fe80026
:1019e0001e007800e70f5000f3ff34000080fa007b
:1019f000000006000000fa00c301a8000080eb0010
:101a0000e00e88000080eb00f00e8800c1e1a80025
:101a10000080fa00000006000000fa00c305a800dc
:101a20000080eb00e02e88000080eb00f02e8800a4
:101a3000c1e5a8000080fa00000006000800fa00d6
:101a4000889fbe008a9fbe00408080005180800039
:101a50000080880011808800608080007180800094
:101a60002080880031808800300e80008000eb00ec
:101a7000008fbe00500e80008000eb00c000dd0033
:101a8000000020001e0f40005e974800302e8000ae
:101a90008000eb002007980031079800502e80004e
:101aa0008000eb00c000dd00000020002e0190004f
:101ab000be0190000200400083804800200798008b
:101ac000310798001e0078009e0090001efc070061
:101ad000d25d2b0043c82300c4fc0700408088006f
:101ae000518088002e009000be00900016fc070078
:101af000d25d2b0043c82b00bcfc0700608088002f
:101b000071808800448080005580800000808000c3
:101b1000118080000001be000400be0028fb070009
:101b200080808800918088006480800075808000bb
:101b300020808000318080000001be000400be00d3
:101b40001ffb0700a0808800b1808800848080008f
:101b500095808000a0808000b18080000001be00e0
:101b60000400be0016fb0700a2992900c338240018
:101b700073fb0700c0808800d180880084808000cb
:101b800095808000a0808000b18080000001be00b0
:101b90000400be000bfb070002002000030024002d
:101ba00067fb0700e0808800f1808800808080006b
:101bb0009180800002002000a33724008bfc0700e6
:101bc000908f8800a18f8800a0808000b180800065
:101bd00002002000a337240084fc0700508f8800f7
:101be000618f8800948f8000a58f8000508f8000c7
:101bf000618f80000001be000400be00f1fa070002
:101c000002002000030024004dfb0700708f8800b5
:101c1000818f8800c0808000d18080000200200079
:101c2000a337240071fc0700b08f8800c18f8800a3
:101c30001090800021908000d08f8800e18f880074
:101c40003090800041908000f08f880001908800e3
:101c50007090800081908000509088006190880092
:101c6000d88f8000e98f80007a8f80008b8f800072
:101c700050908000619080002ffb07000001be00a3
:101c80000a00be0059fc07000001be000800be00ab
:101c9000ccfa07001090880021908800d88f80002f
:101ca000e98f80007a8f80008b8f800050908000b9
:101cb00061908000eafc07000001be000a00be003f
:101cc0004afc07000001be000800be00bdfa070084
:101cd0003090880041908800988f8000a98f800004
:101ce000508f8000618f80000200200003002400dc
:101cf00013fb07000001be000800be00b0fa070099
:101d0000a2992900c338240038fc0700709088008d
:101d100081908800709080008190800018c0b3008e
:101d2000b2fd20009304240049fb07000000e000fe
:101d300001003c000044eb000804e0000700320012
:101d40007090800081908000b2fd2000930c2400f0
:101d50009bfa070070908800819088007090800046
:101d60008190800018c0b300b2fd200093042c00c5
:101d700035fb07000000e000010035000044eb00e7
:101d80000804e0000700320070908000819080001d
:101d9000b2fd2000930c24008afa0700709088009e
:101da000819088004f05be004f04be000080fa00fd
:101db000000006000000fa001160800080ff2f0084
:101dc000008060001060880000fa20002060880019
:101dd00023aca800238ca80011618000f03f2f00e5
:101de0000080600000a0a00010618800300020008a
:101df00020618800c3aca800c38ca80011668000d5
:101e0000f03f2f000080600000a0a0001066880056
:101e1000300020002066880001eca8000080fa0055
:101e2000000006000000fa00889fbe00d48e8000eb
:101e3000e58e8000b08e8000c18e800018c0b30097
:101e40000001be000400be00fffa07000000e00031
:101e5000010035000044eb000804e0000d003200f2
:101e6000b88e8000c98e8000d48e8000e58e800000
:101e7000f0818000018280000001be000400be00ed
:101e800050fa07000801be0018fe0700d08e880037
:101e9000e18e8800d48e8000e58e8000b08e8000b8
:101ea000c18e800018c0b3000001be000400be0057
:101eb000e7fa07000000e00001003c000044eb00ee
:101ec0000804e0000d003200b88e8000c98e80004a
:101ed000d48e8000e58e8000f08180000182800039
:101ee0000001be000400be0035fa07000801be0074
:101ef000e6fd0700d08e8800e18e8800d08e80003d
:101f0000e18e800018c0b3006011b800d0fa07005d
:101f10000000e00001003c000044eb000804e00089
:101f200004003200c3cca90024eea800c3eca80032
:101f300003003700c3eca90024cea800c3cca8003e
:101f4000d08e8000e18e8000bafd070002002000e4
:101f500003222400a5fb0700e0fa07000000780038
:101f600030668800948e8000a58e8000708e800080
:101f7000818e800018c0b3000001be000400be00c6
:101f8000b1fa07000000e000010035000044eb005a
:101f90000804e0000d003200788e8000898e8000f9
:101fa000948e8000a58e8000f081800001828000e8
:101fb0000001be000400be0002fa07000801be00d6
:101fc000cafd0700908e8800a18e8800948e800044
:101fd000a58e8000708e8000818e800018c0b300b6
:101fe0000001be000400be0099fa07000000e000f6
:101ff00001003c000044eb000804e0000d0032004a
:10200000788e8000898e8000948e8000a58e80005e
:10201000f0818000018280000001be000400be004b
:10202000e7f907000801be0098fd0700908e8800c0
:10203000a18e8800908e8000a18e800018c0b30011
:102040006011b80080fa07000000e00001003500d0
:102050000044eb000804e0000400320023cca90097
:1020600015eea80023eca8000300370023eca9001c
:1020700015cea80023cca800908e8000a18e8000f1
:102080006cfd0700020020000322240057fb07001c
:1020900092fa070000007800306188004f04be000b
:1020a0000080fa00000006000600fa00008fbe0063
:1020b000424798004e4090000004e00005003a00be
:1020c0001e0178009e019000728e8800838e880029
:1020d000040037001e0178009e019000b28e880037
:1020e000c38e88000080fa00000006000c00fa0091
:1020f00019040700b70307002eff07004dfc070077
:10210000cdfc07007f0307000000eb00000f780004
:10211000050037005c030700204798002e40900020
:10212000cf0107001e0fe800700307009e0f50004c
:10213000f8ff3e00d0818000e181800000407800ff
:1021400021c4b30031479800f1c6b300414798005d
:10215000e1c6b30051479800a1c6b300614798009b
:10216000f1c6b3007147980051c7b300014f980002
:1021700021c7b300114f9800204f9800630047001b
:1021800081002000f0020700dfff37000000fa00a6
:1021900046d0bf000080fb00cf80de009200200010
:1021a00003002000820f5000838f580063003e0020
:1021b0000006010009003700110037001900370040
:1021c000210037002900370031003700390037007f
:1021d0003f003700470037004f00370012c0b30000
:1021e00000002000011f2400afff07000041eb00aa
:1021f00000002000011f2400abff07005200370041
:1022000012c0b30000002000011f2400a6ff070039
:102210000041eb0000002000011f2400a2ff070086
:102220004900370012c0b30000002000011f240045
:102230009dff07000041eb0000002000010a240080
:1022400099ff07004000370012c0b30000002000d3
:10225000010a240094ff07000041eb000000200069
:10226000011f240090ff07003700370012c0b300a1
:1022700000002000011724008bff07000041eb0045
:102280000000200001172c0087ff07002e003700f8
:1022900012c0b3000000200001172c0082ff0700cd
:1022a0000041eb0000002000011724007eff070022
:1022b0002500370012c0b3006000b8007aff0700a5
:1022c0000041eb006000b80077ff07001e003700f8
:1022d00012c0b30000002000011a2c0072ff07009a
:1022e0000041eb0000002000011a2c006eff0700e7
:1022f0001500370012c0b30000002000012a24009e
:1023000069ff07000041eb0000002000012a2400c3
:1023100065ff07000c00370012c0b300000020006a
:102320000117240060ff07000041eb0000002000bf
:10233000011724005cff07000300370060c0b300f2
:1023400046f0b700000000000080fa000000060020
:102350000200fa00004f78001e417800610421005d
:10236000824878000080fa00000006000200fa00af
:10237000004f7800114798000040eb005202070020
:102380001e41780081042100824878001e4190009f
:1023900091042100824878000080fa0000000600c5
:1023a0000000fa0021e3a9002143a80001198000e0
:1023b000f0cf2f0000806000001988002043a900a2
:1023c00001198000000e2000010070000019880033
:1023d00011198000f0ff21000080600010198800b2
:1023e0002343a80011198000f0cf2f000080600067
:1023f000101988001119800030f82f00008060004b
:102400000030a000101988002203a9002223a9008f
:1024100025e3a900f0c0b30024e3b7002119800030
:10242000f00f2e008080600000f02000010070009e
:10243000201988003303a9002e0ea8002f6ea800d3
:102440006f2ea80030c3a8003163a8002e03a80097
:102450004119800000fc2f000080600040198800b6
:1024600028e3a90001a8a90021a8a80021e3a80049
:102470000080fa00000006000000fa002023a800f7
:102480000080fa00000006000000fa00200221008f
:102490000080fa00000006000000fa002ad0bf0009
:1024a0000080fa00000006000000fa002a70ef0029
:1024b0000080fa00000006000600fa00f6ff0700a0
:1024c000e14f50004f003a00f7ff0700eeff070012
:1024d000000f78009e0078006480400010007800b3
:1024e0008000eb009bf90700323323003305240002
:1024f0003efa0700020020000358240010f90700ec
:10250000d2cc2c00c304240038fa0700100798002e
:10251000210798001e019000ae01900000002000ed
:102520008120240006f9070002002000030a24008d
:10253000a3f80700f08e8800018f88001e80e80055
:10254000100078008000eb0082f90700323323008e
:102550003305240025fa0700020020000358240058
:10256000f7f80700d2cc2c00c30424001ffa0700a0
:1025700010079800210798001e019000ae019000fe
:102580000000200081202400edf807000200200058
:10259000030a24008af80700108f8800218f880022
:1025a0001e007800100078008000eb0069f9070039
:1025b00032332300330524000cfa07000200200008
:1025c00003582400def80700d2cc2c00c3042400fa
:1025d00006fa070010079800210798001e019000d6
:1025e000ae0190000000200081202400d4f80700f4
:1025f00002002000030a240071f80700308f8800d1
:10260000418f88000080fa00000006000e00fa00ea
:10261000889fbe00004f98005107980062079800fd
:102620000f0478000f007800800478005e009000ae
:1026300066004000800078008100e90021079800d2
:102640000000e8000000e8000000d1008000400029
:102650000f007800818747000000e8000000d100eb
:1026600000004000300798003e009000ee0190000e
:102670005e0190008e489000180007003e00900018
:10268000104f780010002000100798000800370055
:10269000be0090001e0090000080400010407800b6
:1026a0001e4f68001e0090000000e8001007980010
:1026b0005e009000e50040001e009000808f5000fa
:1026c000f3ff3e001e4078008907780088077800f5
:1026d0004f04be000080fa00000006000a00fa0065
:1026e0001007980041479800320798004307980068
:1026f0001e009000e1cfb300014878001e0090005a
:102700000000e800ce4090008180fb00c888de0019
:1027100081407800014878001e0090000080e800a9
:10272000ce409000014878001e00900063004000f9
:10273000be009000c808de008140780001487800a3
:102740001e00900064004000be00900081407800b0
:10275000014878000000eb00000f78000a00370005
:102760009e007800658040009e0090000080400040
:102770009e0078004e019000810041009140780059
:10278000014878001e0fe8009e0078003e0090008f
:10279000808f5000f2ff39000080fa000000060030
:1027a0000c00fa00889fbe0060479800410798001f
:1027b000520798000f0478000f007800800478001a
:1027c0004e00900066004000800078008100e90023
:1027d000010f78000000e8000000e8000000d100d0
:1027e000800040000f007800818747000000e8006b
:1027f0000000d10000004000100798001e0090006b
:10280000de0190004e019000ee409000b3ff070003
:102810005e019000ce0090006e4090007bff0700ac
:10282000404798004e009000650040009e009000d8
:1028300000804000ce409000014878004e0090009b
:10284000e60040001e009000c700070089077800de
:10285000880778004f04be000080fa0000000600e0
:102860000400fa002047980090818000e30f500098
:1028700023003200e30f500005003e00e10f50003e
:1028800013003200e10f500015003e000700370032
:10289000e50f500035003200e50f50001f003900f1
:1028a000e60f5000400032004e0037002e409000ee
:1028b000e24f40004e003a002c70ef002e30ef0047
:1028c0003030ef0010002000908188004b0037006e
:1028d0002c70ef0020002000908188004700370016
:1028e000c1022100914078002e40900000c04000bd
:1028f0002cf0b70030002000908188003f003700a6
:102900002e4090000080fb004800dd0070818800b0
:102910004000200090818800380037002e40900051
:102920008080fb0070818000008040007081880002
:1029300071818000e00f2000808f50000900360078
:10294000708180000000e000030032005000200091
:102950009081880029003700600020009081880065
:10296000260037003230ef002400370080818000dd
:10297000c104210000804000ae4090000148780072
:10298000808180000000e8008081880081818000d3
:1029900070818000808f5000170039006000200097
:1029a0009081880015003700ae409000014f7800fc
:1029b000718180002cd0bf00c204210013ff0700ea
:1029c000104798001e4090009e4f500003003a00b0
:1029d0002cd0bf00c10421000a0007003230ef00f4
:1029e000060037003230ef0000000000030037001f
:1029f0000000000001003700000000000080fa0025
:102a0000000006000400fa00004f7800110798004b
:102a10001e80fb0001042000810f500040003200a6
:102a200011052000810f50004700320001022000f4
:102a3000810f50004a003a001e00900010407800bc
:102a40000080fb00e20f500014003200e30f500042
:102a500022003200e10f500040003a001e009000ba
:102a60000000e800104078000004a2000080fb0095
:102a70000000e9004f00de00004078000080fb000d
:102a8000610060004a00dd002171800001a0a1000a
:102a90000100700020718800200037001e009000a7
:102aa0000000e800104078000004a2000080fb0055
:102ab0000000e9004f00de00004078000080fb00cd
:102ac000610060004700dd00217380000170a100fb
:102ad0000100700020738800100037001e00900075
:102ae0000000e800104078000004a2000080fb0015
:102af0000000e9004f00de00004078000080fb008d
:102b0000610060004600dd00217380000160a100cb
:102b100001007000207388000000000010003700e2
:102b20001e0090000000e80010407800804078000f
:102b30001e009000104078000cfe07000040eb00e3
:102b400003fe0700060037001e00900010407800ca
:102b5000fffd07000000000001003700000000003a
:102b60000080fa00000006000600fa001007980036
:102b7000210798000040eb00004f78003e0007005e
:102b8000800078002e009000808f500011003600e9
:102b90000040eb00004f7800060037001e80fb006d
:102ba0009e00900000804000104078000b0007005d
:102bb0001e4fe8009e80fb002e009000808f50008a
:102bc000f6ff39003c0007000004e00001003a0075
:102bd000200007000080fa00000006000200fa0052
:102be000004f7800a0818000c10c2100808040004f
:102bf0009e4878000000e800a0818800a181800044
:102c000000082000808f500001003a003430ef00af
:102c10000080fa00000006000200fa00b081800087
:102c2000c10c210080804000114f78000000e800b6
:102c3000b0818800b181800000082000808f5000a2
:102c400001003a003630ef001e4078000080fa00a4
:102c5000000006000200fa0010c0b30038f0b70010
:102c6000edff0700004f78001e80fb002011880058
:102c70000080fa00000006000000fa00a181800038
:102c8000b0818000808f500005003400b181800049
:102c9000a0818000008050000008b00004003700d0
:102ca000a1818000b0818000008050000008b00049
:102cb0000080fa00000006000000fa0038d0bf00d3
:102cc0000080fa00000006000800fa006047980043
:102cd000d0818000e18180004808de000042780059
:102ce000d0818000e18180004008de0080417800d2
:102cf000d0818000e18180004809dd004800de00cd
:102d000000007100c808de0000417800d08180001a
:102d1000e181800000407800ee409000014f780093
:102d2000144798002347980032479800404798007e
:102d30000e0178005100200000c5b30098fe070086
:102d40000080fa00000006000400fa00000f78007e
:102d5000110798001e0178009e00900000c8b30083
:102d60008ffe07000080fa00000006001800fa003d
:102d7000d0818000e18180000001be008000eb0076
:102d80000e007800e8fa0700109080002190800083
:102d90000001be00410020000e007800c9fa0700c3
:102da00030908000419080000001be008100200032
:102db0000e007800c3fa07007090800081908000b8
:102dc0000001be00c10020000e007800bdfa07001f
:102dd000708f8000818f80000001be000101200003
:102de0000e007800b7fa0700b08f8000c18f800016
:102df0000001be00410120000e007800b1fa07007a
:102e00000e0178008101200010c6b30064fe0700a7
:102e10000080fa00000006000200fa00004f78006f
:102e20000f0007000000e0000b003400108280005b
:102e3000c1142100808040009e4878000000e80016
:102e4000108288001182800000082000808f5000ce
:102e500001003a004230ef000080fa000000060056
:102e60000000fa0011828000208280000080500063
:102e700000f0a7000000ea000108200000805000d8
:102e80000080fa00000006000200fa0020828000a4
:102e9000c114210080804000114f78000000e8003c
:102ea000208288002182800000082000808f50004e
:102eb00001003a004430ef001e4078000080fa0024
:102ec000000006000000fa001182800020828000cd
:102ed000808f50000200320010c0b30001003700a4
:102ee0000040eb000080fa00000006000000fa003d
:102ef000dbff070001082000008050000080fa007e
:102f0000000006000000fa002002a9000111800064
:102f100090ff2f00008060000011880020a2a9000f
:102f20002062a800500520004011880023a2a900bb
:102f300023e2a9000188a9002188a80011118000be
:102f4000f0f32f0000806000101188000168a900d4
:102f50002168a80021e2a8002342a8000080fa000e
:102f6000000006000600fa001007980021079800ec
:102f70000040eb00004f78000040eb00004f78006d
:102f80000e0037000000000011118000002020001a
:102f9000008060000000e000fbff3a001e0090008f
:102fa000104078000080fb00201188001e00900077
:102fb0000000e800100798001e4fe8009e80fb000c
:102fc0002e009000808f5000eeff35000080fa0048
:102fd000000006000000fa000e2eef001e2eef008b
:102fe0002e2eef003e2eef004e2eef005e2eef0055
:102ff0006e2eef00214ea90060cea90060eea90060
:1030000011cea90011eea90020cea90020eea90042
:103010002136800000f82f00008060008001b3009e
:10302000203688001134800000fc2f0000806000f2
:103030000000a000103488000136800000f82f0046
:1030400080806000100620000100700000368800bb
:1030500001368000f00f280080806000000026000c
:103060000100700000368800e135800000f82f0074
:10307000808060006004200001007000e03588005e
:10308000e1358000f00f28008080600000502400af
:1030900001007000e03588000080fa0000000600a2
:020000040000fa
:1030a0004c10000080000000800000002c10000088
:1030b0000800000080000000461000000200000030
:1030c000820000000600000048100000020000001e
:1030d000800000003a1000000400000080000000a2
:1030e000cc11000046000000800000003e100000ef
:1030f00004000000820000000000a000400000006a
:10310000201000000c00000080000000cc10000027
:103110008000000080000000341000000600000065
:10312000800000004c1100008000000080000000c2
:1031300042100000040000008000000000100000a9
:1031400020000000800000004a1000000200000083
:083150008000000000000000f7
:020000040000fa
:103158000000fa00f0032000303a8800213a80008d
:10316800f0f32f0000806000203a8800213a8000a8
:1031780000fe2f00008060000000a000203a8800b8
:103188001200200080072000a109200033742000cd
:10319800804978008149780082497800103a800097
:1031a800000178000200a0006004200071052000e2
:1031b800237420008049780081497800824978008a
:1031c80000000000113a80000000270080806000a5
:1031d80000002100808f5000faff3a000000000034
:1031e800113a800000022000008060000000e0002a
:0c31f800fbff32000080fa00000006001f
:020000040000fa
:02000004000af0
:04afe000cfff00009f
:020000040000fa
:02000004000af0
:04afe400ffff00006b
:020000040000fa
:02000004000af0
:04afe8007fff0000e7
:020000040000fa
:02000004000af0
:04afec005fff000003
:020000040000fa
:02000004000af0
:04aff00038ff000026
:020000040000fa
:02000004000af0
:04aff400ffff00005b
:00000001FF
