:020000040000fa
:080000000002040000000000f2
:020000040000fa
:04000800ae03000043
:020000040000fa
:04000c00ae0300003f
:020000040000fa
:04001000ae0300003b
:020000040000fa
:04001400ae03000037
:020000040000fa
:04001800ae03000033
:020000040000fa
:04001c00ae0300002f
:020000040000fa
:04002000ae0300002b
:020000040000fa
:04002400ae03000027
:020000040000fa
:04002800ae03000023
:020000040000fa
:04002c00ae0300001f
:020000040000fa
:04003000ae0300001b
:020000040000fa
:0400340006030000bf
:020000040000fa
:04003800ae03000013
:020000040000fa
:04003c00ae0300000f
:020000040000fa
:04004000ae0300000b
:020000040000fa
:04004400ae03000007
:020000040000fa
:04004800fe020000b4
:020000040000fa
:04004c00ae030000ff
:020000040000fa
:04005000ae030000fb
:020000040000fa
:040054007c03000029
:020000040000fa
:04005800ae030000f3
:020000040000fa
:04005c005a03000043
:020000040000fa
:04006000ae030000eb
:020000040000fa
:04006400ae030000e7
:020000040000fa
:04006800ae030000e3
:020000040000fa
:04006c00ae030000df
:020000040000fa
:04007000ae030000db
:020000040000fa
:04007400ae030000d7
:020000040000fa
:04007800ae030000d3
:020000040000fa
:04007c00ae030000cf
:020000040000fa
:04008000ae030000cb
:020000040000fa
:04008400ae030000c7
:020000040000fa
:04008800ae030000c3
:020000040000fa
:04008c00ae030000bf
:020000040000fa
:04009000ae030000bb
:020000040000fa
:040094004203000023
:020000040000fa
:04009800ae030000b3
:020000040000fa
:04009c00ae030000af
:020000040000fa
:0400a000ae030000ab
:020000040000fa
:0400a400ae030000a7
:020000040000fa
:0400a800ae030000a3
:020000040000fa
:0400ac00ae0300009f
:020000040000fa
:0400b000ae0300009b
:020000040000fa
:0400b400ae03000097
:020000040000fa
:0400b800ae03000093
:020000040000fa
:0400bc00ae0300008f
:020000040000fa
:0400c000ae0300008b
:020000040000fa
:0400c400ae03000087
:020000040000fa
:0400c800ae03000083
:020000040000fa
:0400cc00ae0300007f
:020000040000fa
:0400d000ae0300007b
:020000040000fa
:0400d400ae03000077
:020000040000fa
:0400d800ae03000073
:020000040000fa
:0400dc00ae0300006f
:020000040000fa
:0400e000ae0300006b
:020000040000fa
:0400e400ae03000067
:020000040000fa
:0400e800ae03000063
:020000040000fa
:0400ec00ae0300005f
:020000040000fa
:0400f000ae0300005b
:020000040000fa
:0400f400ae03000057
:020000040000fa
:0400f800ae03000053
:020000040000fa
:0400fc00ae0300004f
:020000040000fa
:04010000ae0300004a
:020000040000fa
:04010400ae03000046
:020000040000fa
:04010800ae03000042
:020000040000fa
:04010c00ae0300003e
:020000040000fa
:04011000ae0300003a
:020000040000fa
:04011400ae03000036
:020000040000fa
:04011800ae03000032
:020000040000fa
:04011c00ae0300002e
:020000040000fa
:04012000ae0300002a
:020000040000fa
:04012400ae03000026
:020000040000fa
:04012800ae03000022
:020000040000fa
:04012c00ae0300001e
:020000040000fa
:04013000ae0300001a
:020000040000fa
:04013400ae03000016
:020000040000fa
:04013800ae03000012
:020000040000fa
:04013c00ae0300000e
:020000040000fa
:04014000ae0300000a
:020000040000fa
:04014400ae03000006
:020000040000fa
:04014800ae03000002
:020000040000fa
:04014c00ae030000fe
:020000040000fa
:04015000ae030000fa
:020000040000fa
:04015400ae030000f6
:020000040000fa
:04015800ae030000f2
:020000040000fa
:04015c00ae030000ee
:020000040000fa
:04016000ae030000ea
:020000040000fa
:04016400ae030000e6
:020000040000fa
:04016800ae030000e2
:020000040000fa
:04016c00ae030000de
:020000040000fa
:04017000ae030000da
:020000040000fa
:04017400ae030000d6
:020000040000fa
:04017800ae030000d2
:020000040000fa
:04017c00ae030000ce
:020000040000fa
:04018000ae030000ca
:020000040000fa
:04018400ae030000c6
:020000040000fa
:04018800ae030000c2
:020000040000fa
:04018c00ae030000be
:020000040000fa
:04019000ae030000ba
:020000040000fa
:04019400ae030000b6
:020000040000fa
:04019800ae030000b2
:020000040000fa
:04019c00ae030000ae
:020000040000fa
:0401a000ae030000aa
:020000040000fa
:0401a400ae030000a6
:020000040000fa
:0401a800ae030000a2
:020000040000fa
:0401ac00ae0300009e
:020000040000fa
:0401b000ae0300009a
:020000040000fa
:0401b400ae03000096
:020000040000fa
:0401b800ae03000092
:020000040000fa
:0401bc00ae0300008e
:020000040000fa
:0401c000ae0300008a
:020000040000fa
:0401c400ae03000086
:020000040000fa
:0401c800ae03000082
:020000040000fa
:0401cc00ae0300007e
:020000040000fa
:0401d000ae0300007a
:020000040000fa
:0401d400ae03000076
:020000040000fa
:0401d800ae03000072
:020000040000fa
:0401dc00ae0300006e
:020000040000fa
:0401e000ae0300006a
:020000040000fa
:0401e400ae03000066
:020000040000fa
:0401e800ae03000062
:020000040000fa
:0401ec00ae0300005e
:020000040000fa
:0401f000ae0300005a
:020000040000fa
:0401f400ae03000056
:020000040000fa
:0401f800ae03000052
:020000040000fa
:0401fc00ae0300004e
:020000040000fa
:04020000ae03000049
:020000040000fa
:04020400ae03000045
:020000040000fa
:04020800ae03000041
:020000040000fa
:04020c00ae0300003d
:020000040000fa
:04021000ae03000039
:020000040000fa
:04021400ae03000035
:020000040000fa
:04021800ae03000031
:020000040000fa
:04021c00ae0300002d
:020000040000fa
:04022000ae03000029
:020000040000fa
:04022400ae03000025
:020000040000fa
:04022800ae03000021
:020000040000fa
:04022c00ae0300001d
:020000040000fa
:04023000ae03000019
:020000040000fa
:04023400ae03000015
:020000040000fa
:04023800ae03000011
:020000040000fa
:04023c00ae0300000d
:020000040000fa
:04024000ae03000009
:020000040000fa
:04024400ae03000005
:020000040000fa
:04024800ae03000001
:020000040000fa
:04024c00ae030000fd
:020000040000fa
:04025000ae030000f9
:020000040000fa
:04025400ae030000f5
:020000040000fa
:04025800ae030000f1
:020000040000fa
:04025c00ae030000ed
:020000040000fa
:04026000ae030000e9
:020000040000fa
:04026400ae030000e5
:020000040000fa
:04026800ae030000e1
:020000040000fa
:04026c00ae030000dd
:020000040000fa
:04027000ae030000d9
:020000040000fa
:04027400ae030000d5
:020000040000fa
:04027800ae030000d1
:020000040000fa
:04027c00ae030000cd
:020000040000fa
:04028000ae030000c9
:020000040000fa
:100400006f0321000eff27000e018800000000008e
:10041000000020000000e000020032000001200087
:100420002002880014000700ce0007000000e00052
:1004300003003a00200d21000100200002003700d7
:100440000000200001002000810f70000100320038
:100450000f000700000020000000e0000200320052
:10046000000002000000000062070200000000001f
:100470000040da000000fe00800020000000e000e4
:1004800002003200002020009001880000000600d9
:10049000a1028800800478000000eb001f003700f4
:1004a000e284440054a0b4009905ba00e2844400f8
:1004b00054a0b4009906ba00e284440054a0b400e9
:1004c0000006eb00476fde00fd07b200ae018800ba
:1004d000636ce10003003a000ad801000000eb0061
:1004e0000e003700606ce10008003a00004deb00a0
:1004f0000a05e800020039003420ec000af0a000f0
:100500008b05e900f9ff3e00040037006168e10057
:10051000010032000086eb000b00070019c7ba008b
:100520000e04e0001905ba0003003a000a00e000da
:10053000dbff3a0000000600fe07b200ae028800b2
:100540008a047800f5ff37000cd0a300e20f4d00bd
:100550001c00390089027800354dba000a05e80010
:10056000020039003420ec000af0a0008b05e900fd
:100570000f003200254dba000a05e80002003900dc
:100580003420ec000af0a0008b05e90008003200de
:100590000c00e0000600320015cdba000a05e800a4
:1005a000020039003420ec000af0a0008b05e900bd
:1005b0008984e80054a0b4000b00e000e2ff3a0098
:1005c000000006009902ba00055d78008b05e9007d
:1005d000f7ff3200c82ade00055d78008b05e900d0
:1005e000f3ff32000c00e000f1ff320019ddba0029
:1005f000eeff370068080400000000000000fa0069
:100600000108a9000080fa00004006003600f8004a
:10061000809fbe00829fbe00849fbe00869fbe005a
:100620000000fa000068a900217380000004200087
:100630000080600000f0a7000000ea000000e90070
:100640004f00de00004078000080fb006100600089
:100650004600dd00217380000160a10001007000f0
:1006600020738800450607000080fa004f03be0093
:100670004f02be004f01be004f00be003600f90021
:1006800000400600809fbe000000fa000368a90039
:10069000608080007180800061004000e080480040
:1006a00060808800718088000080fa004f00be00e2
:1006b00000400600809fbe000000fa0001a8a900cb
:1006c0000118800020002100010878001118800026
:1006d0002000210011009800211880002000210036
:1006e0002100980010c0b3000af0b7000080fa00a3
:1006f0004f00be0000400600801f78000000fa0096
:100700000168a90010118000640060000000e00092
:10071000010032002242a900101180006200600036
:100720000000e000050032002222a900040037008a
:100730003011800020118800010037000000000007
:1007400010118000610060000000e000f8ff3a0036
:100750000080fa004f007800004006000040da00f8
:100760000000fe000000050003f0a200889fbe000c
:100770008a9fbe008c1f7800670107006e0133005e
:100780006450e1004f0032006420e100520032006a
:1007900003826c0007003b000905d0000306d0006f
:1007a000820f54000c065d00020039000200320086
:1007b00089017800030678008582550004003d0019
:1007c0000003fd008103fd008502ea008b854200e5
:1007d000840f720002003b0060001000e0801800ef
:1007e0006011b8000005eb007a28e1000a0039002a
:1007f00006007800c75ddd00f707b200878075004e
:100800002d003700828171000a01780061056000c7
:100810008180d1000080d3008502e900f9ff3b0010
:10082000060440008784480002003b006004140076
:10083000e0841c000988a300070032008a8171004f
:1008400082817100610164008904d1000884d300b1
:100850008b05e800170037000978a30013003a0061
:100860000b00e000130034008b05e900080444008d
:1008700089844c000a4474000978a3000d003a00f2
:100880000b00e000070034008b05e9000804440079
:1008900089844c0001003a000b0020000978a30075
:1008a000f7ff32000001eb00020037008281710087
:1008b0000a017800dd0007000cf0a70001f0a0009d
:1008c000260137006420e10002003a00838f6c00ab
:1008d000260133000801be000200be001f013700e0
:1008e000889fbe008a9fbe008c1f78000a01070007
:1008f0001101330003866c006450e1002e003200c9
:100900006420e100330032006150e1002f0032002a
:100910006120e1003100320085855500eb07b00011
:1009200009002000080420000500370008044400e6
:1009300089844c000a0031000603430087834b0082
:100940000001530081815b00f8ff33000203be0009
:100950000800a0000804440089844c00f6ff390018
:10096000c639dd008301730001003200130020004e
:100970008904d1000884d3000998a300050032003f
:100980000800a7000300a0008904d1000884d30058
:100990008b05e8008904d1000884d3000001eb0036
:1009a0000281d200a100070001f0a1000cf0a70015
:1009b00001f0a000e90037006420e100eb00320004
:1009c0000801be000200be00f7ff37006120e10011
:1009d000e60032006000b800f3ff3700000020009e
:1009e00001f82700f0ff370014002000160137003f
:1009f000f4ff2f00140137000001be00b100070012
:100a00000470a70003f0a1006509b10016003200d0
:100a10000d0035006828e10006003500f0ff2f00ca
:100a2000f1ff27000300e00013003b000100280055
:100a30000000050000004000818048008502e900b8
:100a4000fcff3a0008003700f88f420002003c002b
:100a50008000eb00000005008100d1000080d30081
:100a60008502e800fcff3a000300e00002003b00c2
:100a700060001000e0801800000006000001be00c9
:100a8000900007000470a70003f0a10003f8a30082
:100a900013003a006509b10010003200090035006a
:100aa0006928e1000200350001002800000005006f
:100ab00000004000818048008502e900fcff3a0008
:100ac00000000600f88f4200050035008100d100cb
:100ad0000080d3008502e800fcff3a000000060019
:100ae0008000eb000000050004002000000037003b
:100af000889fbe008a9fbe008c1f78004f26dd00b5
:100b0000850007008c0033006120e10043003200c3
:100b10006250e10041003e003e0039006420e100e7
:100b20003c003200058255000f003b000402e80043
:100b300038003a00800f5300818f5b00350034008d
:100b40000800be0003f0a10001f0a60003f0a00021
:100b50000cf0a70005ff07008000370006034300e4
:100b600087834b000c4646000005530081855b00df
:100b7000020033000a03be000c00a0000402e900da
:100b8000f6ff3b00850578000602430087824b0094
:100b900004003a006000b80009f0a70001f0a000ce
:100ba0006e0037000002520081825a000704e00004
:100bb000040033000603430087834b008b05e900e4
:100bc000faff3700090578000604be000203be00e4
:100bd0006011b80015000700e00f5200e08f5a00c6
:100be0000700350002003c000c08a300040032009e
:100bf0000601be0003f0a0000cf0a700dbfe07001a
:100c00000a85680001f0a1000af0a70001f0a00029
:100c1000520037000800be005000370010022000cc
:100c20000cf0a600b0808800500037008100200042
:100c3000618055000b003d000b00200061fe2f007d
:100c40000100e1001d003400828171006101640037
:100c50008904d1000884d3000000e800faff3a00bc
:100c60007100200061006400030070000200600059
:100c70000900320061044400e0844c000988a500aa
:100c8000050032008b05e8006808e10002003a0028
:100c90008904d1000884d300f20f20000258e1003b
:100ca00005003d00c75ddd00f907b20089807500d1
:100cb00008007800000006000bf827008b00780081
:100cc00000000500c70ade00f107b200f50fb20010
:100cd00008003200e1cf4200020032000170a000a3
:100ce00024000500810f7000010032000408050097
:100cf00044000500810f700002003a001400050056
:100d00008502e9000000400081c04800fcff3b0074
:100d10000170a000240005000004be00e9ff0700e8
:100d20000003be000405be000200be00e5ff070090
:100d3000844f7500000006000200be006450e10010
:100d4000050036006420e100020036000968a300b7
:100d500001003a000800be000160a0004f067800c4
:100d60004f05be004f04be0000000600f0ff2f003c
:100d7000f1ff2700f9ff3700889fbe008a9fbe0061
:100d80008c1f7800e4ff0700ebff330003866c0044
:100d90006450e100240032006420e10027003200aa
:100da0006150e100220032006120e10021003200a8
:100db0008b854200eb07b1000134b800003ab8005f
:100dc0000804420089844a00013ab8000030b800a3
:100dd0008880400009014a00040033000000400000
:100de00081804800020149008b05e900c909dd0046
:100df000830170000100320013002000c814de00df
:100e00004814dd004709de001200b200c808de0009
:100e10000884700085ff070001f0a1000cf0a70016
:100e200001f0a000cdff37006120e100cfff3200cc
:100e30000801be000200be00f7ff37006150e1006c
:100e4000fcff3a00c9ff3700889fbe008a9fbe00a2
:100e5000841f7800b0ff07004f00780011003300b6
:100e6000f0ff2f00838f6c0006003b000405650037
:100e70000a00a7000800370009f0a60010002000b3
:100e800008003700820f5400838f5c000300390094
:100e90001000200001003e000000200009f0a70023
:100ea0000000ea004f05be004f04be000000e00055
:040eb0000000060038
:020000040000fa
:100eb400426f00006e6a00006f750000720000004f
:020000040000fa
:100ec4000000fa00700407009a04070038010700c4
:100ed4001e010700b5010700f103070036040700ef
:100ee400a0752800710020004b04070000a0250015
:100ef40021262000bf040700f9ff37000000fa0094
:100f040015d0bf000080fb00cf80de00b2002000bf
:100f140003002000820f5000838f580065003e00bc
:100f2400000601000b003700140037001d003700d5
:100f3400270037002900370032003700340037001b
:100f44003d0037003f003700490037004b003700b1
:100f5400550037000c30ef000e30ef0012c0b30024
:100f64006000b800bd0307000041eb006000b8005a
:100f7400ba03070010c0b30015f0b7006280800008
:100f840073808000803e200001002000800f51000b
:100f9400818f59004a00360020c0b30015f0b70015
:100fa4004800370012c0b30000002000011f2400d5
:100fb400aa0307000041eb0000002000011f2400e9
:100fc400a603070030c0b30015f0b7003d0037009a
:100fd40080862000000001003a00370012c0b300f0
:100fe40000002000011f24009c0307000041eb00c7
:100ff4006000b8009903070050c0b30015f0b700b3
:101004003000370080862000000001002d003700ea
:1010140012c0b3006000b800900307000041eb0069
:1010240000002000011f24008c03070070c0b300df
:1010340015f0b7002300370080862000000001006f
:101044002000370012c0b300000020000117240064
:10105400820307000041eb000000200001172c0070
:101064007e03070090c0b30015f0b70015003700e9
:1010740080862000000001001200370012c0b30077
:101084000000200001172c00740307000041eb004e
:10109400000020000117240070030700b0c0b30053
:1010a40015f0b7000700370080862000000001001b
:1010b400040037001570ef00000000000100370045
:1010c400000000000080fa00000006000200fa00a0
:1010d400881f78000040eb00004f780050818000aa
:1010e4006181800018c0b3000200200003222400a4
:1010f4003cfe07000000e000010035000044eb0066
:101104000804e000190032007081800081818000b1
:1011140018c0b30002002000031f240033fe0700a0
:101124000000e00001003c000044eb000804e00083
:101134000e00320090818000a181800018c0b300ad
:10114400020020000322240028fe07000000e00023
:1011540001003c000044eb000804e00003003200fe
:1011640020c0b300004f7800550037005081800044
:101174006181800018c0b300020020000322240013
:101184001afe07000000e00001003c000044eb00f0
:101194000804e00019003200708180008181800021
:1011a40018c0b30002002000031f24000ffe070034
:1011b4000000e00001003c000044eb000804e000f3
:1011c4000e00320090818000a181800018c0b3001d
:1011d400020020000322240002fe07000000e000b9
:1011e400010035000044eb000804e0000300320075
:1011f40010c0b300004f78003100370070818000c8
:101204008181800018c0b30002002000031f240065
:10121400f4fd07000000e000010035000044eb008d
:101224000804e0000300320030c0b300004f78002f
:1012340023003700508180006181800018c0b30012
:101244000200200003222400e8fd07000000e00063
:1012540001003c000044eb000804e00018003200e8
:10126400708180008181800018c0b30002002000da
:10127400031f2400ddfd07000000e00001003c0026
:101284000044eb000804e0000d003200908180006f
:10129400a181800018c0b3000200200003222400b2
:1012a400d2fd07000000e00001003c000044eb0018
:1012b4000804e000020032000040eb00004f780018
:1012c4001e4078000004e00003003a0020c0b30090
:1012d40014f0b700110037001e407800e24f5000b0
:1012e40003003a0060c0b30014f0b7000b003700ed
:1012f4001e407800e14f500003003a0040c0b300a4
:1013040014f0b700050037001e407800e34f50008a
:1013140002003a0080c0b30014f0b70014d0bf003c
:101324008080fb0015d0bf000080fb000000e900b6
:10133400808f50000200320014d0bf0015f0b700b7
:101344004f0478000080fa00000006000000fa0054
:1013540013e1a90011e1a9001061a8001021a9005e
:1013640081088000f0fc2f00008060008008880065
:101374000a21ef000621ef002026200070088800d3
:1013840000a02500600888002142800080ff2f0013
:10139400008060000000a000204288000108a9002d
:1013a4002108a80011e1a8000080fa00000006004e
:1013b4000000fa0005e1a9000000200081242400b7
:1013c400060007000421a9000068a9002068a800fd
:1013d40005e1a8000080fa00000006000400fa00fd
:1013e400881f7800008fbe0021088000f0fc2f00c9
:1013f40000806000200888001e0178009e01900093
:101404000068290081c1240034fd070018c0b3001e
:1014140002f02f00f377240074fd07000000e000c1
:1014240001003c000044eb000804e00054003200da
:1014340021088000f0fc2f00008060000040a00024
:10144400200888001e0178009e0190000068290091
:1014540081c1240021fd07000200200003102400a4
:101464001efd070018c0b30002f02f00f37724001c
:101474005efd07000000e00001003c000044eb00ba
:101484000804e0003200320021088000f0fc2f0044
:10149400008060000050a000200888001e01780031
:1014a4009e0190000068290081c124000bfd070003
:1014b400020020000328240008fd070018c0b30020
:1014c40002f02f00f377240048fd07000000e0003d
:1014d40001003c000044eb000804e000100032006e
:1014e400210880000003200001007000200888000b
:1014f4001e0178009e0190000068290081c124002b
:10150400f6fc07000200200003382400f3fc070067
:1015140038fd07000000780010088800200037001c
:101524001e0178009e0190000068290081c12400fa
:10153400eafc07000200200003282400e7fc07005f
:101544002cfd070000007800100888001400370004
:101554001e0178009e0190000068290081c12400ca
:10156400defc07000200200003102400dbfc07005f
:1015740020fd0700000078001008880008003700ec
:101584001e0178009e0190000068290081c124009a
:10159400d2fc070017fd070000007800100888003f
:1015a4004f0478000080fa00000006000000fa00f2
:1015b4001fe1a90000002000a14724000600070045
:1015c4001e21a9000368a9002368a8001fe1a80040
:1015d4000080fa00000006000400fa00881f78006a
:1015e400008fbe00f1088000f0fc2f000080600036
:1015f400f00888001e0178009e0190000068290010
:1016040081c12400b5fc070018c0b30002f02f000c
:10161400f3772400f5fc07000000e00001003c0023
:101624000044eb000804e00054003200f10880009c
:10163400f0fc2f00008060000040a000f00888004b
:101644001e0178009e0190000068290081c12400d9
:10165400a2fc070002002000031024009ffc0700e6
:1016640018c0b30002f02f00f3772400dffc07005a
:101674000000e00001003c000044eb000804e0002e
:1016840032003200f1088000f0fc2f00008060007e
:101694000050a000f00888001e0178009e01900010
:1016a4000068290081c124008cfc0700020020008e
:1016b4000328240089fc070018c0b30002f02f009f
:1016c400f3772400c9fc07000000e00001003c009f
:1016d4000044eb000804e00010003200f108800030
:1016e4000003200001007000f00888001e0178004b
:1016f4009e0190000068290081c1240077fc070046
:10170400020020000338240074fc0700b9fc070021
:1017140000007800d0088800200037001e017800ff
:101724009e0190000068290081c124006bfc070021
:10173400020020000328240068fc0700adfc070019
:1017440000007800d0088800140037001e017800db
:101754009e0190000068290081c124005ffc0700fd
:1017640002002000031024005cfc0700a1fc070019
:1017740000007800d0088800080037001e017800b7
:101784009e0190000068290081c1240053fc0700d9
:1017940098fc070000007800d00888004f04780007
:1017a4000080fa00000006000400fa00881f780098
:1017b400008fbe0018c0b3006011b8001e0078008e
:1017c4009e00900089fc07000000e00001003d003d
:1017d4000044eb000804e000030032001e0078001f
:1017e4009e009000030037001e0078009e009000c9
:1017f40001f0a2004f0478000080fa000000060007
:101804000800fa00881f7800008fbe0022079800a5
:101814003307980018c0b3002e019000be01900059
:101824001e0078009e00900070fc07000000e0009d
:1018340001003c000044eb000804e0000300320017
:101844001e0078009e009000020037002e009000d9
:10185400be0090004f0478000080fa0000000600eb
:101864000800fa00881f7800008fbe002207980045
:101874003307980018c0b3002e019000be019000f9
:101884001e0078009e00900056fc07000000e00057
:10189400010035000044eb000804e00003003200be
:1018a4001e0078009e009000020037002e00900079
:1018b400be0090004f0478000080fa00000006008b
:1018c4000c00fa00881f7800008fbe0022079800e1
:1018d40033079800440798005507980018c0b300d0
:1018e4002e019000be0190001e0078009e00900022
:1018f4003cfc07000000e000010035000044eb0060
:101904000804e000030032002e009000be009000a6
:101914001000370018c0b3004e019000de019000a3
:101924001e0078009e00900030fc07000000e000dc
:1019340001003c000044eb000804e0000300320016
:101944004e009000de009000020037001e00780078
:101954009e0090004f0478000080fa00000006000a
:101964000800fa002007980031079800b2fd200013
:10197400930424002e009000be00900079fb070021
:10198400b2fd2000930c240056fc0700b2fd200099
:101994009304240074fb0700008fbe00b2fd2000f6
:1019a400930424001e0078009e0090006efb070044
:1019b400b2fd2000930c24004afc0700b2fd200075
:1019c4009304240067fb07000080fa00000006006f
:1019d4000a00fa003007980041079800be00900002
:1019e4004e009000008f40001e0078001001780027
:1019f4009001900012079800230798001e009000a1
:101a0400ae0090000080fa00000006000600fa0014
:101a140010079800210798009e0090002e00900067
:101a2400008f40001e0078009000900010007800a5
:101a34000080fa00000006000c00fa00200798005d
:101a44003107980042079800530798006800470040
:101a5400100798000000eb00000f78000a00370020
:101a64003e0090001e004000ae0090000080400048
:101a74009e0078001e019000810041009140780092
:101a8400014878001e0fe8001e007800e30f5000a4
:101a9400f3ff34000080fa00000006000c00fa0096
:101aa40020079800310798004207980053079800d0
:101ab40068004700100798000000eb00000f780052
:101ac4000b0037003e0090001e004000ae00900066
:101ad40000804000320020009e0051001e01900052
:101ae4008100410091407800014878001e0fe80011
:101af4001e007800e30f5000f2ff34000080fa006b
:101b0400000006000c00fa00200798003107980036
:101b14004207980053079800680047001007980090
:101b24000000eb00000f78000a0037003e00900030
:101b34001e004000ae009000008040009e0078002f
:101b44001e01900081004100914078000148780016
:101b54001e0fe8001e007800e70f5000f3ff34006a
:101b64000080fa00000006000000fa001160800006
:101b740080ff2f00008060001060880000fa2000c1
:101b84002060880023aca800238ca8001161800089
:101b9400f03f2f000080600000a0a00010618800ca
:101ba4003000200020618800c3aca800c38ca800ca
:101bb40011668000f03f2f000080600000a0a000ac
:101bc40010668800300020002066880001eca80020
:101bd4000080fa00000006000000fa00889fbe00a2
:101be4003481800045818000108180002181800043
:101bf40018c0b3000001be000400be0079fb07005a
:101c04000000e000010035000044eb000804e0009f
:101c14000d00320018818000298180003481800009
:101c24004581800080808000918080000001be009a
:101c34000400be00ccfa07000801be0008ff07003c
:101c44003081880041818800348180004581800092
:101c5400108180002181800018c0b3000001be0003
:101c64000400be0061fb07000000e00001003c002e
:101c74000044eb000804e0000d00320018818000ed
:101c8400298180003481800045818000808080002b
:101c9400918080000001be000400be00b1fa07007c
:101ca4000801be00d6fe070030818800418188000b
:101cb400308180004181800018c0b3006011b800f9
:101cc40048fb07000000e000010035000044eb0081
:101cd4000804e00004003200c3cca90024eea800ec
:101ce400c3eca80003003700c3eca90024cea8006d
:101cf400c3cca8003081800041818000aafe070087
:101d040002002000032224001afc07005afb0700eb
:101d14000000780030668800f4808000058180002f
:101d2400d0808000e180800018c0b3000001be00b4
:101d34000400be002bfb07000000e000010035009a
:101d44000044eb000804e0000d003200d88080005d
:101d5400e9808000f480800005818000808080001c
:101d6400918080000001be000400be007efa0700de
:101d74000801be00bafe0700f080880001818800d7
:101d8400f480800005818000d0808000e1808000a4
:101d940018c0b3000001be000400be0013fb07001e
:101da4000000e00001003c000044eb000804e000f7
:101db4000d003200d8808000e9808000f48080002b
:101dc4000581800080808000918080000001be0039
:101dd4000400be0063fa07000801be0088fe070085
:101de400f080880001818800f080800001818000fb
:101df40018c0b3006011b800fcfa07000000e0004e
:101e040001003c000044eb000804e0000400320040
:101e140023cca90015eea80023eca800030037008a
:101e240023eca90015cea80023cca800f0808000e4
:101e3400018180005cfe07000200200003222400d0
:101e4400ccfb07000cfb0700000078003061880021
:101e54004f04be000080fa00000006000600fa00ed
:101e6400008fbe00424798004e4090000004e000fe
:101e740005003a001e0178009e019000d28088007f
:101e8400e3808800040037001e0178009e01900062
:101e940012818800238188000080fa000000060077
:101ea4000000fa0021e3a9002143a80001198000e1
:101eb400f0cf2f0000806000001988002043a900a3
:101ec40001198000000e2000010070000019880034
:101ed40011198000f0ff21000080600010198800b3
:101ee4002343a80011198000f0cf2f000080600068
:101ef400101988001119800030f82f00008060004c
:101f04000030a000101988002203a9002223a90090
:101f140025e3a900f0c0b30024e3b7002119800031
:101f2400f00f2e008080600000f02000010070009f
:101f3400201988003303a9002e0ea8002f6ea800d4
:101f44006f2ea80030c3a8003163a8002e03a80098
:101f54004119800000fc2f000080600040198800b7
:101f640028e3a90001a8a90021a8a80021e3a8004a
:101f74000080fa00000006000000fa002023a800f8
:101f84000080fa00000006000000fa002000210092
:101f94000080fa00000006000000fa000ad0bf002a
:101fa4000080fa00000006000000fa000a70ef004a
:101fb4000080fa00000006000000fa002002a900d8
:101fc4000111800090ff2f00008060000011880044
:101fd40020a2a9002062a80050052000401188001a
:101fe40023a2a90023e2a9000188a9002188a8004e
:101ff40011118000f0f32f000080600010118800a0
:102004000168a9002168a80021e2a8002342a800d1
:102014000080fa00000006000600fa00100798008d
:10202400210798000040eb00004f78000040eb00cf
:10203400004f78000e0037000000000011118000ee
:1020440000202000008060000000e000fbff3a0058
:102054001e009000104078000080fb0020118800d2
:102064001e0090000000e800100798001e4fe800d2
:102074009e80fb002e009000808f5000eeff350004
:102084000080fa00000006000000fa00f0032000bf
:10209400303a8800213a8000f0f32f00008060007d
:1020a400203a8800213a800000fe2f000080600062
:1020b4000000a000203a88001200200080072000c1
:1020c400a1092000337420008049780081497800f8
:1020d40082497800103a8000000178000200a000d4
:1020e40060042000710520002374200080497800da
:1020f400814978008249780000000000113a80008c
:10210400000027008080600000002100808f5000c4
:10211400faff3a0000000000113a8000000220009b
:10212400008060000000e000fbff32000080fa0045
:10213400000006000000fa000e2eef001e2eef0035
:102144002e2eef003e2eef004e2eef005e2eef00ff
:102154006e2eef00214ea90060cea90060eea9000a
:1021640011cea90011eea90020cea90020eea900ed
:102174002136800000f82f00008060008001b30049
:10218400203688001134800000fc2f00008060009d
:102194000000a000103488000080fa00000006004f
:020000040000fa
:1021a4001410000002000000800000000c10000069
:1021b4000400000080000000181000001e00000051
:1021c40080000000101000000400000082000000e5
:1021d4000000a00040000000001000000c000000ff
:1021e40080000000161000000200000080000000c3
:0421f40000000000e7
:020000040000fa
:1021f800f03fb1000180b10006003500ee03090090
:1022080000000000403fb1000180b100fbff3d002d
:102218001000b000203fb000020035000080090027
:082228000000000000000600a8
:020000040000fa
:02000004000af0
:04afe000cfff00009f
:020000040000fa
:02000004000af0
:04afe400ffff00006b
:020000040000fa
:02000004000af0
:04afe8007fff0000e7
:020000040000fa
:02000004000af0
:04afec005fff000003
:020000040000fa
:02000004000af0
:04aff00038ff000026
:020000040000fa
:02000004000af0
:04aff400ffff00005b
:00000001FF
