:020000040000fa
:080000000002040000000000f2
:020000040000fa
:04000800e60300000b
:020000040000fa
:04000c00e603000007
:020000040000fa
:04001000e603000003
:020000040000fa
:04001400e6030000ff
:020000040000fa
:04001800e6030000fb
:020000040000fa
:04001c00e6030000f7
:020000040000fa
:04002000e6030000f3
:020000040000fa
:04002400e6030000ef
:020000040000fa
:04002800e6030000eb
:020000040000fa
:04002c00e6030000e7
:020000040000fa
:04003000e6030000e3
:020000040000fa
:0400340002030000c3
:020000040000fa
:04003800e6030000db
:020000040000fa
:04003c00e6030000d7
:020000040000fa
:04004000e6030000d3
:020000040000fa
:04004400e6030000cf
:020000040000fa
:04004800fa020000b8
:020000040000fa
:04004c00e6030000c7
:020000040000fa
:04005000e6030000c3
:020000040000fa
:04005400a203000003
:020000040000fa
:040058007803000029
:020000040000fa
:04005c005603000047
:020000040000fa
:04006000e6030000b3
:020000040000fa
:04006400e6030000af
:020000040000fa
:04006800e6030000ab
:020000040000fa
:04006c00e6030000a7
:020000040000fa
:04007000e6030000a3
:020000040000fa
:04007400e60300009f
:020000040000fa
:04007800e60300009b
:020000040000fa
:04007c00e603000097
:020000040000fa
:04008000e603000093
:020000040000fa
:04008400e60300008f
:020000040000fa
:04008800e60300008b
:020000040000fa
:04008c00e603000087
:020000040000fa
:04009000e603000083
:020000040000fa
:040094003e03000027
:020000040000fa
:04009800e60300007b
:020000040000fa
:04009c00e603000077
:020000040000fa
:0400a000e603000073
:020000040000fa
:0400a400e60300006f
:020000040000fa
:0400a800e60300006b
:020000040000fa
:0400ac00e603000067
:020000040000fa
:0400b000e603000063
:020000040000fa
:0400b400e60300005f
:020000040000fa
:0400b800e60300005b
:020000040000fa
:0400bc00e603000057
:020000040000fa
:0400c000e603000053
:020000040000fa
:0400c400e60300004f
:020000040000fa
:0400c800e60300004b
:020000040000fa
:0400cc00e603000047
:020000040000fa
:0400d000e603000043
:020000040000fa
:0400d400e60300003f
:020000040000fa
:0400d800e60300003b
:020000040000fa
:0400dc00e603000037
:020000040000fa
:0400e000e603000033
:020000040000fa
:0400e400e60300002f
:020000040000fa
:0400e800e60300002b
:020000040000fa
:0400ec00e603000027
:020000040000fa
:0400f000e603000023
:020000040000fa
:0400f400e60300001f
:020000040000fa
:0400f800e60300001b
:020000040000fa
:0400fc00e603000017
:020000040000fa
:04010000e603000012
:020000040000fa
:04010400e60300000e
:020000040000fa
:04010800e60300000a
:020000040000fa
:04010c00e603000006
:020000040000fa
:04011000e603000002
:020000040000fa
:04011400e6030000fe
:020000040000fa
:04011800e6030000fa
:020000040000fa
:04011c00e6030000f6
:020000040000fa
:04012000e6030000f2
:020000040000fa
:04012400e6030000ee
:020000040000fa
:04012800e6030000ea
:020000040000fa
:04012c00e6030000e6
:020000040000fa
:04013000e6030000e2
:020000040000fa
:04013400e6030000de
:020000040000fa
:04013800e6030000da
:020000040000fa
:04013c00e6030000d6
:020000040000fa
:04014000e6030000d2
:020000040000fa
:04014400e6030000ce
:020000040000fa
:04014800e6030000ca
:020000040000fa
:04014c00e6030000c6
:020000040000fa
:04015000e6030000c2
:020000040000fa
:04015400e6030000be
:020000040000fa
:04015800e6030000ba
:020000040000fa
:04015c00e6030000b6
:020000040000fa
:04016000e6030000b2
:020000040000fa
:04016400e6030000ae
:020000040000fa
:04016800e6030000aa
:020000040000fa
:04016c00e6030000a6
:020000040000fa
:04017000e6030000a2
:020000040000fa
:04017400e60300009e
:020000040000fa
:04017800e60300009a
:020000040000fa
:04017c00e603000096
:020000040000fa
:04018000e603000092
:020000040000fa
:04018400e60300008e
:020000040000fa
:04018800e60300008a
:020000040000fa
:04018c00e603000086
:020000040000fa
:04019000e603000082
:020000040000fa
:04019400e60300007e
:020000040000fa
:04019800e60300007a
:020000040000fa
:04019c00e603000076
:020000040000fa
:0401a000e603000072
:020000040000fa
:0401a400e60300006e
:020000040000fa
:0401a800e60300006a
:020000040000fa
:0401ac00e603000066
:020000040000fa
:0401b000e603000062
:020000040000fa
:0401b400e60300005e
:020000040000fa
:0401b800e60300005a
:020000040000fa
:0401bc00e603000056
:020000040000fa
:0401c000e603000052
:020000040000fa
:0401c400e60300004e
:020000040000fa
:0401c800e60300004a
:020000040000fa
:0401cc00e603000046
:020000040000fa
:0401d000e603000042
:020000040000fa
:0401d400e60300003e
:020000040000fa
:0401d800e60300003a
:020000040000fa
:0401dc00e603000036
:020000040000fa
:0401e000e603000032
:020000040000fa
:0401e400e60300002e
:020000040000fa
:0401e800e60300002a
:020000040000fa
:0401ec00e603000026
:020000040000fa
:0401f000e603000022
:020000040000fa
:0401f400e60300001e
:020000040000fa
:0401f800e60300001a
:020000040000fa
:0401fc00e603000016
:020000040000fa
:04020000e603000011
:020000040000fa
:04020400e60300000d
:020000040000fa
:04020800e603000009
:020000040000fa
:04020c00e603000005
:020000040000fa
:04021000e603000001
:020000040000fa
:04021400e6030000fd
:020000040000fa
:04021800e6030000f9
:020000040000fa
:04021c00e6030000f5
:020000040000fa
:04022000e6030000f1
:020000040000fa
:04022400e6030000ed
:020000040000fa
:04022800e6030000e9
:020000040000fa
:04022c00e6030000e5
:020000040000fa
:04023000e6030000e1
:020000040000fa
:04023400e6030000dd
:020000040000fa
:04023800e6030000d9
:020000040000fa
:04023c00e6030000d5
:020000040000fa
:04024000e6030000d1
:020000040000fa
:04024400e6030000cd
:020000040000fa
:04024800e6030000c9
:020000040000fa
:04024c00e6030000c5
:020000040000fa
:04025000e6030000c1
:020000040000fa
:04025400e6030000bd
:020000040000fa
:04025800e6030000b9
:020000040000fa
:04025c00e6030000b5
:020000040000fa
:04026000e6030000b1
:020000040000fa
:04026400e6030000ad
:020000040000fa
:04026800e6030000a9
:020000040000fa
:04026c00e6030000a5
:020000040000fa
:04027000e6030000a1
:020000040000fa
:04027400e60300009d
:020000040000fa
:04027800e603000099
:020000040000fa
:04027c00e603000095
:020000040000fa
:04028000e603000091
:020000040000fa
:100400000f1421000eff2c000e01880000000000d8
:10041000000020000000e000020032000001200087
:100420002002880014000700ea0007000000e00036
:1004300003003a00203121000100200002003700b3
:100440000000200001002000810f70000100320038
:100450000f000700000020000000e0000200320052
:100460000000020000000000f4070200000000008d
:100470000040da000000fe00200020000000e00044
:1004800002003200100020009001880000000600e9
:10049000a1028800800478000000eb001f003700f4
:1004a000e284440054a0b4009905ba00e2844400f8
:1004b00054a0b4009906ba00e284440054a0b400e9
:1004c0000006eb00476fde00fd07b200ae018800ba
:1004d000636ce10003003a000ad801000000eb0061
:1004e0000e003700606ce10008003a00004deb00a0
:1004f0000a05e800020039003420ec000af0a000f0
:100500008b05e900f9ff3e00040037006168e10057
:10051000010032000086eb000b00070019c7ba008b
:100520000e04e0001905ba0003003a000a00e000da
:10053000dbff3a0000000600fe07b200ae028800b2
:100540008a047800f5ff37000cd0a300e20f4d00bd
:100550001c00390089027800354dba000a05e80010
:10056000020039003420ec000af0a0008b05e900fd
:100570000f003200254dba000a05e80002003900dc
:100580003420ec000af0a0008b05e90008003200de
:100590000c00e0000600320015cdba000a05e800a4
:1005a000020039003420ec000af0a0008b05e900bd
:1005b0008984e80054a0b4000b00e000e2ff3a0098
:1005c000000006009902ba00055d78008b05e9007d
:1005d000f7ff3200c82ade00055d78008b05e900d0
:1005e000f3ff32000c00e000f1ff320019ddba0029
:1005f000eeff37000000fa000108a9000080fa00b1
:10060000004006003600f800809fbe00829fbe00ba
:10061000849fbe00869fbe000000fa000068a9000b
:1006200021738000000420000080600000f0a7001b
:100630000000ea000000e9004f00de000040780002
:100640000080fb00610060004600dd002173800037
:100650000160a100010070002073880047070700b7
:100660000080fa004f03be004f02be004f01be00e3
:100670004f00be003600f90000400600809fbe001b
:100680000000fa000368a90090808000a18080002b
:1006900061004000e080480090808800a1808800d0
:1006a0000080fa004f00be0000400600809fbe00a0
:1006b0000000fa0001a8a900011880002000210014
:1006c0000108780011188000200021001100980016
:1006d00021188000200021002100980010c0b300e4
:1006e0000af0b7000080fa004f00be00004006008c
:1006f0003600f800809fbe00829fbe00849fbe002f
:10070000869fbe000000fa000188a9007180800069
:1007100060808000808f500002003200ca0607000f
:10072000010037001070ef000080fa004f03be0098
:100730004f02be004f01be004f00be003600f90060
:10074000004006003600f800809fbe00829fbe0079
:10075000849fbe00869fbe000000fa000168a900c9
:1007600010118000640060000000e0000100320011
:100770002242a90010118000620060000000e00029
:10078000060032002222a900050037003011800047
:100790000040780009070700010037000000000052
:1007a00010118000610060000000e000f7ff3a00d7
:1007b0000080fa004f03be004f02be004f01be0092
:1007c0004f00be003600f900004006000040da008d
:1007d0000000fe000000050003f0a200889fbe009c
:1007e0008a9fbe008c1f78006901070070013300ea
:1007f0006450e1004f0032006420e10052003200fa
:1008000003826c0007003b000905d0000306d000fe
:10081000820f54000c065d00020039000200320015
:1008200089017800030678008582550004003d00a8
:100830000003fd008103fd008502ea008b85420074
:10084000840f720002003b0060001000e08018007e
:100850006011b8000005eb007a28e1000a003900b9
:1008600006007800c75ddd00f707b20087807500dd
:100870002d003700828171000a0178006105600057
:100880008180d1000080d3008502e900f9ff3b00a0
:10089000060440008784480002003b006004140006
:1008a000e0841c000988a300070032008a817100df
:1008b00082817100610164008904d1000884d30041
:1008c0008b05e800170037000978a30013003a00f1
:1008d0000b00e000130034008b05e900080444001d
:1008e00089844c000a4474000978a3000d003a0082
:1008f0000b00e000070034008b05e9000804440009
:1009000089844c0001003a000b0020000978a30004
:10091000f7ff32000001eb00020037008281710016
:100920000a017800df0007000cf0a70001f0a0002a
:10093000280137006420e10002003a00838f6c0038
:10094000280133000801be000200be00210137006b
:10095000889fbe008a9fbe008c1f78000c01070094
:100960001301330003866c006450e1002e00320056
:100970006420e100330032006150e1002f003200ba
:100980006120e1003100320085855500eb07b000a1
:100990000900200008042000050037000804440076
:1009a00089844c000a0031000603430087834b0012
:1009b0000001530081815b00f8ff33000203be0099
:1009c0000800a0000804440089844c00f6ff3900a8
:1009d000c639dd00830173000100320013002000de
:1009e0008904d1000884d3000998a30005003200cf
:1009f0000800a7000300a0008904d1000884d300e8
:100a00008b05e8008904d1000884d3000001eb00c5
:100a10000281d200a300070001f0a1000cf0a700a2
:100a200001f0a000eb0037006420e100ed0032008f
:100a30000801be000200be00f7ff37006120e100a0
:100a4000e80032006000b800f3ff3700000020002b
:100a500001f82700f0ff37001400200018013700cc
:100a6000f4ff2f00160137000001be00b30007009d
:100a70000470a70003f0a1006509b1001600320060
:100a80000d0035006828e10006003500f0ff2f005a
:100a9000f1ff27000300e00013003b0001002800e5
:100aa0000000050000004000818048008502e90048
:100ab000fcff3a0008003700f88f420002003c00bb
:100ac0008000eb00000005008100d1000080d30011
:100ad0008502e800fcff3a000300e00002003b0052
:100ae00060001000e0801800000006000001be0059
:100af000920007000470a70003f0a10003f8a30010
:100b000013003a006509b1001000320009003500f9
:100b10006928e100020035000100280000000500fe
:100b200000004000818048008502e900fcff3a0097
:100b300000000600f88f4200050035008100d1005a
:100b40000080d3008502e800fcff3a0000000600a8
:100b50008000eb00000005006011b800f3003700d2
:100b60000400200000003700889fbe008a9fbe005e
:100b70008c1f78004f26dd00850007008c003300b5
:100b80006120e100430032006250e10041003e007c
:100b90003e0039006420e1003c003200058255002f
:100ba0000f003b000402e80038003a00800f5300b9
:100bb000818f5b00350034000800be0003f0a10007
:100bc00001f0a60003f0a0000cf0a70003ff07004f
:100bd000800037000603430087834b000c46460025
:100be0000005530081855b00020033000a03be004c
:100bf0000c00a0000402e900f6ff3b008505780028
:100c00000602430087824b0004003a006000b800ef
:100c100009f0a70001f0a0006e00370000025200aa
:100c200081825a000704e0000400330006034300f9
:100c300087834b008b05e900faff37000905780030
:100c40000604be000203be006011b80015000700d4
:100c5000e00f5200e08f5a000700350002003c0010
:100c60000c08a300040032000601be0003f0a0003f
:100c70000cf0a700d9fe07000a85680001f0a1006a
:100c80000af0a70001f0a000520037000800be00e3
:100c900050003700100220000cf0a60000818800f0
:100ca0005000370081002000618055000b003d009e
:100cb0000b00200061fe2f000100e1001d00340048
:100cc00082817100610164008904d1000884d3002d
:100cd0000000e800faff3a007100200061006400a3
:100ce000030070000200600009003200610444004b
:100cf000e0844c000988a500050032008b05e8005f
:100d00006808e10002003a008904d1000884d30099
:100d1000f20f20000258e10005003d00c75ddd0034
:100d2000f907b2008980750008007800000006000d
:100d30000bf827008b00780000000500c70ade00d2
:100d4000f107b200f50fb20008003200e1cf420017
:100d5000020032000170a00024000500810f700025
:100d6000010032000408050044000500810f7000f6
:100d700002003a00140005008502e900000040006e
:100d800081c04800fcff3b000170a000240005006a
:100d90000004be00e9ff07000003be000405be001a
:100da0000200be00e5ff0700844f7500000006004a
:100db0000200be006450e100050036006420e1003e
:100dc000020036000968a30001003a000800be00d6
:100dd0000160a0004f0678004f05be004f04be0022
:100de00000000600f0ff2f00f1ff2700f9ff370099
:100df000889fbe008a9fbe008c1f7800e4ff07001a
:100e0000ebff330003866c006450e10024003200e5
:100e10006420e100270032006150e100220032002e
:100e20006120e100210032008b854200eb07b10018
:100e30000134b800003ab8000804420089844a002e
:100e4000013ab8000030b8008880400009014a002b
:100e50000400330000004000818048000201490086
:100e60008b05e900c909dd00830170000100320033
:100e700013002000c814de004814dd004709de001e
:100e80001200b200c808de000884700085ff070069
:100e900001f0a1000cf0a70001f0a000cdff370089
:100ea0006120e100cfff32000801be000200be0059
:100eb000f7ff37006150e100fcff3a00c9ff37003f
:100ec000889fbe008a9fbe00841f7800b0ff070085
:100ed0004f00780011003300f0ff2f00838f6c006b
:100ee00006003b00040565000a00a7000800370063
:100ef00009f0a6001000200008003700820f5400ff
:100f0000838f5c00030039001000200001003e00c8
:100f10000000200009f0a7000000ea004f05be0015
:100f20004f04be000000e00000000600889fbe00e5
:100f30008a9fbe000082700004027100048271006a
:100f4000260032000004be000200be006011b8009e
:100f50006b092000950220000182cf000a003900b1
:100f60000541b1000082cf00070039000541b10002
:100f70000982cf00040039000541b1000882cf008a
:100f8000010039000541b100054252001200320053
:100f90000a003b0082817100610164008100d10080
:100fa0000080d3008984d3000884d3008b05e80037
:100fb0000442e800f7ff3a00070037000804440045
:100fc00089844c0000004800818048008b05e900be
:100fd0000442e900f9ff3a0032ff07004f05be0066
:080fe0004f04be0000000600f2
:020000040000fa
:100fe8000a00fa0062050700ad0507009e01070028
:100ff800840107001b020700a80407002805070052
:10100800e4040700e14f500050003a00e5040700ef
:10101800dc040700100798001e00900064004000e0
:10102800100078008000eb00c9fe0700323323006f
:10103800330524006cff0700020020000358240039
:1010480041fe0700d2cc2c00c304240066ff070031
:1010580020079800310798002e019000be019000eb
:10106800000020008120240037fe07000200200035
:10107800030a2400d6fd0700a0898800b1898800ea
:101088001e0090000080e800100078008000eb004f
:10109800affe0700323323003305240052ff070058
:1010a800020020000358240027fe0700d2cc2c00a1
:1010b800c30424004cff070020079800310798005c
:1010c8002e019000be019000000020008120240025
:1010d8001dfe070002002000030a2400bcfd0700d3
:1010e800c0898800d18988001e009000100078000f
:1010f8008000eb0096fe07003233230033052400fe
:1011080039ff070002002000035824000efe0700e4
:10111800d2cc2c00c304240033ff0700200798001a
:10112800310798002e019000be01900000002000b9
:101138008120240004fe070002002000030a240086
:10114800a3fd0700e0898800f18988000000eb0012
:10115800000f780015003700b2040700004f980010
:101168006800470011002000fb0307002171800080
:10117800004020000080600000f0a7000000ea00a6
:101188000000e9004f00de00004078000080fb000e
:10119800610060004a00dd002171800001a0a1000b
:1011a80001007000207188001e0fe800b6040700d7
:1011b8009e0f5000e8ff3c00803e20000100200008
:1011c800520507008eff37000000fa001fd0bf004d
:1011d8000080fb00cf80de00b2002000030020006a
:1011e800820f5000838f580060003e000006010007
:1011f8000b003700140037001d00370027003700a8
:101208002800370031003700320037003b00370034
:101218003c003700460037004700370051003700d0
:101228001230ef001430ef0012c0b3006000b800b5
:10123800b80307000041eb006000b800b5030700e1
:1012480010c0b3001ff0b70092808000a380800018
:10125800803e200001002000800f5100818f59003e
:101268004500360020c0b3001ff0b7004300370028
:1012780012c0b30000002000011f2400a5030700ce
:101288000041eb0000002000011f2400a10307001b
:1012980030c0b3001ff0b70038003700390007002e
:1012a8003600370012c0b30000002000011f2400e0
:1012b800980307000041eb006000b80095030700a1
:1012c80050c0b3001ff0b7002c0037002d000700f6
:1012d8002a00370012c0b3006000b8008d03070071
:1012e8000041eb0000002000011f240089030700d3
:1012f80070c0b3001ff0b7002000370021000700be
:101308001e00370012c0b30000002000011724009f
:10131800800307000041eb000000200001172c00ab
:101328007c03070090c0b3001ff0b700130037001c
:10133800140007001100370012c0b300000020009d
:1013480001172c00730307000041eb000000200088
:10135800011724006f030700b0c0b3001ff0b700e7
:101368000600370007000700040037001f70ef0071
:101378000000000001003700000000000080fa00b3
:10138800000006000200fa00881f78000040eb0009
:10139800004f7800a0898000b189800018c0b30090
:1013a8000200200003222400a9fd07000000e0003d
:1013b800010035000044eb000804e0001900320089
:1013c800c0898000d189800018c0b30002002000c5
:1013d800031f2400a0fd07000000e00001003c00fe
:1013e8000044eb000804e0000e003200e0898000b1
:1013f800f189800018c0b3000200200003222400f5
:1014080095fd07000000e00001003c000044eb00ef
:101418000804e0000300320020c0b300004f780049
:1014280055003700a0898000b189800018c0b3003a
:10143800020020000322240087fd07000000e000ce
:1014480001003c000044eb000804e00019003200f1
:10145800c0898000d189800018c0b3000200200034
:10146800031f24007cfd07000000e00001003c0091
:101478000044eb000804e0000e003200e089800020
:10148800f189800018c0b300020020000322240064
:101498006ffd07000000e000010035000044eb008c
:1014a8000804e0000300320010c0b300004f7800c9
:1014b80031003700c0898000d189800018c0b3008e
:1014c80002002000031f240061fd07000000e00067
:1014d800010035000044eb000804e000030032007e
:1014e80030c0b300004f780023003700a089800087
:1014f800b189800018c0b300020020000322240034
:1015080055fd07000000e00001003c000044eb002e
:101518000804e00018003200c0898000d1898000ea
:1015280018c0b30002002000031f24004afd070072
:101538000000e00001003c000044eb000804e0006b
:101548000d003200e0898000f189800018c0b300e6
:1015580002002000032224003ffd07000000e000f5
:1015680001003c000044eb000804e00002003200e7
:101578000040eb00004f78001e4078000004e000b7
:1015880003003a0020c0b3001ef0b7001100370076
:101598001e407800e24f500003003a0060c0b300dc
:1015a8001ef0b7000b0037001e407800e14f5000d6
:1015b80003003a0040c0b3001ef0b7000500370032
:1015c8001e407800e34f500002003a0080c0b3008c
:1015d8001ef0b7001ed0bf008080fb001fd0bf00e8
:1015e8000080fb000000e900808f500002003200fc
:1015f8001ed0bf001ff0b7004f0478000080fa002b
:10160800000006000000fa0013e1a90011e1a9009a
:101618001061a8001021a90081088000f0fc2f00ab
:1016280000806000800888000a21ef000621ef0092
:10163800202620007008880000a025006008880087
:101648002142800080ff2f00008060000000a00081
:10165800204288000108a9002108a80011e1a8007b
:101668000080fa00000006000000fa0005e1a90069
:101678000000200081242400060007000421a9009e
:101688000068a9002068a80005e1a8000080fa0009
:10169800000006000400fa00881f7800008fbe00d2
:1016a80021088000f0fc2f000080600020088800de
:1016b8001e0178009e0190000068290081c1240065
:1016c800a1fc070018c0b30002f02f00f377240034
:1016d800e1fc07000000e00001003c000044eb00d2
:1016e8000804e0005400320021088000f0fc2f00bc
:1016f800008060000040a000200888001e017800db
:101708009e0190000068290081c124008efc07001a
:1017180002002000031024008bfc070018c0b3004f
:1017280002f02f00f3772400cbfc07000000e00054
:1017380001003c000044eb000804e00032003200e5
:1017480021088000f0fc2f00008060000050a000fd
:10175800200888001e0178009e019000006829007a
:1017680081c1240078fc070002002000032824001f
:1017780075fc070018c0b30002f02f00f3772400af
:10178800b5fc07000000e00001003c000044eb004d
:101798000804e00010003200210880000003200047
:1017a80001007000200888001e0178009e0190004a
:1017b8000068290081c1240063fc070002002000a2
:1017c8000338240060fc0700a5fc0700000078002f
:1017d80010088800200037001e0178009e01900044
:1017e8000068290081c1240057fc0700020020007e
:1017f8000328240054fc070099fc07000000780027
:1018080010088800140037001e0178009e0190001f
:101818000068290081c124004bfc07000200200059
:101828000310240048fc07008dfc07000000780026
:1018380010088800080037001e0178009e019000fb
:101848000068290081c124003ffc070084fc0700d0
:1018580000007800100888004f0478000080fa0023
:10186800000006000000fa001fe1a90000002000a7
:10187800a1472400060007001e21a9000368a9004b
:101888002368a8001fe1a8000080fa0000000600f5
:101898000400fa00881f7800008fbe00f10880005d
:1018a800f0fc2f0000806000f00888001e0178001e
:1018b8009e0190000068290081c1240022fc0700d5
:1018c80018c0b30002f02f00f377240062fc070071
:1018d8000000e00001003c000044eb000804e000c8
:1018e80054003200f1088000f0fc2f0000806000f6
:1018f8000040a000f00888001e0178009e019000ba
:101908000068290081c124000ffc070002002000a4
:10191800031024000cfc070018c0b30002f02f00cd
:10192800f37724004cfc07000000e00001003c00b5
:101938000044eb000804e00032003200f1088000a7
:10194800f0fc2f00008060000050a000f008880024
:101958001e0178009e0190000068290081c12400c2
:10196800f9fb07000200200003282400f6fb07000b
:1019780018c0b30002f02f00f377240036fc0700ec
:101988000000e00001003c000044eb000804e00017
:1019980010003200f10880000003200001007000f0
:1019a800f00888001e0178009e0190000068290058
:1019b80081c12400e4fb0700020020000338240052
:1019c800e1fb070026fc070000007800d00888002b
:1019d800200037001e0178009e0190000068290051
:1019e80081c12400d8fb070002002000032824003e
:1019f800d5fb07001afc070000007800d008880013
:101a0800140037001e0178009e019000006829002c
:101a180081c12400ccfb0700020020000310240031
:101a2800c9fb07000efc070000007800d0088800fa
:101a3800080037001e0178009e0190000068290008
:101a480081c12400c0fb070005fc070000007800e6
:101a5800d00888004f0478000080fa0000000600d3
:101a68000400fa00881f7800008fbe0018c0b30079
:101a78006011b8001e0078009e009000f6fb070079
:101a88000000e00001003d000044eb000804e00015
:101a9800030032001e0078009e009000030037000b
:101aa8001e0078009e00900001f0a2004f0478000c
:101ab8000080fa00000006000800fa00881f78007d
:101ac800008fbe00220798003307980018c0b300a3
:101ad8002e019000be0190001e0078009e0090002c
:101ae800ddfb07000000e00001003c000044eb00c3
:101af8000804e000030032001e0078009e009000f9
:101b0800020037002e009000be0090004f047800bd
:101b18000080fa00000006000800fa00881f78001c
:101b2800008fbe00220798003307980018c0b30042
:101b38002e019000be0190001e0078009e009000cb
:101b4800c3fb07000000e000010035000044eb0083
:101b58000804e000030032001e0078009e00900098
:101b6800020037002e009000be0090004f0478005d
:101b78000080fa00000006000c00fa00881f7800b8
:101b8800008fbe002207980033079800440798008a
:101b98005507980018c0b3002e019000be019000b0
:101ba8001e0078009e009000a9fb07000000e000de
:101bb800010035000044eb000804e0000300320097
:101bc8002e009000be0090001000370018c0b3002f
:101bd8004e019000de0190001e0078009e009000eb
:101be8009dfb07000000e00001003c000044eb0002
:101bf8000804e000030032004e009000de00900070
:101c0800020037001e0078009e0090004f04780004
:101c18000080fa00000006000800fa00200798007b
:101c280031079800b2fd2000930424002e00900094
:101c3800be009000e6fa0700b2fd2000930c2400d5
:101c4800c5fb0700b2fd200093042400e1fa070059
:101c5800008fbe00b2fd2000930424001e0078000f
:101c68009e009000dbfa0700b2fd2000930c2400d0
:101c7800b9fb0700b2fd200093042400d4fa070042
:101c88000080fa00000006000a00fa0030079800f9
:101c980041079800be0090004e009000008f400061
:101ca8001e0078001001780090019000120798003b
:101cb800230798001e009000ae0090000080fa00f4
:101cc800000006000600fa00100798002107980097
:101cd8009e0090002e009000008f40001e007800ab
:101ce80090009000100078000080fa0000000600c4
:101cf8000c00fa0020079800310798004207980066
:101d08005307980068004700100798000000eb0090
:101d1800000f78000a0037003e0090001e004000c7
:101d2800ae009000008040009e0078001e019000e8
:101d38008100410091407800014878001e0fe800ba
:101d48001e007800e30f5000f3ff34000080fa0013
:101d5800000006000c00fa002007980031079800e0
:101d6800420798005307980068004700100798003a
:101d78000000eb00000f78000b0037003e009000d9
:101d88001e004000ae00900000804000320020009d
:101d98009e0051001e019000810041009140780092
:101da800014878001e0fe8001e007800e30f50007d
:101db800f2ff34000080fa00000006000c00fa0070
:101dc80020079800310798004207980053079800a9
:101dd80068004700100798000000eb00000f78002b
:101de8000a0037003e0090001e004000ae00900040
:101df800008040009e0078001e0190008100410094
:101e080091407800014878001e0fe8001e00780015
:101e1800e70f5000f3ff34000080fa0000000600ce
:101e28000000fa001160800080ff2f000080600031
:101e38001060880000fa20002060880023aca80009
:101e4800238ca80011618000f03f2f000080600003
:101e580000a0a000106188003000200020618800e8
:101e6800c3aca800c38ca80011668000f03f2f0007
:101e78000080600000a0a0001066880030002000ec
:101e88002066880001eca8000080fa000000060027
:101e98000000fa00889fbe00848980009589800030
:101ea800608980007189800018c0b3000001be00fd
:101eb8000400be00e6fa07000000e000010035005b
:101ec8000044eb000804e0000d003200688980003f
:101ed800798980008489800095898000b08080009d
:101ee800c18080000001be000400be0039fa07006e
:101ef8000801be0008ff07008089880091898800d2
:101f080084898000958980006089800071898000bb
:101f180018c0b3000001be000400be00cefa0700de
:101f28000000e00001003c000044eb000804e00071
:101f38000d003200688980007989800084898000da
:101f480095898000b0808000c18080000001be00bb
:101f58000400be001efa07000801be00d6fe0700f6
:101f68008089880091898800808980009189800013
:101f780018c0b3006011b800b5fa07000000e0000f
:101f8800010035000044eb000804e00004003200c2
:101f9800c3cca90024eea800c3eca80003003700b6
:101fa800c3eca90024cea800c3cca8008089800077
:101fb80091898000aafe0700020020000322240065
:101fc80089fb0700c7fa0700000078003066880020
:101fd80044898000558980002089800031898000eb
:101fe80018c0b3000001be000400be0098fa070044
:101ff8000000e000010035000044eb000804e000a8
:102008000d003200288980003989800044898000c9
:1020180055898000b0808000c18080000001be002a
:102028000400be00ebf907000801be00bafe070075
:10203800408988005189880044898000558980003a
:10204800208980003189800018c0b3000001be00db
:102058000400be0080fa07000000e00001003c0018
:102068000044eb000804e0000d00320028898000dd
:10207800398980004489800055898000b0808000bb
:10208800c18080000001be000400be00d0f9070036
:102098000801be0088fe0700408988005189880031
:1020a800408980005189800018c0b3006011b800d1
:1020b80069fa07000000e00001003c000044eb0062
:1020c8000804e0000400320023cca90015eea800a3
:1020d80023eca8000300370023eca90015cea800c4
:1020e80023cca80040898000518980005cfe07004d
:1020f80002002000032224003bfb070079fa0700b6
:1021080000007800306188004f04be000080fa00ab
:10211800000006000600fa00008fbe004247980043
:102128004e4090000004e00005003a001e017800cf
:102138009e019000228988003389880004003700b6
:102148001e0178009e0190006289880073898800ca
:102158000080fa00000006000600fa001007980048
:10216800210798000040eb00004f78003d00070071
:10217800ae009000810f5000110034000040eb00c9
:10218800004f7800060037001e80fb009e0090007c
:1021980000804000104078000b0007001e4fe80048
:1021a8009e80fb002e009000808f5000f6ff3500c7
:1021b800360007000004e00001003a002000070094
:1021c8000080fa00000006000200fa00004f7800c4
:1021d8006080800021022100808040009e487800b5
:1021e8000000e8006080880061808000000820000e
:1021f800808f500001003a000c30ef000080fa0098
:10220800000006000200fa00708080002102210010
:1022180080804000114f78000000e800708088003e
:102228007180800000082000808f500001003a0073
:102238000e30ef001e4078000080fa000000060013
:102248000200fa0010c0b30010f0b700edff07005d
:10225800004f78001e80fb00201188000080fa00e3
:10226800000006000000fa00618080007080800095
:102278000080500000f0a7000000ea0001082000dc
:10228800008050000080fa00000006000000fa00fc
:1022980010d0bf000080fa00000006000000fa001d
:1022a80021e3a9002143a80001198000f0cf2f00e5
:1022b80000806000001988002043a90001198000ef
:1022c800000e20000100700000198800111980001c
:1022d800f0ff210000806000101988002343a80047
:1022e80011198000f0cf2f000080600010198800bd
:1022f8001119800030f82f00008060000030a00025
:10230800101988002203a9002223a90025e3a900a7
:10231800f0c0b30024e3b70021198000f00f2e00ad
:102328008080600000f02000010070002019880003
:102338003303a9002e0ea8002f6ea8006f2ea80048
:1023480030c3a8003163a8002e03a80041198000fb
:1023580000fc2f00008060004019880028e3a900d5
:1023680001a8a90021a8a80021e3a8000080fa007c
:10237800000006000000fa002023a8000080fa00f0
:10238800000006000000fa00200021000080fa008a
:10239800000006000000fa000ad0bf000080fa0022
:1023a800000006000000fa000a70ef000080fa0042
:1023b800000006000200fa00004f78000f00070036
:1023c8000000e0000b003400d0808000210a2100ca
:1023d800808040009e4878000000e800d080880097
:1023e800d180800000082000808f500001003a0052
:1023f8001a30ef000080fa00000006000000fa0022
:10240800d1808000e08080000080500000f0a700ac
:102418000000ea0001082000008050000080fa0057
:10242800000006000200fa00e0808000210a210076
:1024380080804000114f78000000e800e0808800ac
:10244800e180800000082000808f500001003a00e1
:102458001c30ef001e4078000080fa0000000600e3
:102468000000fa00d1808000e0808000808f50005a
:102478000200320010c0b300010037000040eb003a
:102488000080fa00000006000000fa00dbff0700e9
:1024980001082000008050000080fa0000000600bb
:1024a8000000fa002002a9000111800090ff2f000f
:1024b800008060000011880020a2a9002062a80006
:1024c800500520004011880023a2a90023e2a9009a
:1024d8000188a9002188a80011118000f0f32f00bd
:1024e80000806000101188000168a9002168a80018
:1024f80021e2a8002342a8000080fa00000006009c
:102508000600fa0010079800210798000040eb0029
:10251800004f78000040eb00004f78000e003700b5
:1025280000000000111180000020200000806000e1
:102538000000e000fbff3a001e0090001040780009
:102548000080fb00201188001e0090000000e800b9
:10255800100798001e4fe8009e80fb002e00900098
:10256800808f5000eeff35000080fa000000060062
:102578000000fa00f0032000303a8800213a800079
:10258800f0f32f0000806000203a8800213a800094
:1025980000fe2f00008060000000a000203a8800a4
:1025a8001200200080072000a109200033742000b9
:1025b800804978008149780082497800103a800083
:1025c800000178000200a0006004200071052000ce
:1025d8002374200080497800814978008249780076
:1025e80000000000113a8000000027008080600091
:1025f80000002100808f5000faff3a000000000020
:10260800113a800000022000008060000000e00015
:0c261800fbff32000080fa00000006000a
:020000040000fa
:102624001e100000020000008000000012100000d4
:102634000400000080000000221100001e000000c1
:10264400800000001610000004000000820000005a
:102654000000a00040000000001000000c0000007a
:1026640080000000221000008000000080000000b4
:102674000c1000000600000080000000a210000002
:1026840080000000800000001a1000000400000018
:102694008000000020100000020000008000000004
:0426a4000000000032
:020000040000fa
:1026a8000000fa000e2eef001e2eef002e2eef0077
:1026b8003e2eef004e2eef005e2eef006e2eef0046
:1026c800214ea90060cea90060eea90011cea90094
:1026d80011eea90020cea90020eea9002136800025
:1026e80000f82f00008060008001b30020368800c9
:1026f8001134800000fc2f00008060000000a00062
:0c270800103488000080fa000000060079
:020000040000fa
:10271400f03fb1000180b10006003500ee0309006e
:1027240000000000403fb1000180b100fbff3d000c
:102734001000b000203fb000020035000080090006
:08274400000000000000060087
:020000040000fa
:02000004000af0
:04afe000cfff00009f
:020000040000fa
:02000004000af0
:04afe400ffff00006b
:020000040000fa
:02000004000af0
:04afe8007fff0000e7
:020000040000fa
:02000004000af0
:04afec005fff000003
:020000040000fa
:02000004000af0
:04aff00038ff000026
:020000040000fa
:02000004000af0
:04aff400ffff00005b
:00000001FF
