:020000040000fa
:080000000002040000000000f2
:020000040000fa
:04000800de03000013
:020000040000fa
:04000c00de0300000f
:020000040000fa
:04001000de0300000b
:020000040000fa
:04001400de03000007
:020000040000fa
:04001800de03000003
:020000040000fa
:04001c00de030000ff
:020000040000fa
:04002000de030000fb
:020000040000fa
:04002400de030000f7
:020000040000fa
:04002800de030000f3
:020000040000fa
:04002c00de030000ef
:020000040000fa
:04003000de030000eb
:020000040000fa
:040034007003000055
:020000040000fa
:04003800de030000e3
:020000040000fa
:04003c00de030000df
:020000040000fa
:04004000de030000db
:020000040000fa
:04004400de030000d7
:020000040000fa
:040048006803000049
:020000040000fa
:04004c00de030000cf
:020000040000fa
:04005000de030000cb
:020000040000fa
:04005400fa020000ac
:020000040000fa
:040058003e03000063
:020000040000fa
:04005c00bc030000e1
:020000040000fa
:04006000de030000bb
:020000040000fa
:04006400de030000b7
:020000040000fa
:04006800de030000b3
:020000040000fa
:04006c00de030000af
:020000040000fa
:04007000de030000ab
:020000040000fa
:04007400de030000a7
:020000040000fa
:04007800de030000a3
:020000040000fa
:04007c00de0300009f
:020000040000fa
:04008000de0300009b
:020000040000fa
:04008400de03000097
:020000040000fa
:04008800de03000093
:020000040000fa
:04008c00de0300008f
:020000040000fa
:04009000de0300008b
:020000040000fa
:0400940092030000d3
:020000040000fa
:04009800de03000083
:020000040000fa
:04009c00de0300007f
:020000040000fa
:0400a000de0300007b
:020000040000fa
:0400a400de03000077
:020000040000fa
:0400a800de03000073
:020000040000fa
:0400ac00de0300006f
:020000040000fa
:0400b000de0300006b
:020000040000fa
:0400b400de03000067
:020000040000fa
:0400b800de03000063
:020000040000fa
:0400bc00de0300005f
:020000040000fa
:0400c000de0300005b
:020000040000fa
:0400c400de03000057
:020000040000fa
:0400c800de03000053
:020000040000fa
:0400cc00de0300004f
:020000040000fa
:0400d000de0300004b
:020000040000fa
:0400d400de03000047
:020000040000fa
:0400d800de03000043
:020000040000fa
:0400dc00de0300003f
:020000040000fa
:0400e000de0300003b
:020000040000fa
:0400e400de03000037
:020000040000fa
:0400e800de03000033
:020000040000fa
:0400ec00de0300002f
:020000040000fa
:0400f000de0300002b
:020000040000fa
:0400f400de03000027
:020000040000fa
:0400f800de03000023
:020000040000fa
:0400fc00de0300001f
:020000040000fa
:04010000de0300001a
:020000040000fa
:04010400de03000016
:020000040000fa
:04010800de03000012
:020000040000fa
:04010c00de0300000e
:020000040000fa
:04011000de0300000a
:020000040000fa
:04011400de03000006
:020000040000fa
:04011800de03000002
:020000040000fa
:04011c00de030000fe
:020000040000fa
:04012000de030000fa
:020000040000fa
:04012400de030000f6
:020000040000fa
:04012800de030000f2
:020000040000fa
:04012c00de030000ee
:020000040000fa
:04013000de030000ea
:020000040000fa
:04013400de030000e6
:020000040000fa
:04013800de030000e2
:020000040000fa
:04013c00de030000de
:020000040000fa
:04014000de030000da
:020000040000fa
:04014400de030000d6
:020000040000fa
:04014800de030000d2
:020000040000fa
:04014c00de030000ce
:020000040000fa
:04015000de030000ca
:020000040000fa
:04015400de030000c6
:020000040000fa
:04015800de030000c2
:020000040000fa
:04015c00de030000be
:020000040000fa
:04016000de030000ba
:020000040000fa
:04016400de030000b6
:020000040000fa
:04016800de030000b2
:020000040000fa
:04016c00de030000ae
:020000040000fa
:04017000de030000aa
:020000040000fa
:04017400de030000a6
:020000040000fa
:04017800de030000a2
:020000040000fa
:04017c00de0300009e
:020000040000fa
:04018000de0300009a
:020000040000fa
:04018400de03000096
:020000040000fa
:04018800de03000092
:020000040000fa
:04018c00de0300008e
:020000040000fa
:04019000de0300008a
:020000040000fa
:04019400de03000086
:020000040000fa
:04019800de03000082
:020000040000fa
:04019c00de0300007e
:020000040000fa
:0401a000de0300007a
:020000040000fa
:0401a400de03000076
:020000040000fa
:0401a800de03000072
:020000040000fa
:0401ac00de0300006e
:020000040000fa
:0401b000de0300006a
:020000040000fa
:0401b400de03000066
:020000040000fa
:0401b800de03000062
:020000040000fa
:0401bc00de0300005e
:020000040000fa
:0401c000de0300005a
:020000040000fa
:0401c400de03000056
:020000040000fa
:0401c800de03000052
:020000040000fa
:0401cc00de0300004e
:020000040000fa
:0401d000de0300004a
:020000040000fa
:0401d400de03000046
:020000040000fa
:0401d800de03000042
:020000040000fa
:0401dc00de0300003e
:020000040000fa
:0401e000de0300003a
:020000040000fa
:0401e400de03000036
:020000040000fa
:0401e800de03000032
:020000040000fa
:0401ec00de0300002e
:020000040000fa
:0401f000de0300002a
:020000040000fa
:0401f400de03000026
:020000040000fa
:0401f800de03000022
:020000040000fa
:0401fc00de0300001e
:020000040000fa
:04020000de03000019
:020000040000fa
:04020400de03000015
:020000040000fa
:04020800de03000011
:020000040000fa
:04020c00de0300000d
:020000040000fa
:04021000de03000009
:020000040000fa
:04021400de03000005
:020000040000fa
:04021800de03000001
:020000040000fa
:04021c00de030000fd
:020000040000fa
:04022000de030000f9
:020000040000fa
:04022400de030000f5
:020000040000fa
:04022800de030000f1
:020000040000fa
:04022c00de030000ed
:020000040000fa
:04023000de030000e9
:020000040000fa
:04023400de030000e5
:020000040000fa
:04023800de030000e1
:020000040000fa
:04023c00de030000dd
:020000040000fa
:04024000de030000d9
:020000040000fa
:04024400de030000d5
:020000040000fa
:04024800de030000d1
:020000040000fa
:04024c00de030000cd
:020000040000fa
:04025000de030000c9
:020000040000fa
:04025400de030000c5
:020000040000fa
:04025800de030000c1
:020000040000fa
:04025c00de030000bd
:020000040000fa
:04026000de030000b9
:020000040000fa
:04026400de030000b5
:020000040000fa
:04026800de030000b1
:020000040000fa
:04026c00de030000ad
:020000040000fa
:04027000de030000a9
:020000040000fa
:04027400de030000a5
:020000040000fa
:04027800de030000a1
:020000040000fa
:04027c00de0300009d
:020000040000fa
:04028000de03000099
:020000040000fa
:100400002f2421000eff2c000e01880000000000a8
:10041000000020000000e000020032000001200087
:100420002002880014000700e60007000000e0003a
:1004300003003a00409e2100010020000200370026
:100440000000200001002000810f70000100320038
:100450000f000700000020000000e0000200320052
:100460000000020000000000241102000000000053
:100470000040da000000fe00200020000000e00044
:1004800002003200100020009001880000000600e9
:10049000a1028800800478000000eb001f003700f4
:1004a000e284440054a0b4009905ba00e2844400f8
:1004b00054a0b4009906ba00e284440054a0b400e9
:1004c0000006eb00476fde00fd07b200ae018800ba
:1004d000636ce10003003a000ad801000000eb0061
:1004e0000e003700606ce10008003a00004deb00a0
:1004f0000a05e800020039003420ec000af0a000f0
:100500008b05e900f9ff3e00040037006168e10057
:10051000010032000086eb000b00070019c7ba008b
:100520000e04e0001905ba0003003a000a00e000da
:10053000dbff3a0000000600fe07b200ae028800b2
:100540008a047800f5ff37000cd0a300e20f4d00bd
:100550001c00390089027800354dba000a05e80010
:10056000020039003420ec000af0a0008b05e900fd
:100570000f003200254dba000a05e80002003900dc
:100580003420ec000af0a0008b05e90008003200de
:100590000c00e0000600320015cdba000a05e800a4
:1005a000020039003420ec000af0a0008b05e900bd
:1005b0008984e80054a0b4000b00e000e2ff3a0098
:1005c000000006009902ba00055d78008b05e9007d
:1005d000f7ff3200c82ade00055d78008b05e900d0
:1005e000f3ff32000c00e000f1ff320019ddba0029
:1005f000eeff37003600f800809fbe00829fbe00ed
:10060000849fbe00869fbe000000fa000168a9001a
:1006100010118000640060000000e0000100320062
:100620002242a90010118000620060000000e0007a
:10063000060032002222a900050037003011800098
:1006400000407800be0a07000100370000000000eb
:1006500010118000610060000000e000f7ff3a0028
:100660000080fa004f03be004f02be004f01be00e3
:100670004f00be003600f900004006003600f800ca
:10068000809fbe00829fbe00849fbe00869fbe00ea
:100690000000fa000188a900b1828000a0828000d9
:1006a000808f500002003200880a070001003700e6
:1006b0005870ef000080fa004f03be004f02be00ea
:1006c0004f01be004f00be003600f900004006009a
:1006d0000000fa000108a9000080fa0000400600ae
:1006e0003600f800809fbe00829fbe00849fbe003f
:1006f000869fbe000000fa000068a9009e03070064
:10070000020a0700150307000080fa004f03be002d
:100710004f02be004f01be004f00be003600f90080
:10072000004006003600f800809fbe00829fbe0099
:10073000849fbe00869fbe000000fa000368a900e7
:10074000f08280000183800061004000e08048006a
:10075000f082880001838800df0607000080fa002d
:100760004f03be004f02be004f01be004f00be004f
:100770003600f90000400600809fbe000000fa002d
:1007800001a8a900011880002004210001087800b8
:100790001118800020042100110098002118800009
:1007a000200421002100980010c0b3004af0b700d7
:1007b0000080fa004f00be00004006000040da0052
:1007c0000000fe000000050003f0a200889fbe00ac
:1007d0008a9fbe008c1f78006c01070073013300f4
:1007e0006450e1004f0032006420e100520032000a
:1007f00003826c0007003b000905d0000306d0000f
:10080000820f54000c065d00020039000200320025
:1008100089017800030678008582550004003d00b8
:100820000003fd008103fd008502ea008b85420084
:10083000840f720002003b0060001000e08018008e
:100840006011b8000005eb007a28e1000a003900c9
:1008500006007800c75ddd00f707b20087807500ed
:100860002d003700828171000a0178006105600067
:100870008180d1000080d3008502e900f9ff3b00b0
:10088000060440008784480002003b006004140016
:10089000e0841c000988a300070032008a817100ef
:1008a00082817100610164008904d1000884d30051
:1008b0008b05e800170037000978a30013003a0001
:1008c0000b00e000130034008b05e900080444002d
:1008d00089844c000a4474000978a3000d003a0092
:1008e0000b00e000070034008b05e9000804440019
:1008f00089844c0001003a000b0020000978a30015
:10090000f7ff32000001eb00020037008281710026
:100910000a017800e20007000cf0a70001f0a00037
:100920002b0137006420e10002003a00838f6c0045
:100930002b0133000801be000200be002401370075
:10094000889fbe008a9fbe008c1f78000f010700a1
:100950001601330003866c006450e1002e00320063
:100960006420e100330032006150e1002f003200ca
:100970006120e1003100320085855500eb07b000b1
:100980000900200008042000050037000804440086
:1009900089844c000a0031000603430087834b0022
:1009a0000001530081815b00f8ff33000203be00a9
:1009b0000800a0000804440089844c00f6ff3900b8
:1009c000c639dd00830173000100320013002000ee
:1009d0008904d1000884d3000998a30005003200df
:1009e0000800a7000300a0008904d1000884d300f8
:1009f0008b05e8008904d1000884d3000001eb00d6
:100a00000281d200a600070001f0a1000cf0a700af
:100a100001f0a000ee0037006420e100f000320099
:100a20000801be000200be00f7ff37006120e100b0
:100a3000eb0032006000b800f3ff37000000200038
:100a400001f82700f0ff3700140020001b013700d9
:100a5000f4ff2f00190137000001be00b6000700a7
:100a60000470a70003f0a1006509b1001600320070
:100a70000d0035006828e10006003500f0ff2f006a
:100a8000f1ff27000300e00013003b0001002800f5
:100a90000000050000004000818048008502e90058
:100aa000fcff3a0008003700f88f420002003c00cb
:100ab0008000eb00000005008100d1000080d30021
:100ac0008502e800fcff3a000300e00002003b0062
:100ad00060001000e0801800000006000001be0069
:100ae000950007000470a70003f0a10003f8a3001d
:100af00013003a006509b10010003200090035000a
:100b00006928e1000200350001002800000005000e
:100b100000004000818048008502e900fcff3a00a7
:100b200000000600f88f4200050035008100d1006a
:100b30000080d3008502e800fcff3a0000000600b8
:100b40008000eb00000005004f89de008201780084
:100b5000f50037006011b8000301370004002000e1
:100b600000003700889fbe008a9fbe008c1f78005f
:100b70004f26dd00850007008c0033006120e10076
:100b8000430032006250e10041003e003e00390067
:100b90006420e1003c003200058255000f003b005c
:100ba0000402e80038003a00800f5300818f5b0098
:100bb000350034000800be0003f0a10001f0a600db
:100bc00003f0a0000cf0a70000ff07008000370032
:100bd0000603430087834b000c4646000005530084
:100be00081855b00020033000a03be000c00a000f8
:100bf0000402e900f6ff3b00850578000602430089
:100c000087824b0004003a006000b80009f0a7009a
:100c100001f0a0006e0037000002520081825a00ed
:100c20000704e000040033000603430087834b0001
:100c30008b05e900faff3700090578000604be00bd
:100c40000203be006011b80015000700e00f52005b
:100c5000e08f5a000700350002003c000c08a3009a
:100c6000040032000601be0003f0a0000cf0a70053
:100c7000d6fe07000a85680001f0a1000af0a7006f
:100c800001f0a000520037000800be0050003700fd
:100c9000100220000cf0a60050838800500037009e
:100ca00081002000618055000b003d000b002000fa
:100cb00061fe2f000100e1001d00340082817100ff
:100cc000610164008904d1000884d3000000e800b9
:100cd000faff3a0071002000610064000300700018
:100ce000020060000900320061044400e0844c000e
:100cf0000988a500050032008b05e8006808e100be
:100d000002003a008904d1000884d300f20f2000c9
:100d10000258e10005003d00c75ddd00f907b200a3
:100d20008980750008007800000006000bf8270095
:100d30008b00780000000500c70ade00f107b20052
:100d4000f50fb20008003200e1cf4200020032008d
:100d50000170a00024000500810f70000100320026
:100d60000408050044000500810f700002003a00ed
:100d7000140005008502e9000000400081c0480021
:100d8000fcff3b000170a000240005000004be0031
:100d9000e9ff07000003be000405be000200be001c
:100da000e5ff0700844f7500000006000200be004a
:100db0006450e100050036006420e10002003600c6
:100dc0000968a30001003a000800be000160a0000d
:100dd0004f0678004f05be004f04be00000006001d
:100de000f0ff2f00f1ff2700f9ff3700889fbe00ba
:100df0008a9fbe008c1f7800e4ff0700ebff3300e2
:100e000003866c006450e100240032006420e1009d
:100e1000270032006150e100220032006120e10031
:100e2000210032008b854200eb07b1000134b8008d
:100e3000003ab8000804420089844a00013ab80028
:100e40000030b8008880400009014a0004003300e7
:100e50000000400081804800020149008b05e90044
:100e6000c909dd0083017000010032001300200079
:100e7000c814de004814dd004709de001200b2008d
:100e8000c808de000884700085ff070001f0a1009b
:100e90000cf0a70001f0a000cdff37006120e100b9
:100ea000cfff32000801be000200be00f7ff37008e
:100eb0006150e100fcff3a00c9ff3700889fbe0087
:100ec0008a9fbe00841f7800b0ff07004f007800a3
:100ed00011003300f0ff2f00838f6c0006003b00f1
:100ee000040565000a00a7000800370009f0a60005
:100ef0001000200008003700820f5400838f5c0030
:100f0000030039001000200001003e000000200016
:100f100009f0a7000000ea004f05be004f04be0024
:100f20000000e00000000600881f7800030478003d
:100f30000300e00007003d0060001000e0801800a2
:100f400060011900e081190002003b0001f02d0052
:100f5000030037000400070008f0a70001f0a0001c
:100f60004f04780000000600889fbe008a9fbe00e4
:100f700000827000040271000482710026003200b9
:100f80000004be000200be006011b8006b09200022
:100f9000950220000182cf000a0039000541b1000e
:100fa0000082cf00070039000541b1000982cf005f
:100fb000040039000541b1000882cf00010039006a
:100fc0000541b10005425200120032000a003b0008
:100fd00082817100610164008100d1000080d30032
:100fe0008984d3000884d3008b05e8000442e8001c
:100ff000f7ff3a00070037000804440089844c00da
:1010000000004800818048008b05e9000442e900a7
:10101000f9ff3a0022ff07004f05be004f04be0053
:0410200000000600c6
:020000040000fa
:101024000000fa001160800080ff2f000080600043
:101034001060880000fa20002060880023aca8001b
:10104400238ca80011618000f03f2f000080600015
:1010540000a0a000106188003000200020618800fa
:10106400c3aca800c38ca80011668000f03f2f0019
:101074000080600000a0a0001066880030002000fe
:101084002066880001eca8000080fa000000060039
:101094000000fa00889fbe00d48f8000e58f800096
:1010a400b08f8000c18f800018c0b3000001be0063
:1010b4000400be0063fe07000000e00001003500ec
:1010c4000044eb000804e0000d003200b88f8000fb
:1010d400c98f8000d48f8000e58f8000108380004a
:1010e400218380000001be000400be00b6fd07009d
:1010f4000801be0091030700d08f8800e18f8800ab
:10110400d48f8000e58f8000b08f8000c18f800075
:1011140018c0b3000001be000400be004bfe07006f
:101124000000e00001003c000044eb000804e00083
:101134000d003200b88f8000c98f8000d48f8000ea
:10114400e58f800010838000218380000001be00b1
:101154000400be009bfd07000801be005f030700fa
:10116400d08f8800e18f8800d08f8000e18f8000cd
:1011740018c0b3006011b80034fe07000000e0009e
:1011840001003c000044eb000804e00004003200cd
:10119400c3cca90024eea800c3eca80003003700c8
:1011a400c3eca90024cea800c3cca800d08f800033
:1011b400e18f800033030700020020000322240093
:1011c40009ff070044fe070000007800306688002d
:1011d400948f8000a58f8000708f8000818f8000a5
:1011e40018c0b3000001be000400be0015fe0700d5
:1011f4000000e000010035000044eb000804e000ba
:101204000d003200788f8000898f8000948f8000d9
:10121400a58f800010838000218380000001be0020
:101224000400be0068fd07000801be004303070078
:10123400908f8800a18f8800948f8000a58f8000f4
:10124400708f8000818f800018c0b3000001be0041
:101254000400be00fdfd07000000e00001003c00aa
:101264000044eb000804e0000d003200788f800099
:10127400898f8000948f8000a58f80001083800068
:10128400218380000001be000400be004dfd070064
:101294000801be0011030700908f8800a18f880009
:1012a400908f8000a18f800018c0b3006011b80037
:1012b400e4fd07000000e000010035000044eb00fd
:1012c4000804e0000400320023cca90015eea800b5
:1012d40023eca8000300370023eca90015cea800d6
:1012e40023cca800908f8000a18f8000e502070026
:1012f4000200200003222400bbfe0700f6fd0700c5
:1013040000007800306188004f04be000080fa00bd
:10131400000006000600fa00008fbe004247980055
:101324004e4090000004e00005003a001e017800e1
:101334009e019000728f8800838f8800040037001c
:101344001e0178009e019000b28f8800c38f880030
:101354000080fa00000006001800fa00889fbe0012
:10136400b88f8000c98f8000708f8000818f8000cb
:10137400a24927008348240070fd07000001be0035
:101384000800be000ffd07003091880041918800dd
:10139400349180004591800010918000219180005b
:1013a4000001be000400be0006fd0700008fbe0061
:1013b40010918000219180000200200083242400e9
:1013c4005efd07000001be001e0078009e00900034
:1013d400fcfc070020079800310798000200200059
:1013e400832424002e009000be00900053fd0700cb
:1013f4004007980051079800748f8000858f800003
:10140400b08f8000c18f80000001be000400be00c8
:10141400ecfc070002002000a337240072fe070042
:10142400020020000300240044fd0700f09088001f
:1014340001918800f490800005918000d090800094
:10144400e19080000001be000400be00ddfc070046
:101454006007980071079800d0908000e1908000a8
:1014640002002000831c240034fd07000001be009c
:101474006e009000fe009000d2fc0700000f980060
:10148400110f980002002000831c24000e08900015
:101494009e08900029fd0700200f9800310f980046
:1014a4004e019000de0190002e089000be089000ce
:1014b400c5fc0700b08f8800c18f8800b08f800002
:1014c400c18f800004002000852c2400020020002d
:1014d400832c2c00b1020700b08f8800c18f8800d4
:1014e4004e019000de0190002e089000be0890008e
:1014f400b4fc0700708f8800818f8800708f800093
:10150400818f800004002000852c2400020020002c
:10151400832c2c00a1020700708f8800818f880023
:101524004f04be000080fa00000006000000fa002c
:10153400c301a8000080eb00e00e88000080eb00ef
:10154400f00e8800c1e1a8000080fa000000060047
:101554000000fa00c305a8000080eb00e02e88001c
:101564000080eb00f02e8800c1e5a8000080fa009e
:10157400000006000800fa00889fbe0070908000fa
:1015840081908000408188005181880050908000c3
:10159400619080006081880071818800300e800035
:1015a4008000eb00008fbe00500e80008000eb0036
:1015b400c000dd00000020001e0f40005e974800c0
:1015c400302e80008000eb0020079800310798003f
:1015d400502e80008000eb00c000dd0000002000e1
:1015e4002e019000be01900002004000838048005c
:1015f40020079800310798001e0078009e00900094
:1016040050fd070002f82b00d3382300f6fd070035
:1016140070908800819088002e009000be00900099
:1016240048fd070002f82b00d3382b00eefd07001d
:1016340050908800619088007490800085908000ac
:1016440040818000518180000001be000400be0082
:101654005cfc070018c0b30002002000832c2400a7
:10166400fafc07000000e00001003c000044eb002d
:101674000804e00010003a00749080008590800017
:1016840040818000518180000001be000400be0042
:101694004cfc070018c0b30002002000832c2c006f
:1016a400e8fc07000000e000010035000044eb0006
:1016b4000804e00004003200408180005181800071
:1016c400709088008190880054908000659080001c
:1016d40060818000718180000001be000400be00b2
:1016e40038fc070018c0b30002002000832c24003b
:1016f400d6fc07000000e00001003c000044eb00c1
:101704000804e00010003a005490800065908000c6
:1017140060818000718180000001be000400be0071
:1017240028fc070018c0b30002002000832c2c0002
:10173400c4fc07000000e000010035000044eb0099
:101744000804e000040032006081800071818000a0
:10175400509088006190880074908000859080008b
:1017640040818000518180000001be000400be0061
:1017740014fc0700808188009181880054908000c7
:101784006590800060818000718180000001be004e
:101794000400be000bfc0700a0818800b181880012
:1017a4008481800095818000a0818000b1818000c7
:1017b4000001be000400be0002fc0700a24927008d
:1017c400834824005dfc0700c0818800d181880023
:1017d4008481800095818000a0818000b181800097
:1017e4000001be000400be00f7fb07000200200059
:1017f4000300240051fc0700e0818800f181880087
:10180400e0818000f181800002002000a3372400e1
:1018140075fd0700d0908800e1908800c0818000a9
:10182400d181800002002000a33724006efd070050
:10183400109188002191880090918000a1918000ee
:101844005091880061918800b0918000c19180001e
:101854007091880081918800f0918000019280004d
:10186400d0918800e19188005491800065918000b6
:10187400d0908000e19080000001be000400be0012
:10188400d1fb070090918800a19188007891800095
:1018940089918000d0908000e19080006011b800b0
:1018a40051fd07000001be000800be00c6fb070092
:1018b400b0918800c1918800d4918000e5918000a6
:1018c400c0818000d18180000001be000400be0000
:1018d400bdfb0700f091880001928800f091800020
:1018e4000192800018c0b300b2fd200093042400cc
:1018f40056fc07000000e00001003c000044eb003f
:101904000804e00007003200f0918000019280009a
:10191400b2fd2000930c2400aafb0700f09188007c
:1019240001928800f09180000192800018c0b300f9
:10193400b2fd200093042c0042fc07000000e000ec
:10194400010035000044eb000804e0000700320009
:10195400f091800001928000b2fd2000930c2400dd
:1019640099fb0700f0918800019288004f04be00a3
:101974000080fa00000006000000fa0021738000d5
:10198400000420000080600000f0a7000000ea00ce
:101994000000e9004f00de00004078000080fb00fa
:1019a400610060004600dd00217380000160a10039
:1019b40001007000207388006022b8006011b80034
:1019c4006000b800020007000080fa000000060072
:1019d4000c00fa00008fbe0022079800330798001d
:1019e40044079800550798001e0178009e01900056
:1019f40092918800a39188002e019000be0190006e
:101a0400b2918800c39188004e019000de019000dd
:101a1400f2918800039288000080fa00000006001a
:101a24000000fa0013e1a90011e1a9001061a80067
:101a34001021a90081088000f0fc2f0000806000c4
:101a4400800888000a21ef000621ef0020262000ec
:101a54007008880000a025006008880021428000ea
:101a640080ff2f00008060000000a000204288005a
:101a74000108a9002108a80011e1a8000080fa00cb
:101a8400000006000000fa005e30ef006030ef0056
:101a940005e1a90000002000a1372400060007008a
:101aa4000421a9000068a9002068a80005e1a80095
:101ab4000080fa00000006000400fa00881f780085
:101ac400008fbe0021088000f0fc2f000080600021
:101ad400200888001e0178009e01900000682900fb
:101ae40081c1240095fb070018c0b30002f02f0049
:101af400f3772400d5fb07000000e00001003c0060
:101b04000044eb000804e000540032002108800087
:101b1400f0fc2f00008060000040a0002008880036
:101b24001e0178009e0190000068290081c12400f4
:101b340082fb070002002000031024007ffb070043
:101b440018c0b30002f02f00f3772400bffb070096
:101b54000000e00001003c000044eb000804e00049
:101b64003200320021088000f0fc2f000080600069
:101b74000050a000200888001e0178009e019000fb
:101b84000068290081c124006cfb070002002000ca
:101b94000328240069fb070018c0b30002f02f00db
:101ba400f3772400a9fb07000000e00001003c00db
:101bb4000044eb000804e00010003200210880001b
:101bc4000003200001007000200888001e01780036
:101bd4009e0190000068290081c1240057fb070082
:101be400020020000338240054fb070099fb07007f
:101bf4000000780010088800200037001e017800db
:101c04009e0190000068290081c124004bfb07005d
:101c1400020020000328240048fb07008dfb070076
:101c24000000780010088800140037001e017800b6
:101c34009e0190000068290081c124003ffb070039
:101c440002002000031024003cfb070081fb070076
:101c54000000780010088800080037001e01780092
:101c64009e0190000068290081c1240033fb070015
:101c740078fb070000007800100888004f04780003
:101c84000080fa00000006000000fa001fe1a9002d
:101c940000002000a1472400060007001e21a9001f
:101ca4000368a9002368a8001fe1a8000080fa00c7
:101cb400000006000400fa00881f7800008fbe00b0
:101cc400f1088000f0fc2f0000806000f00888001c
:101cd4001e0178009e0190000068290081c1240043
:101ce40016fb070018c0b30002f02f00f37724009e
:101cf40056fb07000000e00001003c000044eb003c
:101d04000804e00054003200f1088000f0fc2f00c9
:101d1400008060000040a000f00888001e017800e8
:101d24009e0190000068290081c1240003fb070084
:101d3400020020000310240000fb070018c0b300b9
:101d440002f02f00f377240040fb07000000e000be
:101d540001003c000044eb000804e00032003200c3
:101d6400f1088000f0fc2f00008060000050a0000b
:101d7400f00888001e0178009e0190000068290088
:101d840081c12400edfa070002002000032824008a
:101d9400eafa070018c0b30002f02f00f37724001a
:101da4002afb07000000e00001003c000044eb00b7
:101db4000804e00010003200f10880000003200055
:101dc40001007000f00888001e0178009e01900058
:101dd4000068290081c12400d8fa0700020020000d
:101de40003382400d5fa07001afb07000000780026
:101df400d0088800200037001e0178009e01900062
:101e04000068290081c12400ccfa070002002000e8
:101e140003282400c9fa07000efb0700000078001d
:101e2400d0088800140037001e0178009e0190003d
:101e34000068290081c12400c0fa070002002000c4
:101e440003102400bdfa070002fb0700000078001d
:101e5400d0088800080037001e0178009e01900019
:101e64000068290081c12400b4fa0700f9fa0700c8
:101e740000007800d00888004f0478000080fa0041
:101e8400000006000400fa00881f7800008fbe00de
:101e940018c0b3006011b8001e0078009e009000c6
:101ea400eafa07000000e00001003d000044eb00f6
:101eb4000804e000030032001e0078009e00900039
:101ec400030037001e0078009e00900001f0a2007d
:101ed4004f0478000080fa00000006000800fa00b1
:101ee400881f7800008fbe002207980033079800ef
:101ef40018c0b3002e019000be0190001e007800af
:101f04009e009000d1fa07000000e00001003c00b0
:101f14000044eb000804e000030032001e007800d7
:101f24009e009000020037002e009000be0090003a
:101f34004f0478000080fa00000006000800fa0050
:101f4400881f7800008fbe0022079800330798008e
:101f540018c0b3002e019000be0190001e0078004e
:101f64009e009000b7fa07000000e0000100350071
:101f74000044eb000804e000030032001e00780077
:101f84009e009000020037002e009000be009000da
:101f94004f0478000080fa00000006000c00fa00ec
:101fa400881f7800008fbe0022079800330798002e
:101fb400440798005507980018c0b3002e019000fc
:101fc400be0190001e0078009e0090009dfa07005c
:101fd4000000e000010035000044eb000804e000cc
:101fe400030032002e009000be0090001000370065
:101ff40018c0b3004e019000de0190001e0078006e
:102004009e00900091fa07000000e00001003c00ef
:102014000044eb000804e000030032004e0090008e
:10202400de009000020037001e0078009e00900041
:102034004f0478000080fa00000006000800fa004f
:102044002007980031079800b2fd20009304240073
:102054002e009000be009000daf90700b2fd2000c7
:10206400930c2400bcfa0700b2fd20009304240062
:10207400d5f90700008fbe00b2fd200093042400b0
:102084001e0078009e009000cff90700b2fd2000ea
:10209400930c2400b0fa0700b2fd2000930424003e
:1020a400c8f907000080fa00000006000a00fa00e0
:1020b4003007980041079800be0090004e00900041
:1020c400008f40001e0078001001780090019000fd
:1020d40012079800230798001e009000ae0090009d
:1020e4000080fa00000006000600fa0010079800bd
:1020f400210798009e0090002e009000008f400061
:102104001e00780090009000100078000080fa0013
:10211400000006000c00fa00200798003107980020
:10212400420798005307980068004700100798007a
:102134000000eb00000f78000a0037003e0090001a
:102144001e004000ae009000008040009e00780019
:102154001e01900081004100914078000148780000
:102164001e0fe8001e007800e30f5000f3ff340058
:102174000080fa00000006000c00fa002007980016
:1021840031079800420798005307980068004700f9
:10219400100798000000eb00000f78000b003700d8
:1021a4003e0090001e004000ae0090000080400001
:1021b400320020009e0051001e0190008100410069
:1021c40091407800014878001e0fe8001e00780056
:1021d400e30f5000f2ff34000080fa000000060014
:1021e4000c00fa0020079800310798004207980075
:1021f4005307980068004700100798000000eb00a0
:10220400000f78000a0037003e0090001e004000d6
:10221400ae009000008040009e0078001e019000f7
:102224008100410091407800014878001e0fe800c9
:102234001e007800e70f5000f3ff34000080fa001e
:10224400000006000400fa008f0407002a040700b7
:1022540073fb07000bfe07008bfe0700f203070069
:10226400b2fc0700bafc07000000eb00000f780086
:1022740014003700cd030700204798002e4090003b
:10228400c90107002173800000082000008060005d
:1022940000f0a7000000ea000000e9004f00de00a3
:1022a400004078000080fb00610060004700dd0012
:1022b400217380000170a100010070002073880068
:1022c4001e0fe800d20307009e0f5000e9ff3e00f6
:1022d400e5ff37000000fa0066d0bf000080fb0075
:1022e400cf80de009200200003002000820f500007
:1022f400838f580063003e00000601000900370088
:102304001100370019003700210037002900370079
:1023140031003700390037003f00370047003700ed
:102324004f00370012c0b30000002000011f24003a
:10233400f8fb07000041eb0000002000011f24000f
:10234400f4fb07005200370012c0b3000000200065
:10235400011f2400effb07000041eb0000002000f8
:10236400011f2400ebfb07004900370012c0b30033
:1023740000002000011f2400e6fb07000041eb00e1
:1023840000002000010a2400e2fb0700400037009f
:1023940012c0b30000002000010a2400ddfb070086
:1023a4000041eb0000002000011f2400d9fb0700be
:1023b4003700370012c0b3000000200001172400ca
:1023c400d4fb07000041eb000000200001172c00a3
:1023d400d0fb07002e00370012c0b300000020001d
:1023e40001172c00cbfb07000041eb00000020008c
:1023f40001172400c7fb07002500370012c0b300f3
:102404006000b800c3fb07000041eb006000b800a7
:10241400c0fb07001e00370012c0b30000002000fc
:10242400011a2c00bbfb07000041eb000000200058
:10243400011a2c00b7fb07001500370012c0b300c7
:1024440000002000012a2400b2fb07000041eb0039
:1024540000002000012a2400aefb07000c00370016
:1024640012c0b3000000200001172400a9fb0700dc
:102474000041eb000000200001172400a5fb070029
:102484000300370060c0b30066f0b700000000002e
:102494000080fa00000006000200fa00004f7800f5
:1024a4001e41780061062100824878000080fa000d
:1024b400000006000200fa00004f7800114798005f
:1024c4000040eb00670207001e41780081062100ee
:1024d400824878001e4190009106210082487800cd
:1024e4000080fa00000006000000fa0021e3a900c1
:1024f4002143a80001198000f0cf2f000080600064
:10250400001988002043a90001198000000e200052
:10251400010070000019880011198000f0ff2100eb
:1025240000806000101988002343a800111980005e
:10253400f0cf2f000080600010198800111980006e
:1025440030f82f00008060000030a00010198800cf
:102554002203a9002223a90025e3a900f0c0b300a7
:1025640024e3b70021198000f00f2e008080600062
:1025740000f0200001007000201988003303a90036
:102584002e0ea8002f6ea8006f2ea80030c3a8003e
:102594003163a8002e03a8004119800000fc2f001d
:1025a400008060004019880028e3a90001a8a90060
:1025b40021a8a80021e3a8000080fa00000006007a
:1025c4000000fa002023a8000080fa0000000600a2
:1025d4000000fa00200421000080fa000000060038
:1025e4000000fa004ad0bf000080fa000000060094
:1025f4000000fa004a70ef000080fa0000000600b4
:102604000600fa00f6ff0700e14f50004f003a00c1
:10261400f7ff0700eeff0700000f78009e00780028
:1026240064804000100078008000eb0048f9070047
:102634003233230033052400ebf9070002002000a5
:1026440003582400bdf80700d2cc2c00c304240096
:10265400e5f9070010079800210798001e01900073
:10266400ae0190000000200081202400b3f8070090
:1026740002002000030a240052f80700f08f8800ab
:10268400019088001e80e800100078008000eb00b4
:102694002ff907003233230033052400d2f9070051
:1026a4000200200003582400a4f80700d2cc2c0018
:1026b400c3042400ccf907001007980021079800f0
:1026c4001e019000ae019000000020008120240033
:1026d4009af8070002002000030a240039f80700d2
:1026e40010908800219088001e0078001000780067
:1026f4008000eb0016f90700323323003305240071
:10270400b9f9070002002000035824008bf80700e1
:10271400d2cc2c00c3042400b3f90700100798009e
:10272400210798001e019000ae01900000002000d7
:102734008120240081f8070002002000030a2400fd
:1027440020f8070030908800419088000080fa004b
:10275400000006000e00fa00889fbe00004f98009b
:1027640051079800620798000f0478000f00780062
:10277400800478005e0090006600400080007800cd
:102784008100e900210798000000e8000000e8004b
:102794000000d100800040000f00780081874700ce
:1027a4000000e8000000d10000004000300798005d
:1027b4003e009000ee0190005e0190008e48900073
:1027c400180007003e009000104f78001000200011
:1027d4001007980008003700be0090001e0090000b
:1027e40000804000104078001e4f68001e009000da
:1027f4000000e800100798005e009000e50040002b
:102804001e009000808f5000f3ff3e001e407800b1
:1028140089077800880778004f04be000080fa001a
:10282400000006000a00fa001007980041479800cb
:1028340032079800430798001e009000e1cfb300d0
:10284400014878001e0090000000e800ce4090008f
:102854008180fb00c888de00814078000148780050
:102864001e0090000080e800ce40900001487800ef
:102874001e00900063004000be009000c808de0007
:1028840081407800014878001e00900064004000f8
:10289400be00900081407800014878000000eb0001
:1028a400000f78000a0037009e0078006580400021
:1028b4009e009000008040009e0078004e01900031
:1028c4008100410091407800014878001e0fe80023
:1028d4009e0078003e009000808f5000f2ff390087
:1028e4000080fa00000006000c00fa00889fbe0079
:1028f4006047980041079800520798000f04780039
:102904000f007800800478004e00900066004000bc
:10291400800078008100e900010f78000000e800e1
:102924000000e8000000d100800040000f007800a3
:10293400818747000000e8000000d100000040004b
:10294400100798001e009000de0190004e019000d8
:10295400ee409000b3ff07005e019000ce009000af
:102964006e4090007bff0700404798004e009000a7
:10297400650040009e00900000804000ce40900022
:10298400014878004e009000e60040001e009000d0
:102994009201070089077800880778004f04be0079
:1029a4000080fa00000006000400fa0020479800a6
:1029b40090828000e30f500023003200e30f5000a8
:1029c40005003e00e10f500013003200e10f5000fb
:1029d40015003e0007003700e50f500035003200b7
:1029e400e50f50001f003900e60f50004000320090
:1029f4004e0037002e409000e24f40004e003a0057
:102a04004c70ef004e30ef005030ef00100020000b
:102a1400908288004b0037004c70ef0020002000ab
:102a24009082880047003700c1042100914078005b
:102a34002e40900000c040004cf0b7003000200051
:102a4400908288003f0037002e4090000080fb00f9
:102a54004800dd00708288004000200090828800d9
:102a6400380037002e4090008080fb007082800088
:102a7400008040007082880071828000f00f200086
:102a8400808f500009003e00708280000000e0004a
:102a94000300320050002000908288002900370093
:102aa4006000200090828800260037005230ef003a
:102ab4002400370080828000c1062100008040008d
:102ac400ae40900001487800808280000000e80059
:102ad400808288008182800070828000808f500014
:102ae400170039006000200090828800150037002c
:102af400ae409000014f7800718280004cd0bf003e
:102b0400c206210013ff0700104798001e409000e2
:102b14009e4f500003003a004cd0bf00c106210074
:102b24000a0007005230ef00060037005230ef0071
:102b3400000000000300370000000000010037001f
:102b4400000000000080fa00000006000400fa0003
:102b5400004f7800110798001e80fb00110520002b
:102b6400810f50005200320011052000810f5000e7
:102b740007003c0001022000810f500008003200d1
:102b840001042000810f50003f0032005000370044
:102b940021062000810f5000490032004c0037000c
:102ba4001e009000104078000080fb00e20f5000ef
:102bb40014003200e30f500022003200e10f5000f5
:102bc40042003a001e0090000000e8001040780027
:102bd4000004a2000080fb000000e9004f00de00ba
:102be400004078000080fb00610060004a00dd00c6
:102bf4002171800001a0a1000100700020718800f3
:102c0400200037001e0090000000e800104078000b
:102c14000004a2000080fb000000e9004f00de0079
:102c2400004078000080fb00610060004700dd0088
:102c3400217380000170a1000100700020738800de
:102c4400100037001e0090000000e80010407800db
:102c54000004a2000080fb000000e9004f00de0039
:102c6400004078000080fb00610060004600dd0049
:102c7400217380000160a1000100700020738800ae
:102c840000000000120037001e0090000000e80061
:102c940010407800804078001e00900010407800ba
:102ca40004fe07000040eb00fbfd070008003700ae
:102cb4001e00900010407800f7fd07000400370064
:102cc4002dfb070000000000010037000000000099
:102cd4000080fa00000006001c00fa00200f980093
:102ce400310f9800420f9800530f98006000b8000d
:102cf400008fbe006000b8002007980031079800dc
:102d04006000b80040079800510798002e01900019
:102d1400be0190001e0078009e00900007f7070097
:102d240060079800710798004e019000de01900042
:102d34001e0078009e0090002bf80700000f9800fa
:102d4400110f98006000b800e0808800f1808800ce
:102d54006000b80000818800118188006000b8001c
:102d640020818800318188000080fa00000006007c
:102d74000400fa00889fbe00008fbe0040808000df
:102d840051808000608088007180880020808000ed
:102d94003180800040808800518088001e017800c6
:102da4009e0190002280880033808800808080000b
:102db40091808000a0808800b180880024808000f9
:102dc40035808000e0808000f18080000001be003a
:102dd4000400be0004f807000002be00a0808000ca
:102de400b18080000001be000400be0076f607003a
:102df4000004be0044808000558080000081800073
:102e0400118180000001be000400be00f6f7070037
:102e14000001be000800be006bf607000004be00ff
:102e24006480800075808000208180003181800072
:102e34000001be000400be00ebf707000001be0065
:102e44000800be0060f6070080808800918088003a
:102e540080808000918080004f04be000080fa00d2
:102e6400000006000800fa0060479800f082800025
:102e7400018380004808de0000427800f082800070
:102e8400018380004008de0080417800f0828000e9
:102e9400018380004809dd004800de000000710065
:102ea400c808de0000417800f082800001838000c1
:102eb40000407800ee409000014f780014479800dd
:102ec4002347980032479800404798000e01780045
:102ed4005100200000c5b30083fe07000080fa0003
:102ee400000006000400fa00000f780011079800a3
:102ef4001e0178009e00900000c8b3007afe07000f
:102f04000080fa00000006002000fa006011b800fa
:102f14008000eb000e00780097fc07009091800081
:102f2400a19180000001be00410020000e00780045
:102f340078fc0700b0918000c19180000001be00c0
:102f4400810020000e00780072fc0700f0918000e0
:102f5400019280000001be00c10020000e00780034
:102f64006cfc0700d0908000e19080000001be005e
:102f7400010120000e00780066fc0700109180001b
:102f8400219180000001be00410120000e00780064
:102f940060fc070070908000819080000001be00fa
:102fa400810120000e0078005afc07005090800038
:102fb400619080000001be00c10120000e00780075
:102fc40054fc07000e0178000102200010c6b30073
:102fd40045fe07000080fa00000006000600fa0023
:102fe40010079800210798000040eb00004f78007c
:102ff4003e000700800078002e009000808f500073
:10300400110036000040eb00004f78000600370046
:103014001e80fb009e00900000804000104078005d
:103024000b0007001e4fe8009e80fb002e0090005e
:10303400808f5000f6ff39003c0007000004e000d8
:1030440001003a00200007000080fa00000006009a
:103054000200fa00004f7800a0828000c11621000f
:10306400808040009e4878000000e800a08288002c
:10307400a182800000082000808f500001003a00e7
:103084005430ef000080fa00000006000200fa004d
:10309400b0828000c116210080804000114f78006a
:1030a4000000e800b0828800b1828000000820009f
:1030b400808f500001003a005630ef001e40780027
:1030c4000080fa00000006000200fa0010c0b300fd
:1030d40058f0b700edff0700004f78001e80fb009a
:1030e400201188000080fa00000006000000fa00a9
:1030f400a1828000b0828000808f500005003400df
:10310400b1828000a0828000008050000008b000de
:1031140004003700a1828000b0828000008050004b
:103124000008b0000080fa00000006000000fa0069
:1031340058d0bf000080fa00000006000200fa0028
:10314400004f78000f0007000000e0000b0034007f
:10315400d0828000c10e2100808040009e4878000b
:103164000000e800d0828800d1828000000820009e
:10317400808f500001003a005a30ef000080fa00be
:10318400000006000000fa00d1828000e082800086
:103194000080500000f0a7000000ea0001082000b1
:1031a400008050000080fa00000006000200fa00cf
:1031b400e0828000c10e210080804000114f780021
:1031c4000000e800e0828800e1828000000820001e
:1031d400808f500001003a005c30ef001e40780000
:1031e4000080fa00000006000000fa00d18280008e
:1031f400e0828000808f50000200320010c0b300d3
:10320400010037000040eb000080fa0000000600d7
:103214000000fa00dbff07000108200000805000d6
:103224000080fa00000006000000fa002002a90055
:103234000111800090ff2f000080600000118800c1
:1032440020a2a9002062a800500520004011880097
:1032540023a2a90023e2a9000188a9002188a800cb
:1032640011118000f0f32f0000806000101188001d
:103274000168a9002168a80021e2a8002342a8004f
:103284000080fa00000006000600fa00100798000b
:10329400210798000040eb00004f78000040eb004d
:1032a400004f78000e00370000000000111180006c
:1032b40000202000008060000000e000fbff3a00d6
:1032c4001e009000104078000080fb002011880050
:1032d4001e0090000000e800100798001e4fe80050
:1032e4009e80fb002e009000808f5000eeff350082
:1032f4000080fa00000006000000fa000e2eef0025
:103304001e2eef002e2eef003e2eef004e2eef006d
:103314005e2eef006e2eef00214ea90060cea900b4
:1033240060eea90011cea90011eea90020cea900db
:1033340020eea9002136800000f82f0000806000f4
:103344008001b300203688001134800000fc2f0077
:10335400008060000000a000103488000136800066
:1033640000f82f008080600010062000010070002b
:103374000036880001368000f00f2800808060004d
:10338400000026000100700000368800e13580004e
:1033940000f82f00808060006004200001007000ad
:1033a400e0358800e1358000f00f2800808060005f
:1033b4000050240001007000e03588000080fa000d
:0433c40000000600ff
:020000040000fa
:1033c8006c10000080000000800000004c1000001d
:1033d8000800000080000000ec10000080000000e1
:1033e800800000005a100000040000008000000067
:1033f8006c110000800000008000000054100000e4
:1034080006000000800000006610000002000000b6
:1034180082000000060000006810000002000000a2
:10342800800000005e100000040000008000000022
:10343800ec1100005600000080000000621000003f
:1034480004000000820000000000a000400000000e
:10345800401000000c000000800000002810000050
:103468001800000080000000001000002800000084
:10347800800000006a1000000200000080000000c8
:043488000000000040
:020000040000fa
:10348c000000fa00f0032000303a8800213a800056
:10349c00f0f32f0000806000203a8800213a800071
:1034ac0000fe2f00008060000000a000203a880081
:1034bc001200200080072000a10920003374200096
:1034cc00804978008149780082497800103a800060
:1034dc00000178000200a0006004200071052000ab
:1034ec002374200080497800814978008249780053
:1034fc0000000000113a800000002700808060006e
:10350c0000002100808f5000faff3a0000000000fc
:10351c00113a800000022000008060000000e000f2
:0c352c00fbff32000080fa0000000600e7
:020000040000fa
:02000004000af0
:04afe000cfff00009f
:020000040000fa
:02000004000af0
:04afe400ffff00006b
:020000040000fa
:02000004000af0
:04afe8007fff0000e7
:020000040000fa
:02000004000af0
:04afec005fff000003
:020000040000fa
:02000004000af0
:04aff00038ff000026
:020000040000fa
:02000004000af0
:04aff400ffff00005b
:00000001FF
