:020000040000fa
:080000000002040000000000f2
:020000040000fa
:040008004e030000a3
:020000040000fa
:04000c004e0300009f
:020000040000fa
:040010004e0300009b
:020000040000fa
:040014004e03000097
:020000040000fa
:040018004e03000093
:020000040000fa
:04001c004e0300008f
:020000040000fa
:040020004e0300008b
:020000040000fa
:040024004e03000087
:020000040000fa
:040028004e03000083
:020000040000fa
:04002c004e0300007f
:020000040000fa
:040030004e0300007b
:020000040000fa
:0400340024030000a1
:020000040000fa
:040038004e03000073
:020000040000fa
:04003c004e0300006f
:020000040000fa
:040040004e0300006b
:020000040000fa
:040044004e03000067
:020000040000fa
:04004800fa020000b8
:020000040000fa
:04004c004e0300005f
:020000040000fa
:040050004e0300005b
:020000040000fa
:040054004e03000057
:020000040000fa
:040058004e03000053
:020000040000fa
:04005c004e0300004f
:020000040000fa
:040060004e0300004b
:020000040000fa
:040064004e03000047
:020000040000fa
:040068004e03000043
:020000040000fa
:04006c004e0300003f
:020000040000fa
:040070004e0300003b
:020000040000fa
:040074004e03000037
:020000040000fa
:040078004e03000033
:020000040000fa
:04007c004e0300002f
:020000040000fa
:040080004e0300002b
:020000040000fa
:040084004e03000027
:020000040000fa
:040088004e03000023
:020000040000fa
:04008c004e0300001f
:020000040000fa
:040090004e0300001b
:020000040000fa
:040094004e03000017
:020000040000fa
:040098004e03000013
:020000040000fa
:04009c004e0300000f
:020000040000fa
:0400a0004e0300000b
:020000040000fa
:0400a4004e03000007
:020000040000fa
:0400a8004e03000003
:020000040000fa
:0400ac004e030000ff
:020000040000fa
:0400b0004e030000fb
:020000040000fa
:0400b4004e030000f7
:020000040000fa
:0400b8004e030000f3
:020000040000fa
:0400bc004e030000ef
:020000040000fa
:0400c0004e030000eb
:020000040000fa
:0400c4004e030000e7
:020000040000fa
:0400c8004e030000e3
:020000040000fa
:0400cc004e030000df
:020000040000fa
:0400d0004e030000db
:020000040000fa
:0400d4004e030000d7
:020000040000fa
:0400d8004e030000d3
:020000040000fa
:0400dc004e030000cf
:020000040000fa
:0400e0004e030000cb
:020000040000fa
:0400e4004e030000c7
:020000040000fa
:0400e8004e030000c3
:020000040000fa
:0400ec004e030000bf
:020000040000fa
:0400f0004e030000bb
:020000040000fa
:0400f4004e030000b7
:020000040000fa
:0400f8004e030000b3
:020000040000fa
:0400fc004e030000af
:020000040000fa
:040100004e030000aa
:020000040000fa
:040104004e030000a6
:020000040000fa
:040108004e030000a2
:020000040000fa
:04010c004e0300009e
:020000040000fa
:040110004e0300009a
:020000040000fa
:040114004e03000096
:020000040000fa
:040118004e03000092
:020000040000fa
:04011c004e0300008e
:020000040000fa
:040120004e0300008a
:020000040000fa
:040124004e03000086
:020000040000fa
:040128004e03000082
:020000040000fa
:04012c004e0300007e
:020000040000fa
:040130004e0300007a
:020000040000fa
:040134004e03000076
:020000040000fa
:040138004e03000072
:020000040000fa
:04013c004e0300006e
:020000040000fa
:040140004e0300006a
:020000040000fa
:040144004e03000066
:020000040000fa
:040148004e03000062
:020000040000fa
:04014c004e0300005e
:020000040000fa
:040150004e0300005a
:020000040000fa
:040154004e03000056
:020000040000fa
:040158004e03000052
:020000040000fa
:04015c004e0300004e
:020000040000fa
:040160004e0300004a
:020000040000fa
:040164004e03000046
:020000040000fa
:040168004e03000042
:020000040000fa
:04016c004e0300003e
:020000040000fa
:040170004e0300003a
:020000040000fa
:040174004e03000036
:020000040000fa
:040178004e03000032
:020000040000fa
:04017c004e0300002e
:020000040000fa
:040180004e0300002a
:020000040000fa
:040184004e03000026
:020000040000fa
:040188004e03000022
:020000040000fa
:04018c004e0300001e
:020000040000fa
:040190004e0300001a
:020000040000fa
:040194004e03000016
:020000040000fa
:040198004e03000012
:020000040000fa
:04019c004e0300000e
:020000040000fa
:0401a0004e0300000a
:020000040000fa
:0401a4004e03000006
:020000040000fa
:0401a8004e03000002
:020000040000fa
:0401ac004e030000fe
:020000040000fa
:0401b0004e030000fa
:020000040000fa
:0401b4004e030000f6
:020000040000fa
:0401b8004e030000f2
:020000040000fa
:0401bc004e030000ee
:020000040000fa
:0401c0004e030000ea
:020000040000fa
:0401c4004e030000e6
:020000040000fa
:0401c8004e030000e2
:020000040000fa
:0401cc004e030000de
:020000040000fa
:0401d0004e030000da
:020000040000fa
:0401d4004e030000d6
:020000040000fa
:0401d8004e030000d2
:020000040000fa
:0401dc004e030000ce
:020000040000fa
:0401e0004e030000ca
:020000040000fa
:0401e4004e030000c6
:020000040000fa
:0401e8004e030000c2
:020000040000fa
:0401ec004e030000be
:020000040000fa
:0401f0004e030000ba
:020000040000fa
:0401f4004e030000b6
:020000040000fa
:0401f8004e030000b2
:020000040000fa
:0401fc004e030000ae
:020000040000fa
:040200004e030000a9
:020000040000fa
:040204004e030000a5
:020000040000fa
:040208004e030000a1
:020000040000fa
:04020c004e0300009d
:020000040000fa
:040210004e03000099
:020000040000fa
:040214004e03000095
:020000040000fa
:040218004e03000091
:020000040000fa
:04021c004e0300008d
:020000040000fa
:040220004e03000089
:020000040000fa
:040224004e03000085
:020000040000fa
:040228004e03000081
:020000040000fa
:04022c004e0300007d
:020000040000fa
:040230004e03000079
:020000040000fa
:040234004e03000075
:020000040000fa
:040238004e03000071
:020000040000fa
:04023c004e0300006d
:020000040000fa
:040240004e03000069
:020000040000fa
:040244004e03000065
:020000040000fa
:040248004e03000061
:020000040000fa
:04024c004e0300005d
:020000040000fa
:040250004e03000059
:020000040000fa
:040254004e03000055
:020000040000fa
:040258004e03000051
:020000040000fa
:04025c004e0300004d
:020000040000fa
:040260004e03000049
:020000040000fa
:040264004e03000045
:020000040000fa
:040268004e03000041
:020000040000fa
:04026c004e0300003d
:020000040000fa
:040270004e03000039
:020000040000fa
:040274004e03000035
:020000040000fa
:040278004e03000031
:020000040000fa
:04027c004e0300002d
:020000040000fa
:040280004e03000029
:020000040000fa
:100400006f0121000eff2c000e018800000000008b
:10041000000020000000e000020032000001200087
:1004200020028800140007009e0007000000e00082
:1004300003003a006097200001002000020037000e
:100440000000200001002000810f70000100320038
:100450000f000700000020000000e0000200320052
:1004600000000200000000005c0902000000000023
:100470000040da000000fe00200020000000e00044
:1004800002003200100020009001880000000600e9
:10049000a1028800800478000000eb001f003700f4
:1004a000e284440054a0b4009905ba00e2844400f8
:1004b00054a0b4009906ba00e284440054a0b400e9
:1004c0000006eb00476fde00fd07b200ae018800ba
:1004d000636ce10003003a000ad801000000eb0061
:1004e0000e003700606ce10008003a00004deb00a0
:1004f0000a05e800020039003420ec000af0a000f0
:100500008b05e900f9ff3e00040037006168e10057
:10051000010032000086eb000b00070019c7ba008b
:100520000e04e0001905ba0003003a000a00e000da
:10053000dbff3a0000000600fe07b200ae028800b2
:100540008a047800f5ff37000cd0a300e20f4d00bd
:100550001c00390089027800354dba000a05e80010
:10056000020039003420ec000af0a0008b05e900fd
:100570000f003200254dba000a05e80002003900dc
:100580003420ec000af0a0008b05e90008003200de
:100590000c00e0000600320015cdba000a05e800a4
:1005a000020039003420ec000af0a0008b05e900bd
:1005b0008984e80054a0b4000b00e000e2ff3a0098
:1005c000000006009902ba00055d78008b05e9007d
:1005d000f7ff3200c82ade00055d78008b05e900d0
:1005e000f3ff32000c00e000f1ff320019ddba0029
:1005f000eeff3700809fbe000000fa000108a9004e
:1006000021718000004020000080600000f0a70001
:100610000000ea000000e9004f00de000040780022
:100620000080fb00610060004a00dd002171800055
:1006300001a0a10001007000207188000080fa0074
:100640004f00be0000400600809fbe000000fa0080
:100650000068a90021738000000420000080600071
:1006600000f0a7000000ea000000e9004f00de00f3
:10067000004078000080fb00610060004600dd0063
:10068000217380000160a1000100700020738800c8
:100690000080fa004f00be00004006000040da0073
:1006a0000000fe000000050003f0a200889fbe00cd
:1006b0008a9fbe008c1f7800040107000b013300e5
:1006c0006450e1004f0032006420e100520032002b
:1006d00003826c0007003b000905d0000306d00030
:1006e000820f54000c065d00020039000200320047
:1006f00089017800030678008582550004003d00da
:100700000003fd008103fd008502ea008b854200a5
:10071000840f720002003b0060001000e0801800af
:100720006011b8000005eb007a28e1000a003900ea
:1007300006007800c75ddd00f707b200878075000e
:100740002d003700828171000a0178006105600088
:100750008180d1000080d3008502e900f9ff3b00d1
:10076000060440008784480002003b006004140037
:10077000e0841c000988a300070032008a81710010
:1007800082817100610164008904d1000884d30072
:100790008b05e800170037000978a30013003a0022
:1007a0000b00e000130034008b05e900080444004e
:1007b00089844c000a4474000978a3000d003a00b3
:1007c0000b00e000070034008b05e900080444003a
:1007d00089844c0001003a000b0020000978a30036
:1007e000f7ff32000001eb00020037008281710048
:1007f0000a0178007a0007000cf0a70001f0a000c1
:10080000c30037006420e10002003a00838f6c00cf
:10081000c30033000801be000200be00bc00370068
:1008200014002000f5003700f4ff2f00f30037001c
:100830000001be00900007000470a70003f0a100b3
:1008400003f8a30013003a006509b100100032005c
:10085000090035006928e100020035000100280088
:100860000000050000004000818048008502e9008a
:10087000fcff3a0000000600f88f4200050035003a
:100880008100d1000080d3008502e800fcff3a001f
:10089000000006008000eb000000050004002000be
:1008a00000003700889fbe008a9fbe008c1f780022
:1008b0004f26dd00850007008c0033006120e10039
:1008c000430032006250e10041003e003e0039002a
:1008d0006420e1003c003200058255000f003b001f
:1008e0000402e80038003a00800f5300818f5b005b
:1008f000350034000800be0003f0a10001f0a6009e
:1009000003f0a0000cf0a70068ff0700800037008c
:100910000603430087834b000c4646000005530046
:1009200081855b00020033000a03be000c00a000ba
:100930000402e900f6ff3b0085057800060243004b
:1009400087824b0004003a006000b80009f0a7005d
:1009500001f0a0006e0037000002520081825a00b0
:100960000704e000040033000603430087834b00c4
:100970008b05e900faff3700090578000604be0080
:100980000203be006011b80015000700e00f52001e
:10099000e08f5a000700350002003c000c08a3005d
:1009a000040032000601be0003f0a0000cf0a70016
:1009b0003eff07000a85680001f0a1000af0a700c9
:1009c00001f0a000520037000800be0050003700c0
:1009d000100220000cf0a6001080880050003700a4
:1009e00081002000618055000b003d000b002000bd
:1009f00061fe2f000100e1001d00340082817100c2
:100a0000610164008904d1000884d3000000e8007b
:100a1000faff3a00710020006100640003007000da
:100a2000020060000900320061044400e0844c00d0
:100a30000988a500050032008b05e8006808e10080
:100a400002003a008904d1000884d300f20f20008c
:100a50000258e10005003d00c75ddd00f907b20066
:100a60008980750008007800000006000bf8270058
:100a70008b00780000000500c70ade00f107b20015
:100a8000f50fb20008003200e1cf42000200320050
:100a90000170a00024000500810f700001003200e9
:100aa0000408050044000500810f700002003a00b0
:100ab000140005008502e9000000400081c04800e4
:100ac000fcff3b000170a000240005000004be00f4
:100ad000e9ff07000003be000405be000200be00df
:100ae000e5ff0700844f7500000006000200be000d
:100af0006450e100050036006420e1000200360089
:100b00000968a30001003a000800be000160a000cf
:100b10004f0678004f05be004f04be0000000600df
:100b2000f0ff2f00f1ff2700f9ff3700889fbe007c
:100b30008a9fbe008c1f7800e4ff0700ebff3300a4
:100b400003866c006450e100240032006420e10060
:100b5000270032006150e100220032006120e100f4
:100b6000210032008b854200eb07b1000134b80050
:100b7000003ab8000804420089844a00013ab800eb
:100b80000030b8008880400009014a0004003300aa
:100b90000000400081804800020149008b05e90007
:100ba000c909dd008301700001003200130020003c
:100bb000c814de004814dd004709de001200b20050
:100bc000c808de000884700085ff070001f0a1005e
:100bd0000cf0a70001f0a000cdff37006120e1007c
:100be000cfff32000801be000200be00f7ff370051
:100bf0006150e100fcff3a00c9ff3700889fbe004a
:100c00008a9fbe00841f7800b0ff07004f00780065
:100c100011003300f0ff2f00838f6c0006003b00b3
:100c2000040565000a00a7000800370009f0a600c7
:100c30001000200008003700820f5400838f5c00f2
:100c4000030039001000200001003e0000002000d9
:100c500009f0a7000000ea004f05be004f04be00e7
:080c60000000e00000000600a6
:020000040000fa
:100c68000400fa00881f7800008fbe0018c0b30087
:100c78006011b8001e0078009e009000e8fe070092
:100c88000000e00001003d000044eb000804e00023
:100c9800030032001e0078009e0090000300370019
:100ca8001e0078009e00900001f0a2004f0478001a
:100cb8000080fa00000006000800fa00881f78008b
:100cc800008fbe00220798003307980018c0b300b1
:100cd8002e019000be0190001e0078009e0090003a
:100ce800cffe07000000e00001003c000044eb00dc
:100cf8000804e000030032001e0078009e00900007
:100d0800020037002e009000be0090004f047800cb
:100d18000080fa00000006000800fa00881f78002a
:100d2800008fbe00220798003307980018c0b30050
:100d38002e019000be0190001e0078009e009000d9
:100d4800b5fe07000000e000010035000044eb009c
:100d58000804e000030032001e0078009e009000a6
:100d6800020037002e009000be0090004f0478006b
:100d78000080fa00000006000c00fa00881f7800c6
:100d8800008fbe0022079800330798004407980098
:100d98005507980018c0b3002e019000be019000be
:100da8001e0078009e0090009bfe07000000e000f7
:100db800010035000044eb000804e00003003200a5
:100dc8002e009000be0090001000370018c0b3003d
:100dd8004e019000de0190001e0078009e009000f9
:100de8008ffe07000000e00001003c000044eb001b
:100df8000804e000030032004e009000de0090007e
:100e0800020037001e0078009e0090004f04780012
:100e18000080fa00000006000800fa002007980089
:100e280031079800b2fd2000930424002e009000a2
:100e3800be0090001afe0700b2fd2000930c2400ab
:100e480094fe0700b2fd20009304240015fe07005d
:100e5800008fbe00b2fd2000930424001e0078001d
:100e68009e0090000ffe0700b2fd2000930c2400a6
:100e780088fe0700b2fd20009304240008fe070046
:100e88000080fa00000006000a00fa003007980007
:100e980041079800be0090004e009000008f40006f
:100ea8001e00780010017800900190001207980049
:100eb800230798001e009000ae0090000080fa0002
:100ec800000006000600fa001007980021079800a5
:100ed8009e0090002e009000008f40001e007800b9
:100ee80090009000100078000080fa0000000600d2
:100ef8000c00fa0020079800310798004207980074
:100f08005307980068004700100798000000eb009e
:100f1800000f78000a0037003e0090001e004000d5
:100f2800ae009000008040009e0078001e019000f6
:100f38008100410091407800014878001e0fe800c8
:100f48001e007800e30f5000f3ff34000080fa0021
:100f5800000006000c00fa002007980031079800ee
:100f68004207980053079800680047001007980048
:100f78000000eb00000f78000b0037003e009000e7
:100f88001e004000ae0090000080400032002000ab
:100f98009e0051001e0190008100410091407800a0
:100fa800014878001e0fe8001e007800e30f50008b
:100fb800f2ff34000080fa00000006000c00fa007e
:100fc80020079800310798004207980053079800b7
:100fd80068004700100798000000eb00000f780039
:100fe8000a0037003e0090001e004000ae0090004e
:100ff800008040009e0078001e01900081004100a2
:1010080091407800014878001e0fe8001e00780023
:10101800e70f5000f3ff34000080fa0000000600dc
:101028000000fa001160800080ff2f00008060003f
:101038001060880000fa20002060880023aca80017
:10104800238ca80011618000f03f2f000080600011
:1010580000a0a000106188003000200020618800f6
:10106800c3aca800c38ca80011668000f03f2f0015
:101078000080600000a0a0001066880030002000fa
:101088002066880001eca8000080fa000000060035
:101098000400fa00008fbe001e0178009e01900037
:1010a800528088006380880023cca90015eea80030
:1010b80023eca8005080800061808000020020009e
:1010c8000322240097fe0700e5fe0700d6fd07006f
:1010d80000007800306188001e0178009e019000b1
:1010e80092808800a3808800c3cca90024eea800c1
:1010f800c3eca80090808000a1808000020020003e
:101108000322240087fe0700d5fe0700c6fd07005e
:1011180000007800306688000080fa0000000600b1
:101128000000fa00f0032000303a8800213a8000dd
:10113800f0f32f0000806000203a8800213a8000f8
:1011480000fe2f00008060000000a000203a880008
:101158001200200080072000a1092000337420001d
:10116800804978008149780082497800103a8000e7
:10117800000178000200a000600420007105200032
:1011880023742000804978008149780082497800da
:1011980000000000113a80000000270080806000f5
:1011a80000002100808f5000faff3a000000000084
:1011b800113a800000022000008060000000e0007a
:1011c800fbff32000080fa00000006000000fa0071
:1011d80013e1a90011e1a9001061a8001021a900dc
:1011e80081088000f0fc2f000080600080088800e3
:1011f8000a21ef000621ef00101320007008880074
:1012080000d02200600888002142800080ff2f0063
:10121800008060000000a000204288000108a900aa
:101228002108a80011e1a8000080fa0000000600cb
:101238000000fa0005e1a90021088000f0fc2f0059
:10124800008060000040a000200888000421a90058
:1012580080382100100888000068a9002068a800cc
:1012680005e1a8000080fa00000006000000fa006e
:101278000e2eef001e2eef002e2eef003e2eef005a
:101288004e2eef005e2eef006e2eef00214ea900cd
:1012980060cea90060eea90011cea90011eea90048
:1012a80020cea90020eea9000080fa000000060068
:1012b8000000fa009aff0700ecff070064cea800c0
:1012c80064eea800254ea800c0ff0700d8ff07005d
:1012d80053ff070000002000812424006cff070052
:0412e800ffff3700cd
:020000040000fa
:1012ec00041000001200000080000000001000003c
:1012fc000200000082000000140000000210000038
:0c130c0002000000800000000000000053
:020000040000fa
:02000004000af0
:04afe000cfff00009f
:020000040000fa
:02000004000af0
:04afe400ffff00006b
:020000040000fa
:02000004000af0
:04afe8007fff0000e7
:020000040000fa
:02000004000af0
:04afec005fff000003
:020000040000fa
:02000004000af0
:04aff00038ff000026
:020000040000fa
:02000004000af0
:04aff400ffff00005b
:00000001FF
