:020000040000fa
:080000000002040000000000f2
:020000040000fa
:04000800dc03000015
:020000040000fa
:04000c00dc03000011
:020000040000fa
:04001000dc0300000d
:020000040000fa
:04001400dc03000009
:020000040000fa
:04001800dc03000005
:020000040000fa
:04001c00dc03000001
:020000040000fa
:04002000dc030000fd
:020000040000fa
:04002400dc030000f9
:020000040000fa
:04002800dc030000f5
:020000040000fa
:04002c00dc030000f1
:020000040000fa
:04003000dc030000ed
:020000040000fa
:0400340002030000c3
:020000040000fa
:04003800dc030000e5
:020000040000fa
:04003c00dc030000e1
:020000040000fa
:04004000dc030000dd
:020000040000fa
:04004400dc030000d9
:020000040000fa
:04004800fa020000b8
:020000040000fa
:04004c00dc030000d1
:020000040000fa
:04005000dc030000cd
:020000040000fa
:04005400980300000d
:020000040000fa
:040058006e03000033
:020000040000fa
:04005c004c03000051
:020000040000fa
:04006000dc030000bd
:020000040000fa
:04006400dc030000b9
:020000040000fa
:04006800dc030000b5
:020000040000fa
:04006c00dc030000b1
:020000040000fa
:04007000dc030000ad
:020000040000fa
:04007400dc030000a9
:020000040000fa
:04007800dc030000a5
:020000040000fa
:04007c00dc030000a1
:020000040000fa
:04008000dc0300009d
:020000040000fa
:04008400dc03000099
:020000040000fa
:04008800dc03000095
:020000040000fa
:04008c00dc03000091
:020000040000fa
:04009000dc0300008d
:020000040000fa
:040094002203000043
:020000040000fa
:04009800dc03000085
:020000040000fa
:04009c00dc03000081
:020000040000fa
:0400a000dc0300007d
:020000040000fa
:0400a400dc03000079
:020000040000fa
:0400a800dc03000075
:020000040000fa
:0400ac00dc03000071
:020000040000fa
:0400b000dc0300006d
:020000040000fa
:0400b400dc03000069
:020000040000fa
:0400b800dc03000065
:020000040000fa
:0400bc00dc03000061
:020000040000fa
:0400c000dc0300005d
:020000040000fa
:0400c400dc03000059
:020000040000fa
:0400c800dc03000055
:020000040000fa
:0400cc00dc03000051
:020000040000fa
:0400d000dc0300004d
:020000040000fa
:0400d400dc03000049
:020000040000fa
:0400d800dc03000045
:020000040000fa
:0400dc00dc03000041
:020000040000fa
:0400e000dc0300003d
:020000040000fa
:0400e400dc03000039
:020000040000fa
:0400e800dc03000035
:020000040000fa
:0400ec00dc03000031
:020000040000fa
:0400f000dc0300002d
:020000040000fa
:0400f400dc03000029
:020000040000fa
:0400f800dc03000025
:020000040000fa
:0400fc00dc03000021
:020000040000fa
:04010000dc0300001c
:020000040000fa
:04010400dc03000018
:020000040000fa
:04010800dc03000014
:020000040000fa
:04010c00dc03000010
:020000040000fa
:04011000dc0300000c
:020000040000fa
:04011400dc03000008
:020000040000fa
:04011800dc03000004
:020000040000fa
:04011c00dc03000000
:020000040000fa
:04012000dc030000fc
:020000040000fa
:04012400dc030000f8
:020000040000fa
:04012800dc030000f4
:020000040000fa
:04012c00dc030000f0
:020000040000fa
:04013000dc030000ec
:020000040000fa
:04013400dc030000e8
:020000040000fa
:04013800dc030000e4
:020000040000fa
:04013c00dc030000e0
:020000040000fa
:04014000dc030000dc
:020000040000fa
:04014400dc030000d8
:020000040000fa
:04014800dc030000d4
:020000040000fa
:04014c00dc030000d0
:020000040000fa
:04015000dc030000cc
:020000040000fa
:04015400dc030000c8
:020000040000fa
:04015800dc030000c4
:020000040000fa
:04015c00dc030000c0
:020000040000fa
:04016000dc030000bc
:020000040000fa
:04016400dc030000b8
:020000040000fa
:04016800dc030000b4
:020000040000fa
:04016c00dc030000b0
:020000040000fa
:04017000dc030000ac
:020000040000fa
:04017400dc030000a8
:020000040000fa
:04017800dc030000a4
:020000040000fa
:04017c00dc030000a0
:020000040000fa
:04018000dc0300009c
:020000040000fa
:04018400dc03000098
:020000040000fa
:04018800dc03000094
:020000040000fa
:04018c00dc03000090
:020000040000fa
:04019000dc0300008c
:020000040000fa
:04019400dc03000088
:020000040000fa
:04019800dc03000084
:020000040000fa
:04019c00dc03000080
:020000040000fa
:0401a000dc0300007c
:020000040000fa
:0401a400dc03000078
:020000040000fa
:0401a800dc03000074
:020000040000fa
:0401ac00dc03000070
:020000040000fa
:0401b000dc0300006c
:020000040000fa
:0401b400dc03000068
:020000040000fa
:0401b800dc03000064
:020000040000fa
:0401bc00dc03000060
:020000040000fa
:0401c000dc0300005c
:020000040000fa
:0401c400dc03000058
:020000040000fa
:0401c800dc03000054
:020000040000fa
:0401cc00dc03000050
:020000040000fa
:0401d000dc0300004c
:020000040000fa
:0401d400dc03000048
:020000040000fa
:0401d800dc03000044
:020000040000fa
:0401dc00dc03000040
:020000040000fa
:0401e000dc0300003c
:020000040000fa
:0401e400dc03000038
:020000040000fa
:0401e800dc03000034
:020000040000fa
:0401ec00dc03000030
:020000040000fa
:0401f000dc0300002c
:020000040000fa
:0401f400dc03000028
:020000040000fa
:0401f800dc03000024
:020000040000fa
:0401fc00dc03000020
:020000040000fa
:04020000dc0300001b
:020000040000fa
:04020400dc03000017
:020000040000fa
:04020800dc03000013
:020000040000fa
:04020c00dc0300000f
:020000040000fa
:04021000dc0300000b
:020000040000fa
:04021400dc03000007
:020000040000fa
:04021800dc03000003
:020000040000fa
:04021c00dc030000ff
:020000040000fa
:04022000dc030000fb
:020000040000fa
:04022400dc030000f7
:020000040000fa
:04022800dc030000f3
:020000040000fa
:04022c00dc030000ef
:020000040000fa
:04023000dc030000eb
:020000040000fa
:04023400dc030000e7
:020000040000fa
:04023800dc030000e3
:020000040000fa
:04023c00dc030000df
:020000040000fa
:04024000dc030000db
:020000040000fa
:04024400dc030000d7
:020000040000fa
:04024800dc030000d3
:020000040000fa
:04024c00dc030000cf
:020000040000fa
:04025000dc030000cb
:020000040000fa
:04025400dc030000c7
:020000040000fa
:04025800dc030000c3
:020000040000fa
:04025c00dc030000bf
:020000040000fa
:04026000dc030000bb
:020000040000fa
:04026400dc030000b7
:020000040000fa
:04026800dc030000b3
:020000040000fa
:04026c00dc030000af
:020000040000fa
:04027000dc030000ab
:020000040000fa
:04027400dc030000a7
:020000040000fa
:04027800dc030000a3
:020000040000fa
:04027c00dc0300009f
:020000040000fa
:04028000dc0300009b
:020000040000fa
:10040000af1c21000eff2c000e0188000000000030
:10041000000020000000e000020032000001200087
:100420002002880014000700e50007000000e0003b
:1004300003003a00a06f21000100200002003700f5
:100440000000200001002000810f70000100320038
:100450000f000700000020000000e0000200320052
:100460000000020000000000ea0702000000000097
:100470000040da000000fe00200020000000e00044
:1004800002003200100020009001880000000600e9
:10049000a1028800800478000000eb001f003700f4
:1004a000e284440054a0b4009905ba00e2844400f8
:1004b00054a0b4009906ba00e284440054a0b400e9
:1004c0000006eb00476fde00fd07b200ae018800ba
:1004d000636ce10003003a000ad801000000eb0061
:1004e0000e003700606ce10008003a00004deb00a0
:1004f0000a05e800020039003420ec000af0a000f0
:100500008b05e900f9ff3e00040037006168e10057
:10051000010032000086eb000b00070019c7ba008b
:100520000e04e0001905ba0003003a000a00e000da
:10053000dbff3a0000000600fe07b200ae028800b2
:100540008a047800f5ff37000cd0a300e20f4d00bd
:100550001c00390089027800354dba000a05e80010
:10056000020039003420ec000af0a0008b05e900fd
:100570000f003200254dba000a05e80002003900dc
:100580003420ec000af0a0008b05e90008003200de
:100590000c00e0000600320015cdba000a05e800a4
:1005a000020039003420ec000af0a0008b05e900bd
:1005b0008984e80054a0b4000b00e000e2ff3a0098
:1005c000000006009902ba00055d78008b05e9007d
:1005d000f7ff3200c82ade00055d78008b05e900d0
:1005e000f3ff32000c00e000f1ff320019ddba0029
:1005f000eeff37000000fa000108a9000080fa00b1
:10060000004006003600f800809fbe00829fbe00ba
:10061000849fbe00869fbe000000fa000068a9000b
:100620006d070700540807000080fa004f03be0062
:100630004f02be004f01be004f00be003600f90061
:10064000004006003600f800809fbe00829fbe007a
:10065000849fbe00869fbe000000fa000368a900c8
:10066000d0808000e180800061004000e080480090
:10067000d0808800e18088006c0207000080fa00ca
:100680004f03be004f02be004f01be004f00be0030
:100690003600f90000400600809fbe000000fa000e
:1006a00001a8a9000118800020002100010878009d
:1006b00011188000200021001100980021188000ee
:1006c000200021002100980010c0b3000af0b700fc
:1006d0000080fa004f00be00004006003600f8001f
:1006e000809fbe00829fbe00849fbe00869fbe008a
:1006f0000000fa000188a900b1808000a08080007d
:10070000808f500002003200d0080700010037003f
:100710001870ef000080fa004f03be004f02be00c9
:100720004f01be004f00be003600f9000040060039
:100730003600f800809fbe00829fbe00849fbe00ee
:10074000869fbe000000fa000168a9001011800019
:10075000640060000000e000010032002242a900b5
:1007600010118000620060000000e000060032000e
:100770002222a900050037003011800000407800d7
:10078000cf080700010037000000000010118000b2
:10079000610060000000e000f7ff3a000080fa000e
:1007a0004f03be004f02be004f01be004f00be000f
:1007b0003600f900004006000040da000000fe00ac
:1007c0000000050003f0a200889fbe008a9fbe00c3
:1007d0008c1f780069010700700133006450e1004c
:1007e0004f0032006420e1005200320003826c00ae
:1007f00007003b000905d0000306d000820f54001b
:100800000c065d0002003900020032008901780008
:10081000030678008582550004003d000003fd00ba
:100820008103fd008502ea008b854200840f72007f
:1008300002003b0060001000e08018006011b8006a
:100840000005eb007a28e1000a0039000600780074
:10085000c75ddd00f707b200878075002d00370007
:10086000828171000a017800610560008180d100f9
:100870000080d3008502e900f9ff3b000604400038
:100880008784480002003b0060041400e0841c00e0
:100890000988a300070032008a81710082817100fb
:1008a000610164008904d1000884d3008b05e8004d
:1008b000170037000978a30013003a000b00e0008e
:1008c000130034008b05e9000804440089844c00bf
:1008d0000a4474000978a3000d003a000b00e00000
:1008e000070034008b05e9000804440089844c00ab
:1008f00001003a000b0020000978a300f7ff320046
:100900000001eb0002003700828171000a017800cb
:10091000df0007000cf0a70001f0a000280137005d
:100920006420e10002003a00838f6c00280133004c
:100930000801be000200be0021013700889fbe00f2
:100940008a9fbe008c1f78000c0107001301330042
:1009500003866c006450e1002e0032006420e10048
:10096000330032006150e1002f0032006120e100cd
:100970003100320085855500eb07b00009002000ea
:1009800008042000050037000804440089844c0056
:100990000a0031000603430087834b000001530027
:1009a00081815b00f8ff33000203be000800a00055
:1009b0000804440089844c00f6ff3900c639dd0084
:1009c0008301730001003200130020008904d1006c
:1009d0000884d3000998a300050032000800a7008e
:1009e0000300a0008904d1000884d3008b05e8002f
:1009f0008904d1000884d3000001eb000281d200f9
:100a0000a300070001f0a1000cf0a70001f0a00076
:100a1000eb0037006420e100ed0032000801be0069
:100a20000200be00f7ff37006120e100e80032005d
:100a30006000b800f3ff37000000200001f8270035
:100a4000f0ff37001400200018013700f4ff2f00da
:100a5000160137000001be00b30007000470a700b4
:100a600003f0a1006509b100160032000d00350049
:100a70006828e10006003500f0ff2f00f1ff270095
:100a80000300e00013003b00010028000000050007
:100a900000004000818048008502e900fcff3a0028
:100aa00008003700f88f420002003c008000eb0095
:100ab000000005008100d1000080d3008502e8001d
:100ac000fcff3a000300e00002003b006000100061
:100ad000e0801800000006000001be009200070040
:100ae0000470a70003f0a10003f8a30013003a006c
:100af0006509b10010003200090035006928e100e5
:100b00000200350001002800000005000000400040
:100b1000818048008502e900fcff3a0000000600e1
:100b2000f88f4200050035008100d1000080d3001d
:100b30008502e800fcff3a00000006008000eb00a0
:100b4000000005006011b800f30037000400200029
:100b500000003700889fbe008a9fbe008c1f78006f
:100b60004f26dd00850007008c0033006120e10086
:100b7000430032006250e10041003e003e00390077
:100b80006420e1003c003200058255000f003b006c
:100b90000402e80038003a00800f5300818f5b00a8
:100ba000350034000800be0003f0a10001f0a600eb
:100bb00003f0a0000cf0a70003ff0700800037003f
:100bc0000603430087834b000c4646000005530094
:100bd00081855b00020033000a03be000c00a00008
:100be0000402e900f6ff3b00850578000602430099
:100bf00087824b0004003a006000b80009f0a700ab
:100c000001f0a0006e0037000002520081825a00fd
:100c10000704e000040033000603430087834b0011
:100c20008b05e900faff3700090578000604be00cd
:100c30000203be006011b80015000700e00f52006b
:100c4000e08f5a000700350002003c000c08a300aa
:100c5000040032000601be0003f0a0000cf0a70063
:100c6000d9fe07000a85680001f0a1000af0a7007c
:100c700001f0a000520037000800be00500037000d
:100c8000100220000cf0a6005081880050003700b0
:100c900081002000618055000b003d000b0020000a
:100ca00061fe2f000100e1001d003400828171000f
:100cb000610164008904d1000884d3000000e800c9
:100cc000faff3a0071002000610064000300700028
:100cd000020060000900320061044400e0844c001e
:100ce0000988a500050032008b05e8006808e100ce
:100cf00002003a008904d1000884d300f20f2000da
:100d00000258e10005003d00c75ddd00f907b200b3
:100d10008980750008007800000006000bf82700a5
:100d20008b00780000000500c70ade00f107b20062
:100d3000f50fb20008003200e1cf4200020032009d
:100d40000170a00024000500810f70000100320036
:100d50000408050044000500810f700002003a00fd
:100d6000140005008502e9000000400081c0480031
:100d7000fcff3b000170a000240005000004be0041
:100d8000e9ff07000003be000405be000200be002c
:100d9000e5ff0700844f7500000006000200be005a
:100da0006450e100050036006420e10002003600d6
:100db0000968a30001003a000800be000160a0001d
:100dc0004f0678004f05be004f04be00000006002d
:100dd000f0ff2f00f1ff2700f9ff3700889fbe00ca
:100de0008a9fbe008c1f7800e4ff0700ebff3300f2
:100df00003866c006450e100240032006420e100ae
:100e0000270032006150e100220032006120e10041
:100e1000210032008b854200eb07b1000134b8009d
:100e2000003ab8000804420089844a00013ab80038
:100e30000030b8008880400009014a0004003300f7
:100e40000000400081804800020149008b05e90054
:100e5000c909dd0083017000010032001300200089
:100e6000c814de004814dd004709de001200b2009d
:100e7000c808de000884700085ff070001f0a100ab
:100e80000cf0a70001f0a000cdff37006120e100c9
:100e9000cfff32000801be000200be00f7ff37009e
:100ea0006150e100fcff3a00c9ff3700889fbe0097
:100eb0008a9fbe00841f7800b0ff07004f007800b3
:100ec00011003300f0ff2f00838f6c0006003b0001
:100ed000040565000a00a7000800370009f0a60015
:100ee0001000200008003700820f5400838f5c0040
:100ef000030039001000200001003e000000200027
:100f000009f0a7000000ea004f05be004f04be0034
:100f10000000e00000000600889fbe008a9fbe001f
:100f20000082700004027100048271002600320009
:100f30000004be000200be006011b8006b09200072
:100f4000950220000182cf000a0039000541b1005e
:100f50000082cf00070039000541b1000982cf00af
:100f6000040039000541b1000882cf0001003900ba
:100f70000541b10005425200120032000a003b0058
:100f800082817100610164008100d1000080d30082
:100f90008984d3000884d3008b05e8000442e8006c
:100fa000f7ff3a00070037000804440089844c002a
:100fb00000004800818048008b05e9000442e900f8
:100fc000f9ff3a0032ff07004f05be004f04be0094
:040fd0000000060017
:020000040000fa
:100fd4000400fa005b07070027070700e104070085
:100fe400f2020700d80207006f030700ab050700f1
:100ff400ed060700ef0507000000eb00000f780086
:1010040005003700c9060700204798002e409000cd
:10101400120207001e0fe800dd0607009e0f5000b5
:10102400f8ff3c00f3ff37000000fa0027d0bf00b0
:101034000080fb00cf80de00f200200003002000cf
:10104400820f5000838f58007c003e000006010090
:101054000f00370018003700210037002b0037003d
:101064002c00370035003700360037003f003700ca
:10107400400037004a0037004b0037005500370066
:10108400560037005e0037005f0037006900370004
:101094001a30ef001c30ef0012c0b3006000b8003b
:1010a4006d0507000041eb006000b8006a05070009
:1010b40010c0b30027f0b700d2808000e380800026
:1010c400803e200001002000800f5100818f5900d4
:1010d4005d00360020c0b30027f0b7005b00370086
:1010e40012c0b30000002000011f24005a050700ad
:1010f4000041eb0000002000011f240056050700fa
:1011040030c0b30027f0b70050003700510007008b
:101114004e00370012c0b30000002000011f24005d
:101124004d0507000041eb006000b8004a050700c8
:1011340050c0b30027f0b700440037004500070053
:101144004200370012c0b3006000b8004205070037
:101154000041eb0000002000011f24003e050700b1
:1011640070c0b30027f0b70038003700390007001b
:101174003600370012c0b30000002000011724001d
:10118400350507000041eb000000200001172c008a
:101194003105070090c0b30027f0b7002b003700db
:1011a4002c0007002900370012c0b3000000200003
:1011b40001172c00280507000041eb000000200067
:1011c4000117240024050700b0c0b30027f0b700be
:1011d4001e0037001f0007001c00370012c0b300b8
:1011e4006000b8001c0507000041eb006000b80077
:1011f40019050700d0c0b30027f0b700130037006b
:10120400140007001100370012c0b30000002000d2
:10121400011a2c00100507000041eb00000020001b
:10122400011a2c000c050700f0c0b30027f0b7002a
:101234000600370007000700040037002770ef009e
:101244000000000001003700000000000080fa00e8
:10125400000006000600fa00881f78004081800024
:101264000000e000b90032000040eb00004f7800bd
:10127400f08d8000018e800018c0b30002002000b1
:1012840003222400eefd07000000e0000100350009
:101294000044eb000804e00019003200108e8000c6
:1012a400218e800018c0b30002002000031f240018
:1012b400e5fd07000000e00001003c000044eb00f5
:1012c4000804e0000e003200308e8000418e800061
:1012d40018c0b3000200200003222400dafd070036
:1012e4000000e00001003c000044eb000804e000c2
:1012f4000300320020c0b300004f780055003700cf
:10130400f08d8000018e800018c0b3000200200020
:1013140003222400ccfd07000000e00001003c0093
:101324000044eb000804e00019003200108e800035
:10133400218e800018c0b30002002000031f240087
:10134400c1fd07000000e00001003c000044eb0088
:101354000804e0000e003200308e8000418e8000d0
:1013640018c0b3000200200003222400b4fd0700cb
:101374000000e000010035000044eb000804e00038
:101384000300320010c0b300004f78003100370072
:10139400108e8000218e800018c0b300020020004f
:1013a400031f2400a6fd07000000e0000100350033
:1013b4000044eb000804e0000300320030c0b30036
:1013c400004f780023003700f08d8000018e8000ec
:1013d40018c0b30002002000032224009afd070075
:1013e4000000e00001003c000044eb000804e000c1
:1013f40018003200108e8000218e800018c0b300c7
:1014040002002000031f24008ffd07000000e000fd
:1014140001003c000044eb000804e0000d00320031
:10142400308e8000418e800018c0b300020020007e
:101434000322240084fd07000000e00001003c00ba
:101444000044eb000804e000020032000040eb001e
:10145400004f78001e4078000004e00003003a00ca
:1014640020c0b30026f0b700110037001e407800fa
:10147400e24f500003003a0060c0b30026f0b7000a
:101484000b0037001e407800e14f500003003a0083
:1014940040c0b30026f0b700050037001e407800b6
:1014a400e34f500002003a0080c0b30026f0b700ba
:1014b40026d0bf008080fb0027d0bf000080fb0047
:1014c4000000e900808f50002000320065022100f6
:1014d40095427800d0808000e18080004808de00da
:1014e40000427800d0808000e18080004008de0067
:1014f40080417800d0808000e18080004809dd00d0
:101504004800de0000007100c808de0000417800d9
:10151400d0808000e180800000407800154798006a
:101524002447980033479800424798005047980052
:101534000e00e800000178005100200000052000a2
:101544009700070026d0bf0027f0b7004f047800ab
:101554000080fa00000006000800fa0060479800c6
:101564006e419000710221008248780075022100ca
:1015740095427800d0808000e18080004808de0039
:1015840000427800d0808000e18080004008de00c6
:1015940080417800d0808000e18080004809dd002f
:1015a4004800de0000007100c808de000041780039
:1015b400d0808000e180800000407800054f7800f2
:1015c40014479800234798003247980040479800f2
:1015d4000e01780051002000000520007000070073
:1015e4000080fa00000006000200fa00004f7800b4
:1015f4001e4078000004a2000080fb000000e90007
:101604004f00de00408188000080fa0000000600e0
:101614000e00fa00889fbe0040079800510798000a
:10162400620798000f0478000f00780080047800a7
:101634005e009000660040008000e90021079800e9
:101644000000e8000000e8000000d1008000400035
:101654000f007800818747000000e8000000d100f7
:1016640000004000300798003e009000ee0190001a
:101674005e019000ce009000180007003e0090002c
:10168400104f780010002000100798000800370061
:10169400be0090001e0090000080400010407800c2
:1016a4001e4f68001e0090000000e800100798001c
:1016b4005e009000e50040001e009000808f500006
:1016c400f3ff3c001e407800890778008807780003
:1016d4004f04be000080fa00000006000a00fa0071
:1016e40010079800210798003207980043079800d4
:1016f4001e009000e1cfb300014878001e00900066
:101704000000e800ae009000c888de008140780048
:10171400014878001e0090000080e800ae009000b0
:1017240081407800014878001e009000630040006a
:10173400be009000c888de0081407800014878002f
:101744001e00900064004000be00900081407800bc
:10175400014878000000eb00000f78000a00370011
:101764009e007800658040009e009000008040004c
:101774009e0078004e019000810041009140780065
:10178400014878001e0fe8003e0090009e0078009b
:10179400808f5000f2ff35000080fa000000060040
:1017a4000c00fa00889fbe0030079800410798009b
:1017b400520798000f0478000f0078008004780026
:1017c4004e009000660040008000e900010f7800a0
:1017d4000000e8000000e8000000d10080004000a4
:1017e4000f007800818747000000e8000000d10066
:1017f40000004000100798001e009000de019000d9
:101804004e019000be009000b4ff07005e019000fe
:10181400ce0090003e0090007dff070040479800f6
:101824004e009000650040009e0090000080400043
:10183400ce409000014878004e009000e600400041
:101844001e00900046040700890778008807780086
:101854004f04be000080fa00000006000400fa00f5
:101864002047980090808000e30f5000260032004b
:10187400e30f500005003e00e10f5000130032005a
:10188400e10f500018003e0007003700e50f50003c
:1018940032003200e50f500022003900e60f5000fc
:1018a4003d0032004c0037002e409000e24f4000d3
:1018b4004c003a000c30ef000e30ef001030ef0017
:1018c4001000200090808800490037002e409000ce
:1018d4000080fb004800dd006080880020002000bc
:1018e40090808800420037002e4090008080fb00ea
:1018f400608080000080400060808800300020000c
:10190400908088003a0037002e4090000080fb0051
:101914004800dd007080880040002000908088002e
:10192400330037002e4090008080fb0070808000e0
:101934000080400070808800708080000000e0001b
:1019440003003400500020009080880028003700f5
:10195400600020009080880025003700808080008f
:10196400c112210000804000ae4090000148780080
:10197400808080000000e8008080880081808000f2
:1019840070808000808f50001800350060002000b7
:101994009080880016003700ae409000014f780018
:1019a4007180800060808000c212210018ff07004f
:1019b400104798001e4090009e4f500004003a00cb
:1019c4007180800060808000c21221000a0007003c
:1019d4001230ef00060037001230ef000000000064
:1019e4000300370000000000010037000000000081
:1019f4000080fa00000006000600fa00000f7800dc
:101a040011079800220798001e0078001105200095
:101a1400810f50004000320021052000810f50004a
:101a24004100320001022000810f500044003a00be
:101a34002e009000104078000080fb00e20f500060
:101a440014003200e30f500022003200e10f500076
:101a54003a003a002e0090000000e80010407800a0
:101a64000004a2000080fb000000e9004f00de003b
:101a7400004078000080fb00610060004a00dd0047
:101a84002171800001a0a100010070002071880074
:101a9400200037002e0090000000e800104078007d
:101aa4000004a2000080fb000000e9004f00de00fb
:101ab400004078000080fb00610060004700dd000a
:101ac400217380000170a100010070002073880060
:101ad400100037002e0090000000e800104078004d
:101ae4000004a2000080fb000000e9004f00de00bb
:101af400004078000080fb00610060004600dd00cb
:101b0400217380000160a10001007000207388002f
:101b1400000000000a0037002e00900010407800fa
:101b24008dfe0700060037002e009000104078005c
:101b3400adfe0700000000000100370000000000b7
:101b44000080fa00000006000000fa0013e1a9007a
:101b540011e1a9001061a8001021a90081088000ea
:101b6400f0fc2f0000806000800888000a21ef004c
:101b74000621ef00202620007008880000a0250020
:101b8400600888002142800080ff2f0000806000f0
:101b94000000a000204288000108a9002108a80034
:101ba40011e1a8000080fa00000006000000fa001d
:101bb40005e1a9000000200081242400060007009c
:101bc4000421a9000068a9002068a80005e1a80074
:101bd4000080fa00000006000400fa00881f780064
:101be400008fbe0021088000f0fc2f000080600000
:101bf400200888001e0178009e01900000682900da
:101c040081c124004cfb070018c0b30002f02f0070
:101c1400f37724008cfb07000000e00001003c0087
:101c24000044eb000804e000540032002108800066
:101c3400f0fc2f00008060000040a0002008880015
:101c44001e0178009e0190000068290081c12400d3
:101c540039fb0700020020000310240036fb0700b4
:101c640018c0b30002f02f00f377240076fb0700be
:101c74000000e00001003c000044eb000804e00028
:101c84003200320021088000f0fc2f000080600048
:101c94000050a000200888001e0178009e019000da
:101ca4000068290081c1240023fb070002002000f2
:101cb4000328240020fb070018c0b30002f02f0003
:101cc400f377240060fb07000000e00001003c0003
:101cd4000044eb000804e0001000320021088000fa
:101ce4000003200001007000200888001e01780015
:101cf4009e0190000068290081c124000efb0700aa
:101d040002002000033824000bfb070050fb0700ef
:101d14000000780010088800200037001e017800b9
:101d24009e0190000068290081c1240002fb070085
:101d34000200200003282400fffa070044fb0700e8
:101d44000000780010088800140037001e01780095
:101d54009e0190000068290081c12400f6fa070062
:101d64000200200003102400f3fa070038fb0700e8
:101d74000000780010088800080037001e01780071
:101d84009e0190000068290081c12400eafa07003e
:101d94002ffb070000007800100888004f0478002b
:101da4000080fa00000006000000fa001fe1a9000c
:101db40000002000a1472400060007001e21a900fe
:101dc4000368a9002368a8001fe1a8000080fa00a6
:101dd400000006000400fa00881f7800008fbe008f
:101de400f1088000f0fc2f0000806000f0088800fb
:101df4001e0178009e0190000068290081c1240022
:101e0400cdfa070018c0b30002f02f00f3772400c6
:101e14000dfb07000000e00001003c000044eb0063
:101e24000804e00054003200f1088000f0fc2f00a8
:101e3400008060000040a000f00888001e017800c7
:101e44009e0190000068290081c12400bafa0700ad
:101e54000200200003102400b7fa070018c0b300e2
:101e640002f02f00f3772400f7fa07000000e000e7
:101e740001003c000044eb000804e00032003200a2
:101e8400f1088000f0fc2f00008060000050a000ea
:101e9400f00888001e0178009e0190000068290067
:101ea40081c12400a4fa07000200200003282400b2
:101eb400a1fa070018c0b30002f02f00f377240042
:101ec400e1fa07000000e00001003c000044eb00e0
:101ed4000804e00010003200f10880000003200034
:101ee40001007000f00888001e0178009e01900037
:101ef4000068290081c124008ffa07000200200035
:101f0400033824008cfa0700d1fa07000000780097
:101f1400d0088800200037001e0178009e01900040
:101f24000068290081c1240083fa07000200200010
:101f34000328240080fa0700c5fa0700000078008f
:101f4400d0088800140037001e0178009e0190001c
:101f54000068290081c1240077fa070002002000ec
:101f64000310240074fa0700b9fa0700000078008f
:101f7400d0088800080037001e0178009e019000f8
:101f84000068290081c124006bfa0700b0fa070039
:101f940000007800d00888004f0478000080fa0020
:101fa400000006000400fa00881f7800008fbe00bd
:101fb40018c0b3006011b8001e0078009e009000a5
:101fc400a1fa07000000e00001003d000044eb001e
:101fd4000804e000030032001e0078009e00900018
:101fe400030037001e0078009e00900001f0a2005c
:101ff4004f0478000080fa00000006000800fa0090
:10200400881f7800008fbe002207980033079800cd
:1020140018c0b3002e019000be0190001e0078008d
:102024009e00900088fa07000000e00001003c00d8
:102034000044eb000804e000030032001e007800b6
:102044009e009000020037002e009000be00900019
:102054004f0478000080fa00000006000800fa002f
:10206400881f7800008fbe0022079800330798006d
:1020740018c0b3002e019000be0190001e0078002d
:102084009e0090006efa07000000e0000100350099
:102094000044eb000804e000030032001e00780056
:1020a4009e009000020037002e009000be009000b9
:1020b4004f0478000080fa00000006000c00fa00cb
:1020c400881f7800008fbe0022079800330798000d
:1020d400440798005507980018c0b3002e019000db
:1020e400be0190001e0078009e00900054fa070084
:1020f4000000e000010035000044eb000804e000ab
:10210400030032002e009000be0090001000370043
:1021140018c0b3004e019000de0190001e0078004c
:102124009e00900048fa07000000e00001003c0017
:102134000044eb000804e000030032004e0090006d
:10214400de009000020037001e0078009e00900020
:102154004f0478000080fa00000006000800fa002e
:102164002007980031079800b2fd20009304240052
:102174002e009000be00900091f90700b2fd2000ef
:10218400930c240070fa0700b2fd2000930424008d
:102194008cf90700008fbe00b2fd200093042400d8
:1021a4001e0078009e00900086f90700b2fd200012
:1021b400930c240064fa0700b2fd20009304240069
:1021c4007ff907000080fa00000006000a00fa0008
:1021d4003007980041079800be0090004e00900020
:1021e400008f40001e0078001001780090019000dc
:1021f40012079800230798001e009000ae0090007c
:102204000080fa00000006000600fa00100798009b
:10221400210798009e0090002e009000008f40003f
:102224001e00780090009000100078000080fa00f2
:10223400000006000c00fa002007980031079800ff
:102244004207980053079800680047001007980059
:102254000000eb00000f78000a0037003e009000f9
:102264001e004000ae009000008040009e007800f8
:102274001e019000810041009140780001487800df
:102284001e0fe8001e007800e30f5000f3ff340037
:102294000080fa00000006000c00fa0020079800f5
:1022a40031079800420798005307980068004700d8
:1022b400100798000000eb00000f78000b003700b7
:1022c4003e0090001e004000ae00900000804000e0
:1022d400320020009e0051001e0190008100410048
:1022e40091407800014878001e0fe8001e00780035
:1022f400e30f5000f2ff34000080fa0000000600f3
:102304000c00fa0020079800310798004207980053
:102314005307980068004700100798000000eb007e
:10232400000f78000a0037003e0090001e004000b5
:10233400ae009000008040009e0078001e019000d6
:102344008100410091407800014878001e0fe800a8
:102354001e007800e70f5000f3ff34000080fa00fd
:10236400000006000000fa001160800080ff2f00ca
:10237400008060001060880000fa2000206088005f
:1023840023aca800238ca80011618000f03f2f002b
:102394000080600000a0a0001061880030002000d0
:1023a40020618800c3aca800c38ca800116680001b
:1023b400f03f2f000080600000a0a000106688009d
:1023c400300020002066880001eca8000080fa009c
:1023d400000006000000fa00889fbe00d48d800033
:1023e400e58d8000b08d8000c18d800018c0b300e1
:1023f4000001be000400be0091f907000000e000e7
:10240400010035000044eb000804e0000d00320038
:10241400b88d8000c98d8000d48d8000e58d80004a
:10242400f0808000018180000001be000400be0035
:10243400e4f807000801be0008ff0700d08d8800fb
:10244400e18d8800d48d8000e58d8000b08d800002
:10245400c18d800018c0b3000001be000400be009e
:1024640079f907000000e00001003c000044eb00a3
:102474000804e0000d003200b88d8000c98d800092
:10248400d48d8000e58d8000f08080000181800083
:102494000001be000400be00c9f807000801be0028
:1024a400d6fe0700d08d8800e18d8800d08d800095
:1024b400e18d800018c0b3006011b80062f9070014
:1024c4000000e00001003c000044eb000804e000d0
:1024d40004003200c3cca90024eea800c3eca80079
:1024e40003003700c3eca90024cea800c3cca80085
:1024f400d08d8000e18d8000aafe0700020020003c
:102504000322240034fa070072f90700000078005f
:1025140030668800948d8000a58d8000708d8000c9
:10252400818d800018c0b3000001be000400be000d
:1025340043f907000000e000010035000044eb000f
:102544000804e0000d003200788d8000898d800041
:10255400948d8000a58d8000f08080000181800032
:102564000001be000400be0096f807000801be008a
:10257400bafe0700908d8800a18d8800948d80009c
:10258400a58d8000708d8000818d800018c0b300ff
:102594000001be000400be002bf907000000e000ab
:1025a40001003c000044eb000804e0000d00320090
:1025b400788d8000898d8000948d8000a58d8000a9
:1025c400f0808000018180000001be000400be0094
:1025d4007bf807000801be0088fe0700908d880084
:1025e400a18d8800908d8000a18d800018c0b3005b
:1025f4006011b80012f907000000e0000100350086
:102604000044eb000804e0000400320023cca900dd
:1026140015eea80023eca8000300370023eca90062
:1026240015cea80023cca800908d8000a18d800039
:102634005cfe07000200200003222400e6f90700e4
:1026440024f9070000007800306188004f04be00c0
:102654000080fa00000006000600fa00008fbe00a9
:10266400424798004e4090000004e00005003a0004
:102674001e0178009e019000728d8800838d880071
:10268400040037001e0178009e019000b28d88007e
:10269400c38d88000080fa00000006000000fa00e4
:1026a40021e3a9002143a80001198000f0cf2f00e5
:1026b40000806000001988002043a90001198000ef
:1026c400000e20000100700000198800111980001c
:1026d400f0ff210000806000101988002343a80047
:1026e40011198000f0cf2f000080600010198800bd
:1026f4001119800030f82f00008060000030a00025
:10270400101988002203a9002223a90025e3a900a7
:10271400f0c0b30024e3b70021198000f00f2e00ad
:102724008080600000f02000010070002019880003
:102734003303a9002e0ea8002f6ea8006f2ea80048
:1027440030c3a8003163a8002e03a80041198000fb
:1027540000fc2f00008060004019880028e3a900d5
:1027640001a8a90021a8a80021e3a8000080fa007c
:10277400000006000000fa002023a8000080fa00f0
:10278400000006000000fa00200021000080fa008a
:10279400000006000000fa000ad0bf000080fa0022
:1027a400000006000000fa000a70ef000080fa0042
:1027b400000006000a00fa00889fbe00f5ff07002b
:1027c400e14f500063003a00f6ff0700edff0700f9
:1027d400000f78009e0078006480400010007800ac
:1027e4008000eb00d6f807003233230033052400c1
:1027f40079f9070002002000035824004ef807006e
:10280400d2cc2c00c304240073f9070010079800ed
:10281400210798001e019000ae01900000002000e6
:102824008120240044f8070002002000030a240049
:10283400e3f70700f08d8800018e88001e80e80011
:10284400100078008000eb00bdf80700323323004d
:102854003305240060f90700020020000358240017
:1028640035f80700d2cc2c00c30424005af9070021
:1028740010079800210798001e019000ae019000f7
:1028840000002000812024002bf807000200200013
:10289400030a2400caf70700108e8800218e8800de
:1028a4001e007800100078008000eb00a4f80700f8
:1028b400323323003305240047f9070002002000c7
:1028c400035824001cf80700d2cc2c00c3042400b5
:1028d40041f9070010079800210798001e01900095
:1028e400ae019000000020008120240012f80700af
:1028f40002002000030a2400b1f70700308e88008c
:10290400418e8800308e8000418e800071f807006f
:1029140080447800108e8000218e80006df80700be
:1029240000447800f08d8000018e800069f8070073
:10293400004078006947980078479800004f980055
:1029440066004700000178003100200000032000e9
:1029540093fb07004f04be000080fa00000006004d
:102964000600fa0010079800210798000040eb00c9
:10297400004f78003d000700ae009000810f50002a
:10298400110034000040eb00004f780006003700cf
:102994001e80fb009e0090000080400010407800e4
:1029a4000b0007001e4fe8009e80fb002e009000e5
:1029b400808f5000f6ff35003c0007000004e00063
:1029c40001003a00200007000080fa000000060021
:1029d4000200fa00004f7800a0808000c1022100ac
:1029e400808040009e4878000000e800a0808800b5
:1029f400a180800000082000808f500001003a0070
:102a04001430ef000080fa00000006000200fa0013
:102a1400b0808000c102210080804000114f780006
:102a24000000e800b0808800b18080000008200029
:102a3400808f500001003a001630ef001e407800ed
:102a44000080fa00000006000200fa0010c0b30083
:102a540018f0b700edff0700004f78001e80fb0060
:102a6400201188000080fa00000006000000fa002f
:102a7400a1808000b0808000808f50000500340069
:102a8400b1808000a0808000008050000008b00069
:102a940004003700a1808000b080800000805000d6
:102aa4000008b0000080fa00000006000000fa00f0
:102ab40018d0bf000080fa00000006000200fa00ef
:102ac400004f78000f0007000000e0000b00340006
:102ad40010818000c10a2100808040009e48780057
:102ae4000000e800108188001181800000082000a7
:102af400808f500001003a002230ef000080fa007d
:102b0400000006000000fa0011818000208180008e
:102b14000080500000f0a7000000ea000108200037
:102b2400008050000080fa00000006000200fa0055
:102b340020818000c10a210080804000114f78006c
:102b44000000e80020818800218180000008200026
:102b5400808f500001003a002430ef001e407800be
:102b64000080fa00000006000000fa0011818000d5
:102b740020818000808f50000200320010c0b3001a
:102b8400010037000040eb000080fa00000006005e
:102b94000000fa00dbff070001082000008050005d
:102ba4000080fa00000006000000fa002002a900dc
:102bb4000111800090ff2f00008060000011880048
:102bc40020a2a9002062a80050052000401188001e
:102bd40023a2a90023e2a9000188a9002188a80052
:102be40011118000f0f32f000080600010118800a4
:102bf4000168a9002168a80021e2a8002342a800d6
:102c04000080fa00000006000600fa001007980091
:102c1400210798000040eb00004f78000040eb00d3
:102c2400004f78000e0037000000000011118000f2
:102c340000202000008060000000e000fbff3a005c
:102c44001e009000104078000080fb0020118800d6
:102c54001e0090000000e800100798001e4fe800d6
:102c64009e80fb002e009000808f5000eeff350008
:102c74000080fa00000006000000fa000e2eef00ab
:102c84001e2eef002e2eef003e2eef004e2eef00f4
:102c94005e2eef006e2eef00214ea90060cea9003b
:102ca40060eea90011cea90011eea90020cea90062
:102cb40020eea9002136800000f82f00008060007b
:102cc4008001b300203688001134800000fc2f00fe
:102cd400008060000000a0001034880001368000ed
:102ce40000f82f00808060001006200001007000b2
:102cf4000036880001368000f00f280080806000d4
:102d0400000026000100700000368800e1358000d4
:102d140000f82f0080806000600420000100700033
:102d2400e0358800e1358000f00f280080806000e5
:102d34000050240001007000e03588000080fa0093
:102d4400000006000000fa00f0032000303a88007a
:102d5400213a8000f0f32f0000806000203a8800c0
:102d6400213a800000fe2f00008060000000a000d7
:102d7400203a88001200200080072000a1092000ca
:102d840033742000804978008149780082497800b2
:102d9400103a8000000178000200a00060042000c6
:102da400710520002374200080497800814978004f
:102db4008249780000000000113a800000002700da
:102dc4008080600000002100808f5000faff3a00ec
:102dd40000000000113a8000000220000080600022
:102de4000000e000fbff32000080fa000000060053
:020000040000fa
:102df40026100000020000008000000028100000df
:102e04000200000082000000010000001a1000000f
:102e14000400000080000000ac1100001e0000004f
:102e2400800000001e10000004000000820000006a
:102e34000000a00040000000001000000c00000092
:102e4400800000002c1000008000000080000000c2
:102e5400141000000600000080000000ac10000008
:102e64008000000080000000221000000400000028
:102e7400800000002c110000800000008000000091
:102e84000c10000008000000800000002a10000060
:0c2e9400020000008000000000000000b0
:020000040000fa
:102ea0000000fa00c301a8000080eb00e00e8800db
:102eb0000080eb00f00e8800c1e1a8000080fa005d
:102ec000000006000000fa00c305a8000080eb0027
:102ed000e02e88000080eb00f02e8800c1e5a800fd
:082ee0000080fa00000006006a
:020000040000fa
:02000004000af0
:04afe000cfff00009f
:020000040000fa
:02000004000af0
:04afe400ffff00006b
:020000040000fa
:02000004000af0
:04afe8007fff0000e7
:020000040000fa
:02000004000af0
:04afec005fff000003
:020000040000fa
:02000004000af0
:04aff00038ff000026
:020000040000fa
:02000004000af0
:04aff400ffff00005b
:00000001FF
